:020000020000FC
:0200000033C00B
:0200040018954D
:02000800189549
:02000C00189545
:02001000189541
:0200140018953D
:02001800189539
:02001C00189535
:02002000189531
:0200240018952D
:02002800189529
:02002C00189525
:02003000189521
:0200340018951D
:02003800189519
:02003C00189515
:02004000189511
:0200440018950D
:02004800189509
:02004C00189505
:02005000189501
:020054001895FD
:020058001895F9
:02005C001895F5
:020060001895F1
:020064001895ED
:1000680058E05EBF5FEF5DBF27D05FEF54B95FEF29
:1000780057B95FEF55B9D4EFE1E012D050E055B968
:10008800D4EFE1E00DD05FEF58B9D4EFE1E008D04C
:1000980050E058B9D4EFE1E003D0EBCF8895FECF1C
:1000A800E395A1E79AE39A95F1F7AA95D9F7DA9536
:1000B800C1F7EA95B1F7089550E055B950E058B93D
:0600C80050E05BB9089551
:00000001FF
