:020000020000FC
:0200000033C00B
:0200040018954D
:02000800189549
:02000C00189545
:02001000189541
:0200140018953D
:02001800189539
:02001C00189535
:02002000189531
:0200240018952D
:02002800189529
:02002C00189525
:02003000189521
:0200340018951D
:02003800189519
:02003C00189515
:02004000189511
:0200440018950D
:02004800189509
:02004C00189505
:02005000189501
:020054001895FD
:020058001895F9
:02005C001895F5
:020060001895F1
:020064001895ED
:1000680058E05EBF5FEF5DBF23D05FEF54B955E244
:100078005093010150E05093020150E25093000167
:1000880022D0F1E00FD0F3CF8895FECFE395AEEF05
:1000980094E19A95F1F7AA95D9F7DA95C1F7EA9517
:1000A800B1F70895D8EEE3E0F1DFFA95D9F70895AE
:1000B80050E055B950E058B950E05BB908955C91EB
:1000C80008955C930895A0910101B0910201A09157
:1000D8000101B0910201F3DF009000010526502DC7
:0200E800F0CF57
:00000001FF
