:020000020000FC
:0200000033C00B
:0200040018954D
:02000800189549
:02000C00189545
:02001000189541
:0200140018953D
:02001800189539
:02001C00189535
:02002000189531
:0200240018952D
:02002800189529
:02002C00189525
:02003000189521
:0200340018951D
:02003800189519
:02003C00189515
:02004000189511
:0200440018950D
:02004800189509
:02004C00189505
:02005000189501
:020054001895FD
:020058001895F9
:02005C001895F5
:020060001895F1
:020064001895ED
:1000680058E05EBF5FEF5DBF83D789D7E5D552E023
:100078005093750154E050937B0175D550E050932F
:100088006E0150936F01B4D452E05093020150E0D6
:100098005093030153E05093040150E0509305013D
:1000A8005CEF509306015FEF5093070156E05093C1
:1000B800080150E05093090158EF50930A015FEF8F
:1000C80050930B0158EF50930C015FEF50930D01C3
:1000D80058EF50930E015FEF50930F0158EF509374
:1000E80010015FEF509311015BEF509314015FEF24
:1000F800509315015DEF509316015FEF5093170170
:1001080058EF509318015FEF5093190153E0509343
:100118001A0150E050931B0152E050931C0150E02B
:1001280050931D0157E050931E0150E050931F015A
:1001380052E05093200150E05093210158E0509331
:10014800220150E0509323015EE150934A0150E0B0
:1001580050934B0154E650934C0150E050934D019D
:1001680056E950934E0150E050934F0152E350939B
:10017800500150E05093510150EA5093520150E021
:100188005093530154E65093540150E05093550155
:1001980050E55093560150E0509357015EE150935B
:1001A800580150E05093590154E150935C0150E0DC
:1001B80050935D0154E150935E0150E050935F010C
:1001C80050E15093600150E05093610152E3509325
:1001D800620150E0509363015CE35093640150E086
:1001E8005093650158E25093660150E050936701BF
:1001F80054E15093640150E0509365015EE15093DF
:10020800660150E05093670158E15093680150E04F
:100218005093690154E250936A0150E050936B0186
:1002280050E15093850150E15093860151E050937D
:10023800830150E05093840150E050936C0150E0EA
:1002480050936D0150E0509396013090960133948D
:100258003092960110909601110C08E4100EA12D11
:1002680000E011E0011FB02F5D9150938B0150E029
:1002780050938C015D9150938C0105EE309086016E
:100288000319102EC0918B01D0918C01612D70E063
:100298000E94C60A00FE2FC010909601110C00E0C3
:1002A800100EA12D00E011E0011FB02F5D915093B9
:1002B8008D0150E050938E015D9150938E0100E0C6
:1002C80030908D01031900938B0100E030908E016E
:1002D800030900938C0110909601110C00E0100E98
:1002E800A12D00E011E0011FB02F50918B015D930B
:1002F80050918C015D9310909601110C08E4100E3A
:10030800A12D00E011E0011FB02F5D9150938B01EA
:1003180050E050938C015D9150938C0160918B015A
:1003280070918C01C8E0D0E00E94C60A00FE2FC080
:1003380010909601110C00E0100EA12D00E011E0C4
:10034800011FB02F5D9150938D0150E050938E01A5
:100358005D9150938E0100E030908D010319009358
:100368008B0100E030908E01030900938C011090FE
:100378009601110C00E0100EA12D00E011E0011F04
:10038800B02F50918B015D9350918C015D9310902B
:100398009601110C0AE5100EA12D00E011E0011FD5
:1003A800B02F5D9150938B0150E050938C015D917B
:1003B80050938C010FE3309085010319102E01E052
:1003C80010E0010B202EC0918B01D0918C01612D82
:1003D800722D0E94C60A00FE2FC010909601110CC3
:1003E80002E1100EA12D00E011E0011FB02F5D9178
:1003F80050938D0150E050938E015D9150938E0182
:1004080000E030908D01031900938B0100E03090DB
:100418008E01030900938C0110909601110C02E1E2
:10042800100EA12D00E011E0011FB02F50918B019B
:100438005D9350918C015D9310909601110C0AE523
:10044800100EA12D00E011E0011FB02F5D91509317
:100458008B0150E050938C015D9150938C01609119
:100468008B0170918C01C8E0D0E00E94C60A00FEA2
:100478002FC010909601110C02E1100EA12D00E082
:1004880011E0011FB02F5D9150938D0150E0509302
:100498008E015D9150938E0100E030908D0103191B
:1004A80000938B0100E030908E01030900938C01CA
:1004B80010909601110C02E1100EA12D00E011E040
:1004C800011FB02F50918B015D9350918C015D936A
:1004D80010909601110C08E4100EA12D00E011E017
:1004E800011FB02F5D9150938D0150E050938E0104
:1004F8005D9150938E0150918D0150938B015091D5
:100508008E0150938C0110909601110C04E2100E8C
:10051800A12D00E011E0011FB02F50918B015D93D8
:1005280050918C015D9310909601110C0AE5100E04
:10053800A12D00E011E0011FB02F5D9150938D01B6
:1005480050E050938E015D9150938E0150918D0132
:1005580050938B0150918E0150938C01109096010D
:10056800110C06E3100EA12D00E011E0011FB02FC1
:1005780050918B015D9350918C015D931090960181
:10058800110C00E0100EA12D00E011E0011FB02FAA
:100598005D9150938B0150E050938C015D91509385
:1005A8008C0110909601110C08E4100EA12D00E0AA
:1005B80011E0011FB02F5D9150938F0150E05093CF
:1005C80090015D915093900130908F0110908B01B4
:1005D800310C30928D013090900110908C01311CBB
:1005E80030928E0110909601110C08E4100EA12D86
:1005F80000E011E0011FB02F50918D015D935091E3
:100608008E015D9310909601110C02E1100EA12D40
:1006180000E011E0011FB02F5D9150938B0150E075
:1006280050938C015D9150938C0110909601110CA0
:100638000AE5100EA12D00E011E0011FB02F5D9119
:1006480050938F0150E0509390015D915093900129
:1006580030908F0110908B01310C30928D013090C9
:10066800900110908C01311C30928E0110909601EF
:10067800110C0AE5100EA12D00E011E0011FB02FAA
:1006880050918D015D9350918E015D9360916C0145
:10069800662309F0A5C010909601110C04E2100E13
:1006A800A12D00E011E0011FB02F5D9150938B0147
:1006B80050E050938C015D9150938C0150918B01C7
:1006C8005093870150918C015093880110909601A6
:1006D800110C06E3100EA12D00E011E0011FB02F50
:1006E8005D9150938B0150E050938C015D91509334
:1006F8008C0150918B015093890150918C0150933A
:100708008A0136D15091870150938B01509188010D
:1007180050938C0110909601110C04E2100EA12D3B
:1007280000E011E0011FB02F50918B015D935091B3
:100738008C015D935091890150938B0150918A01EE
:1007480050938C0110909601110C06E3100EA12D08
:1007580000E011E0011FB02F50918B015D93509183
:100768008C015D9310909601110C08E4100EA12DD8
:1007780000E011E0011FB02F5D9150938B0150E014
:1007880050938C015D9150938C0150918B01509343
:10079800870150918C015093880110909601110C9B
:1007A8000AE5100EA12D00E011E0011FB02F5D91A8
:1007B80050938B0150E050938C015D9150938C01C4
:1007C80050918B015093890150918C0150938A016B
:1007D80051E05093830150E05093840143D4A3C067
:1007E80010909601110C04E2100EA12D00E011E00A
:1007F800011FB02F5D9150938B0150E050938C01F5
:100808005D9150938C0150918B01509387015091C9
:100818008C015093880110909601110C06E3100E7C
:10082800A12D00E011E0011FB02F5D9150938B01C5
:1008380050E050938C015D9150938C0150918B0145
:100848005093890150918C0150938A0191D0509115
:10085800870150938B015091880150938C0110901F
:100868009601110C04E2100EA12D00E011E0011F09
:10087800B02F50918B015D9350918C015D935091F5
:10088800890150938B0150918A0150938C011090EB
:100898009601110C06E3100EA12D00E011E0011FD6
:1008A800B02F50918B015D9350918C015D93109006
:1008B8009601110C08E4100EA12D00E011E0011FB3
:1008C800B02F5D9150938B0150E050938C015D9156
:1008D80050938C0150918B015093870150918C015A
:1008E8005093880110909601110C0AE5100EA12D65
:1008F80000E011E0011FB02F5D9150938B0150E093
:1009080050938C015D9150938C0150918B015093C1
:10091800890150918C0150938A0151E050938301D1
:10092800509384019FD360919601683008F48DCC70
:1009380030906D01339430926D0160916D01653096
:1009480041F430906C01309430926C0150E0509337
:100958006D0178CC8895FECFE395AEEF94E19A953A
:10096800F1F7AA95D9F7DA95C1F7EA95B1F708959D
:1009780050918701509397015091880150939801A5
:100988005091890150939B0150918A0150939C0189
:10099800309087010FE0300E309299013090880135
:1009A80000E0301E30929A01309089010FE0300E3D
:1009B80030929D0130908A0100E0301E30929E01F5
:1009C8001DD350E05093910151E05093920150E0B3
:1009D80050937C01F5D210909101209092011A94C5
:1009E80010929101A1F72A942092920181F708951B
:1009F80050E05093790150937A0150E05093970159
:100A08005093980150E050939B0150939C01309073
:100A1800720101E0301A309299013090730100E0C0
:100A2800300A30929A013090700101E0301A309209
:100A38009D013090710100E0300A30929E01DED2B3
:100A480050916E0150937D0150916F0150937E013A
:100A58004398429A409A52E05093930150E0509341
:100A6800940156E950939501419A03E01BB0102276
:100A7800312C0CEF10917E011023112E13281BB876
:100A88000CEF15B01022312C03E010917E011023D9
:100A9800112E132815B84198419A03E01BB0102273
:100AA800312C0CEF10917D011023112E50E0252ED2
:100AB80013281BB80CEF15B01022312C03E010914D
:100AC8007D011023112E50E0252E132815B84198CA
:100AD80010909401209095011A941092940121F697
:100AE8002A942092950109F0BFCF309093013A944F
:100AF8003092930109F0B2CF439A419A03E01BB0B8
:100B08001022312C0CEF10917E011023112E132886
:100B18001BB80CEF15B01022312C03E010917E01A8
:100B28001023112E132815B84198419A03E01BB0E1
:100B38001022312C0CEF10917D011023112E50E062
:100B4800252E13281BB80CEF15B01022312C03E00A
:100B580010917D011023112E50E0252E132815B871
:100B68004198419A089556E350937C010BD26091C5
:100B78007B01643089F450EF5093720150E0509338
:100B8800730150E45093700151E05093710158E49F
:100B980050937C0115D24FC060917B01613089F47C
:100BA80050E45093720151E05093730150EF509309
:100BB800700150E05093710158E250937C0100D2CB
:100BC8003AC060917B01623089F450EF5093720112
:100BD80050E05093730150E45093700151E05093EA
:100BE800710158E850937C01EBD125C060917B01DD
:100BF800633089F450E45093720151E050937301CB
:100C080050EF5093700150E05093710158EE50939B
:100C18007C01D6D110C050EF5093720150E0509330
:100C2800730150E45093700151E05093710158E4FE
:100C380050937C01C5D10895579A569A559A549A5B
:100C4800539A529A219A209A389A399A3A9A3B9A00
:100C58003C9A409A419A429A439A449AD2E3E0E0F5
:100C68007BDE449ADFE0E0E077DE449890E59A95F1
:100C7800F1F7449ADFE0E0E06FDE5FEE50937C012D
:100C880081D153E050937C019BD150E850937C0173
:100C980097D152E050937C0193D15FEC50937C0143
:100CA80071D150E050937C018BD151EC50937C0171
:100CB80087D150E350937C0183D15DEE50937C0142
:100CC80061D154E650937C017BD153E050937C0171
:100CD80077D152E150937C0173D151E850937C0154
:100CE8006FD158EE50937C014DD155E850937C015B
:100CF80067D150E050937C0163D158E750937C0151
:100D08005FD15BEC50937C013DD159E350937C015A
:100D180057D15CE250937C0153D150E050937C0151
:100D28004FD154E350937C014BD152E050937C0156
:100D380047D157EF50937C0125D150E250937C0165
:100D48003FD15AEE50937C011DD150E050937C0165
:100D580037D150E050937C0133D150EC50937C0153
:100D680011D15BE250937C012BD151EC50937C0163
:100D780009D150E150937C0123D155EC50937C016B
:100D880001D15EE350937C011BD158E250937C0162
:100D980017D157EC50937C01F5D056E850937C015D
:100DA8000FD156E350937C01EDD058E450937C0169
:100DB80007D15AE350937C01E5D055E550937C0167
:100DC800FFD051EB50937C01DDD050E050937C0173
:100DD800F7D058E150937C01F3D056EB50937C0147
:100DE800D1D058E050937C01EBD052E850937C016D
:100DF800E7D057E250937C01E3D052EF50937C0147
:100E0800C1D050E050937C01DBD056E250937C0176
:100E1800B9D051E050937C01D3D050EE50937C016F
:100E2800B1D05FE050937C01CBD051E350937C016B
:100E3800C7D05BE250937C01C3D05CE050937C0147
:100E4800BFD05EE050937C01BBD058E050937C014A
:100E5800B7D05EE450937C01B3D051EF50937C013E
:100E6800AFD057E350937C01ABD057E050937C014F
:100E7800A7D050E150937C01A3D053E050937C015C
:100E88009FD05EE050937C019BD059E050937C0149
:100E980097D050E050937C0193D051EE50937C0151
:100EA80071D050E050937C018BD05EE050937C0170
:100EB80087D054E150937C0183D053E050937C0158
:100EC8007FD051E150937C017BD057E050937C0157
:100ED80077D051E350937C0173D051EC50937C014F
:100EE8006FD058E450937C016BD058E050937C014C
:100EF80067D05FE050937C0163D05CE050937C0145
:100F08005FD051E350937C015BD056E350937C0152
:100F180057D05FE050937C0153D051E150937C014E
:100F280031D0D6E9E0E018DD59E250937C012AD0AF
:100F380050E050936E0150936F015FEF509377012B
:100F48005093780150EF5093720150E05093730121
:100F580050E45093700151E05093710155E0509363
:100F6800760150E05093740151E05093750140CDE3
:100F780050E055B950E058B950E05BB90895509821
:100F8800519A089543984298409A419A03E01BB0B9
:100F98001022312C0CEF10917C011023112E1328F4
:100FA8001BB80CEF15B01022312C03E010917C0116
:100FB8001023112E132815B84198419A439A089581
:100FC8004398429A409A419A03E01BB01022312C70
:100FD8000CEF10917C011023112E13281BB80CEF75
:100FE80015B01022312C03E010917C011023112E32
:100FF800132815B84198419A439A08955AE2509394
:101008007C01C0DF5091980150937C01D9DF509149
:10101800970150937C01D4DF50919A0150937C0141
:10102800CFDF5091990150937C01CADF5BE2509366
:101038007C01A8DF50919C0150937C01C1DF509145
:101048009B0150937C01BCDF50919E0150937C0121
:10105800B7DF50919D0150937C01B2DF5CE2509361
:101068007C0190CF5091870150939701509188014E
:10107800509398015091890150939B0150918A0196
:1010880050939C01309087010FE0300E3092990107
:101098003090880100E0301E30929A01309089012A
:1010A8000FE0300E30929D0130908A0100E0301E32
:1010B80030929E01A3DF3090830101E0301A309214
:1010C80081013090840100E0300A30928201309032
:1010D80083010FEF300E132C3090840100E0301E96
:1010E800232CC0918301D0918401612D722D4AD2A5
:1010F80000FC31C0309081013394309281013090EE
:10110800820109F4339430928201A0918101B09157
:10111800820122D000927F01A0918101B0918201C9
:1011280026D10092800150917F0150937C0148DFC5
:10113800309083010FEF300E132C3090840100E0C3
:10114800301E232C6091810170918201C12DD22D16
:1011580019D200FCCFCF08956A2F7B2FCBEFD1E0B7
:1011680011D200FE0895EAE7F1E1EA0FFB1FC895E6
:10117800089500FF1F1F1F1F0000000000001F1F11
:101188001F1FFF001F0000001F1F00001F1F00007F
:10119800001F0000001F0000001F00001F000000CB
:1011A8001F00000000001F00FF1F00001FFF001F9E
:1011B800000000000000001FFF1F00001FFF1F00AD
:1011C80000000000000000001F1F00001F1F00009B
:1011D8000000000000000000000000000000000007
:1011E80000000000000000E0E0E00000E0E0E000B7
:1011F800000000000000E00000000000000000E027
:1012080000000000E0E00000000000000000000016
:10121800E0E00000E0000000000000000000000026
:1012280000E000E0000000000000000000000000F6
:10123800001FE0E0000000000000000000000000C7
:101248000000E0E0000000000000000000000000D6
:101258000000E000E00000000000000000000000C6
:1012680000E0000000E000000000000000000000B6
:10127800E000001F1F1F1F1F0000000000001F1FAD
:101288001F1F1F001F0000001F1F00001F1F00005E
:10129800001F0000001FFFFF001F00001F00FFFFCE
:1012A8001F00000000001F00FF1F00001FFF001F9D
:1012B800000000000000001FFF1F00001FFF1F00AC
:1012C80000000000000000001F1F00001F1F00009A
:1012D80000000000000000000000E0E00000000046
:1012E8000000000000000000E0E00000E0E0000076
:1012F80000000000000000E0E000000000E0E00066
:1013080000000000000000E0000000000000E00015
:10131800000000000000E00000000000000000E005
:101328000000000000E000000000000000000000D5
:10133800E00000000000E0E0000000000000E0E045
:1013480000000000000000E0E000000000E0E00015
:101358000000000000000000E000000000E00000C5
:10136800000000000000000000E00000E0006A2F1C
:101378007B2FCBEFD1E006D100FE0895E0E9F3E141
:10138800EA0FFB1FC895089502FF00000000000047
:101398000000000000000000FF0000F8F8F800005E
:1013A80000000000F8F8F80000000000F8F8F80065
:1013B800000000F8F8F800000000000000F8FF0046
:1013C800000000FFF8000000000000000000FF001F
:1013D800000000FF00000000000000000000000006
:1013E80000000000000000000000000000000000F5
:1013F80000000000000000000000000000FFFFFFE8
:101408000000FFFFFF00000000000000FF000000D8
:101418000000000000FF00000000FFFF00000000C7
:10142800000000000000FFFF0000FF0000000000B7
:1014380000000000000000FF00FF000000000000A6
:101448000000000000000000FFFF00000000000096
:101458000000000000000000FFFF00000000000086
:101468000000000000000000FF00FF000000000076
:1014780000000000000000FF000000FF0000000066
:10148800000000000000FF00000000000000000055
:101498000000000000000000000000F8F8F800005C
:1014A80000000000F8F8F80000000000FFFFF80056
:1014B800000000F8FFFF00000000000000F8FF0037
:1014C800000000FFF8000000000000000000FF001E
:1014D800000000FF00000000000000000000000005
:1014E80000000000000000000000000000000000F4
:1014F800FFFF000000000000000000000000FFFFE8
:101508000000FFFF000000000000000000FFFF00D7
:10151800000000FFFF0000000000000000FF0000C6
:1015280000000000FF00000000000000FF000000B5
:101538000000000000FF0000000000FF00000000A5
:10154800000000000000FF0000000000FFFF000096
:1015580000000000FFFF00000000000000FFFF0087
:10156800000000FFFF000000000000000000FF0076
:10157800000000FF0000000000000000000000FF65
:101588000000FF000024D71730F07D1718F06C1703
:0815980008F008950094089585
:00000001FF
