:020000020000FC
:0200000033C00B
:0200040018954D
:02000800189549
:02000C00189545
:02001000189541
:0200140018953D
:02001800189539
:02001C00189535
:02002000189531
:0200240018952D
:02002800189529
:02002C00189525
:02003000189521
:0200340018951D
:02003800189519
:02003C00189515
:0200400087C077
:0200440018950D
:02004800189509
:02004C00189505
:02005000189501
:020054001895FD
:020058001895F9
:02005C001895F5
:020060001895F1
:020064001895ED
:1000680058E05EBF5FEF5DBF5CD07894259A42D0C0
:100078005FEF50930001009000010394009200018B
:100088005091000150930101D9E1E0E021D0609145
:100098000001643680F3F1E027D055E65093000163
:1000A800009000010A9400920001509100015093C1
:1000B8000101D9E1E0E00CD060E0C09100016C17CB
:1000C80078F3F1E011D0D4CF01C000C08895FECFFD
:1000D800E395AEEF94E19A95F1F7AA95D9F7DA95F9
:1000E800C1F7EA95B1F70895D8EEE3E0F1DFFA95A4
:1000F800D9F708952D9850E05093010150E050939E
:10010800020150916E00516050936E0051E050937F
:100118000D0151E050930C010BD050E050930B01AE
:100128002DC050E055B950E058B950E05BB908957A
:1001380060910D01623019F457E050930C01509111
:100148000C015093080108955CD002D0A8984DC0C6
:1001580060910201C09101016C1710F42D9A01C041
:100168002D9800900201039400920201609102010F
:10017800643619F450E050930201089560910B0120
:10018800662341F408EF15B41022012C10900801E1
:10019800102815BC60910B01613051F408EF1090E4
:1001A80081001022012C1090090110281092810062
:1001B80060910B01623051F408EF1090B1001022E9
:1001C800012C10900A0110281092B10060910B01C7
:1001D800623051F408EF1090B0001022012C1090FA
:1001E8000A0110281092B000089560910401C0918E
:1001F800050100900601509103015FBF509107016E
:100208001895509307015FB7509303016093040159
:0A021800C09305010092060108954D
:00000001FF
