:020000020000FC
:0200000033C00B
:0200040018954D
:02000800189549
:02000C00189545
:02001000189541
:0200140018953D
:02001800189539
:02001C00189535
:02002000189531
:0200240018952D
:02002800189529
:02002C00189525
:02003000189521
:0200340018951D
:02003800189519
:02003C00189515
:02004000189511
:0200440018950D
:02004800189509
:02004C00189505
:02005000189501
:020054001895FD
:020058001895F9
:02005C001895F5
:020060001895F1
:020064001895ED
:1000680058E05EBF5FEF5DBF1BD0259A00241D9945
:10007800039400942D9800FC2D9AD4EFE1E004D06D
:10008800F5CF00C08895FECFE395A1E79AE39A954E
:10009800F1F7AA95D9F7DA95C1F7EA95B1F7089576
:0E00A80050E055B950E058B950E05BB90895EA
:00000001FF
