:020000020000FC
:0200000033C00B
:0200040018954D
:02000800189549
:02000C00189545
:02001000189541
:0200140018953D
:02001800189539
:02001C00189535
:02002000189531
:0200240018952D
:02002800189529
:02002C00189525
:02003000189521
:0200340018951D
:02003800189519
:02003C00189515
:02004000189511
:0200440018950D
:02004800189509
:02004C00189505
:02005000189501
:020054001895FD
:020058001895F9
:02005C001895F5
:020060001895F1
:020064001895ED
:1000680058E05EBF5FEF5DBF0E9495170E949C1726
:100078000E94F21551E05093840153E050938E0191
:100088000E9489155FE150935D0150E05093BC01D7
:100098005093BD015093BE015093BF0150E050935F
:1000A800F2015093F30150E050935C0152E05093F9
:1000B800E30153E050938E010E9489155FE150934C
:1000C8007B0150E050937C010E94411250E0509314
:1000D800860150E85093870151E05093840152E023
:1000E8005093C20150E05093C30152E05093C401B1
:1000F80050E05093C501C9E2D1E0EAE7FBE40E9471
:10010800A52559E25093D10151E05093D2010E94A4
:1001180089145FEF509386015093870152E0509302
:10012800840152E05093C20150E05093C3015CE057
:100138005093C40150E05093C501C9E2D1E0EAE709
:10014800FBE40E94A52559E25093D10151E0509358
:10015800D2010E94891450EE509386015FEF5093AC
:10016800870153E05093840152E05093C20150E05C
:100178005093C3015EE15093C40150E05093C50110
:10018800C9E2D1E0EAE7FBE40E94A52559E25093D1
:10019800D10151E05093D2010E9489145FEF50932E
:1001A800BC015093BD015093BE015093BF015FEF56
:1001B8005093F2015093F3015FEF50935C0154E0C8
:1001C80050938E010E9489155FEF50937B015093E5
:1001D8007C010E94411250E05093860150E85093F0
:1001E800870151E05093840152E05093C20150E0DE
:1001F8005093C30152E05093C40150E05093C5019D
:1002080050915C0150939C0150E050939D01509394
:100218009E0150939F010E94F01450E05093860174
:100228005093870152E05093840152E05093C201E9
:1002380050E05093C3015CE05093C40150E05093E8
:10024800C5015091F20150939C015091F3015093D4
:100258009D0150E050939E0150939F010E94F0141D
:100268005FEF5093860157E05093870153E0509316
:10027800840152E05093C20150E05093C3015EE103
:100288005093C40150E05093C5015091BC01509364
:100298009C015091BD0150939D015091BE01509316
:1002A8009E015091BF0150939F010E94F014F2E00B
:1002B8000E94560D6090E3016A946092E30109F090
:1002C800F8CE5FE150937B0150E050937C010E948F
:1002D800411251E05093840150E05093BC01509377
:1002E800BD015093BE015093BF0150E05093F201FD
:1002F8005093F30150E050935C01609184016130A8
:1003080019F40E94111BAFC060918401623019F486
:100318000E94281FA8C060918401633009F0A3C01F
:1003280052E05093C90150E05093CA0151E05093F4
:10033800640150E050936501C9E2D1E0ECE8FBE4C8
:100348000E94A52559E25093CF0151E05093D00166
:10035800509186015093A001509187015093A101BB
:100368000E94391452E05093C90150E05093CA01D9
:1003780059E15093640150E050936501C9E2D1E01E
:10038800E6E9FBE40E94A52559E25093CF0151E02C
:100398005093D001509186015093A001509187014C
:1003A8005093A1010E94391450E05093B00150932A
:1003B800B10150E05093B4015093B50160908101B0
:1003C80001E0601A6092B2016090820100E0600A68
:1003D8006092B30160907F0101E0601A6092B601FB
:1003E8006090800100E0600A6092B7015FE150937D
:1003F800A00150E05093A101AAD66090810105E0C8
:10040800601A6092B0016090820100E0600A609218
:10041800B10160907F0105E0601A6092B4016090BC
:10042800800100E0600A6092B5016090810101E0FE
:10043800601A6092B2016090820100E0600A6092E6
:10044800B30160907F0101E0601A6092B60160908C
:10045800800100E0600A6092B7015FEF5093A0014D
:100468005093A10174D600C08895FECFAF3E10F01E
:1004780000240895EAE8F4E0EA0F08F4F395C89533
:100488000895F0008080F8FCFC849C9C1800000013
:1004980021213F3F3F2121010000000080C0C040D2
:1004A8004040C080C040000047CFDF989898FFFFC9
:1004B8007F00000004FCFCFC804040C0C0800000BD
:1004C800203F3F3F0100003F3F3F000000404040C9
:1004D800DCDCDC0000000000002020203F3F3F2043
:1004E80020200000000000404040DCDCDC00000070
:1004F8002060E08080C0FFFF7F00000004FCFCFC5F
:10050800000080C0C0400000203F3F3F02070F3D71
:100518003830000000040404FCFCFC00000000006B
:10052800002020203F3F3F2020200000C0C0C040C6
:1005380040C04040C0C080003F3F3F00003F000037
:100548003F3F3F00C0C0C0404040C0C080000000E6
:100558003F3F3F0000003F3F3F00000080C0C040D9
:100568004040C0C0800000001F3F3F2020203F3F88
:100578001F00A03F10F000240895E0E9F5E0EA0F1D
:1005880008F4F395C8950895F00040C080C0404035
:1005980040C0C080000080FFFFFF9010101F1F0F99
:1005A8000080C0C0404040C080C04000000F1F1FF6
:1005B800101090FFFFFF8000000040C0C0C080C046
:1005C800C0C0C0800000203F3F3F21000001010162
:1005D800000080C0C040404040C080000000193B7F
:1005E800232626263C3D190000004040E0F0F84054
:1005F80040404000000000001F3F3F2038381800EE
:100608000000C0C0C0000000C0C0C00000001F3F04
:100618003F2020203F1F3F200000C0C0C000000036
:10062800C0C0C0000000070F1F3830381F0F070078
:100638000000C0C0C00000000000C0C0C000070F1C
:100648003F38380E38383F0F0700C0C0C00000C020
:10065800C0C00000000030393F0F0F3F39300000A4
:10066800000000C0C0C0000000C0C0C000008087FB
:100678008F9FD8F8783F0F07AD3610F00024089503
:10068800E6E9F6E0EA0F08F4F395C89508957800CE
:10069800C0C0404040C0C0C00000000031383C2EFF
:1006A80027233138000000008080C0787C3C040497
:1006B800040400000101031E3E3C2020202000000D
:1006C80000000000FEFEFE00000000000000000028
:1006D8007F7F7F0000000000040404043C7C78C095
:1006E80080800000202020203C3E1E0301010038AD
:1006F8003C3C040C1C3830203C3C1C00A03F10F053
:1007080000240895EAE1F7E0EA0F08F4F395C895A4
:100718000895F000E0F0F81C0C0C1CF8F0E0000064
:100728003F3F3F020202023F3F3F000004FCFCFC47
:10073800848484FCFC780000203F3F3F2424243F2D
:100748003F1E000000FCFCFC0C0C0C0C0C00000014
:10075800003F3F3F0000000000000000E0F0F81CF0
:100768000C0C1CF8F0E000003F3F3F303030303FC9
:100778003F3F000004FCFCFC848484C4CC1C0000C3
:10078800203F3F3F24242423333800003C1C0C0422
:1007980084C4E47C3C1C0000383C3E2723242030E1
:1007A800383C0000FCFCFC808080FCFCFC00000065
:1007B8003F3F3F0101013F3F3F000000E0F0F89C50
:1007C8008C8C8C9CF8F0E000070F1F3931313139DF
:1007D8001F0F0700000404FCFCFC040400000000D8
:1007E8000020203F3F3F20200000000004FCFCFCCC
:1007F800C0E0703C1C0C0000203F3F3F03070E3C4C
:100808003830AE3E10F000240895E0E2F8E0EA0F38
:1008180008F4F395C8950895F000E0F0F81C0C0C66
:100828001CF8F0E000003F3F3F000000003F3F3F62
:100838000000FCFCFC78F0E0F078FCFCFC003F3F9A
:100848003F00000100003F3F3F00FCFCFC70E0C09F
:100858008000FCFCFC003F3F3F00000103073F3FD6
:100868003F00001C1C9C9C9C9C9C1C1C000000388D
:1008780038393939393938380000E0F0F81C0C0CAF
:100888000C1CF8F0E000070F1F38303030381F0F0D
:100898000700FCFCFC1C1C1C1CFCFCFC00003F3F73
:1008A8003F000000003F3F3F000004FCFCFC848444
:1008B80084FCFC780000203F3F3F24010101010037
:1008C8000000003C7CFCDC9C9C1C1C1C0000003CC8
:1008D8003E3F3B393938383800001C0C0404FCFC16
:1008E800FC04040C1C00000020203F3F3F20200097
:1008F80000007CFCFC800080FCFC7C0000000020E8
:10090800243F3F3F2420AF3510F000240895E4E24F
:10091800F9E0EA0F08F4F395C895089560E0F0F857
:100928003818FCFC1838F8F0E0070F1F1C183F3F78
:10093800181C1F0F07001C3C7CE0C0E07C3C1C001E
:100948000000383C3E0703073E3C38000000FCFC32
:10095800FC80F8F8F880FCFCFC00000103233F3F12
:100968003F23030100000070FCFC8C8C8CFCFC70A5
:10097800000000003133333333333100AF3E10F021
:1009880000240895EAE9F9E0EA0F08F4F395C89518
:100998000895F000000000000000000000000000C2
:1009A80000000000000000000000000000F8FCFC4F
:1009B800FCF80000000000000000737373000000E2
:1009C80000000000001E3E3E0000003E3E1E0000EB
:1009D80000000000000000000000003030FEFE3083
:1009E800303030FEFE30300C0C7F7F0C0C0C0C7F4E
:1009F8007F0C0C00F0F898FE9898FE989818000064
:100A08001819197F19197F191F0F00000038383875
:100A180080C0E07038000000001C0E0703011C1C99
:100A28001C00000038FCC4C4FC3800000080000032
:100A38001E3F2121333F1E1E3723000000203C3C6F
:100A48001C00000000000000000000000000000082
:100A58000000000000C0E0F0381C0C040400000096
:100A68000003070F1C383020200000000004040C8D
:100A78001C38F0E0C000000000202030381C0F07B0
:100A88000300A03F10F000240895E0EAFAE0EA0F1E
:100A980008F4F395C8950895F0808890E0E0FCFC90
:100AA800E0E090888001110907073F3F0707091117
:100AB800010000808080F0F080808000000000014C
:100AC80001010F0F010101000000000000000000FB
:100AD80000000000000000407878380000000000A6
:100AE80000008080808080808080808000000101FC
:100AF80001010101010101010000000000000000E6
:100B08000000000000000000383838000000000035
:100B1800000000000000000080C0E07038002030B5
:100B2800381C0E07030100000000F8FCFC04040454
:100B380004FCFCF800001F3F3F202020203F3F1FFF
:100B48000000606060F0FCFC000000000000202055
:100B5800203F3F3F202020000000181C1C04048474
:100B6800CCFC7830000030383C2E27232138383828
:100B78000000181C1C848484CC7C78300000183851
:100B880038242121333E1E0CA13F10F00024089583
:100B9800E6EAFBE0EA0F08F4F395C8950895F0003B
:100BA80080C0603018FCFCFC000000000303032335
:100BB800233F3F3F23230000FCFCFC84848484847F
:100BC80004040000193939242121333F1F0E000085
:100BD800E0F0F89C8C848484800000001F3F3F2450
:100BE8002421213F3F1F00003C3C3C0404040484B2
:100BF800FCFC7C00000000383C3E070301000000BC
:100C0800787CFCC4C48484FC7C7800001E3E3F21B0
:100C18002123233F3E1E0000F8FCFC84848484FCCE
:100C2800FCF80000000124212131391F0F070000C2
:100C38000000007070700000000000000000000E4E
:100C48000E0E000000000000000000707070000030
:100C5800000000000000101E1E0E00000000000032
:100C680080C0E070381C0E06020000000103070E69
:100C78001C387060400000606060606060606060A8
:100C880060606006060606060606060606060600F4
:100C9800A03F10F000240895EEEAFCE0EA0F08F403
:100CA800F395C8950895F00002060E1C3870E0C050
:100CB80080000000406070381C0E0703010000002F
:100CC800181C0C0E0686CEFC7C38000000000000C4
:100CD8007373730000000000FCFEFE0202C2C2C271
:100CE800FEFEFC003F3F7F60606363636343030075
:100CF800E0F0F81C0C0C1CF8F0E000003F3F3F024D
:100D08000202023F3F3F000004FCFCFC848484FC98
:100D1800FC780000203F3F3F2421213F3F1E000078
:100D2800F0F8FC0C0404041C1C1800000F1F3F30D2
:100D3800202020383818000004FCFCFC04040CFCBB
:100D4800F8F00000203F3F3F2020303F1F0F0000F9
:100D580004FCFCFC848484C4CC1C0000203F3F3F7E
:100D6800242121233338000004FCFCFC848484C43F
:100D7800CC1C0000203F3F3F21010103030000007D
:100D8800F0F8FC0C0404043C3C3800000F1F3F3012
:100D98002022223E3E3EA13F10F000240895E4EBBD
:100DA800FDE0EA0F08F4F395C8950895F000FCFCFF
:100DB800FC808080FCFCFC0000003F3F3F010101FB
:100DC8003F3F3F000000000404FCFCFC040400005A
:100DD80000000020203F3F3F2020000000000000CE
:100DE80000000404FCFCFC04041E1E3E20202020FD
:100DF8003F3F1F00000004FCFCFCC0E0703C1C0CE2
:100E08000000203F3F3F03070E3C3830000004FC41
:100E1800FCFC0400000000000000203F3F3F2020B1
:100E28002030383C0000FCFCFC78F0E0F078FCFC5A
:100E3800FC003F3F3F00000100003F3F3F00FCFC3B
:100E4800FC70E0C08000FCFCFC003F3F3F0000015C
:100E580003073F3F3F00E0F0F81C0C0C0C1CF8F0B7
:100E6800E000070F1F38303030381F0F070004FC30
:100E7800FCFC848484FCFC780000203F3F3F210177
:100E8800010101000000E0F8F81C0C040C1CF8F843
:100E9800E000071F1F18185C5E7E7F7F4700AF3E8B
:100EA80010F000240895ECEBFEE0EA0F08F4F39547
:100EB800C8950895F00004FCFCFC848484FCFC784C
:100EC8000000203F3F3F0101033F3F3C000078FC0A
:100ED800FC84848484BC3C3800001C3C3D242421D0
:100EE800213F3F1E00001C0C0404FCFCFC04040C05
:100EF8001C00000020203F3F3F2020000000FCFC99
:100F0800FC000000FCFCFC0000001F3F3F202020EC
:100F18003F3F1F000000FCFCFC000000FCFCFC0044
:100F28000000070F1F3830381F0F07000000FCFCB7
:100F3800FC0000800000FCFCFC00030F3F3C3C0F61
:100F48003C3C3F0F03001C3C7CE0C0E07C3C1C00A8
:100F58000000383C3E0703073E3C380000007CFC9C
:100F6800FC800080FCFC7C0000000020213F3F3F0B
:100F78002120000000003C1C0C0484C4E47C3C1CC0
:100F88000000383C3E2723212030383C0000000078
:100F9800FCFCFC0404040400000000003F3F3F2068
:100FA80020202000AF3E10F000240895E2ECFFE07E
:100FB800EA0F08F4F395C8950895F0001C3870E01E
:100FC800C080000000000000000000000103070EC0
:100FD8001C183000000004040404FCFCFC000000A1
:100FE8000000202020203F3F3F0000002030381C18
:100FF8000E0E1C3830200000000000000000000029
:10100800000000000000000000000000000000C018
:10101800C0C0C0C0C0C0C0C0C0C0C0000C0C3C3004
:101028003000000000000000000000000000000088
:1010380000000000004040404040C0C08000000068
:101048001C3E3E2222223F1F3F20000004FCFCFCE5
:10105800404040C0C0800000203F1F3F2020203F6C
:101068003F1F000080C0C0404040C0C0800000005A
:101078001F3F3F20202039391900000080C0C040A0
:101088004044FCFCFC0400001F3F3F2020203F1F81
:101098003F20000080C0C0404040C0C08000000029
:1010A8001F3F3F2222223B3B1B00A091E001B09151
:1010B800E1015C915093C1016091C101662309F47B
:1010C80008955091C20150938B015091C3015093E0
:1010D8008C0150E05093E2016091C1016130B0F1A0
:1010E8006090E20163946092E20150918B01509309
:1010F800620150918C01509363015091C401509347
:1011080064015091C501509365016090E001A09081
:10111800E2016A0CA62D6090E10120E0621EB62D66
:101128005C9150935E01C4D260908B012DE0620EF9
:1011380060928B0160908C0120E0621E60928C01AD
:101148006091E201C091C1016C1750F20895C091FD
:10115800B001D091B1016091B2017091B3010E94C8
:10116800242400FE18C05091B00150938F01509173
:10117800B101509390015091B2015093B001509138
:10118800B3015093B10150918F015093B201509126
:1011980090015093B301C091B401D091B501609111
:1011A800B6017091B7010E94242400FE18C0509126
:1011B800B40150938F015091B50150939001509113
:1011C800B6015093B4015091B7015093B5015091B5
:1011D8008F015093B601509190015093B701A090A0
:1011E800B00121E0A21AA0927501A090B10120E0FF
:1011F800A20AA0927601C091B001D091B10160918C
:10120800B2017091B3010E94242400FC4BC0A0904D
:101218007501A394A0927501A090760109F4A39496
:10122800A0927601509175015093910150917601E9
:10123800509392015091B401509393015091B5018C
:10124800509394015091A00150937D015091A101B8
:1012580050937E010E943D1A50917501509391015F
:1012680050917601509392015091B6015093930199
:101278005091B701509394015091A00150937D0172
:101288005091A10150937E010E943D1A6091750111
:1012980070917601C091B201D091B3010E942424CB
:1012A80000FCB5CFA090B40121E0A21AA09275016C
:1012B800A090B50120E0A20AA0927601C091B401E5
:1012C800D091B5016091B6017091B7010E942424B4
:1012D80000FC4BC0A0907501A394A0927501A0904A
:1012E800760109F4A394A09276015091B00150932D
:1012F80091015091B1015093920150917501509311
:10130800930150917601509394015091A00150930C
:101318007D015091A10150937E010E943D1A509188
:10132800B201509391015091B301509392015091A1
:101338007501509393015091760150939401509107
:10134800A00150937D015091A10150937E010E940C
:101358003D1A6091750170917601C091B601D091E6
:10136800B7010E94242400FCB5CF089550919A013A
:101378005093F70150919B015093F8016091F70148
:101388007091F801C2E0D0E00E944625662E772EC3
:1013980060947094639409F473946092C601709297
:1013A800C7016091F7017091F801C091FF01D0E089
:1013B8000E942E24009400FE7AC1A090F50160904E
:1013C800F701A60CA0929101A090F6016090F80197
:1013D800A61CA0929201A090FD016090FF01A60CAE
:1013E800A0929301A090FE0120E0A21EA092940179
:1013F8005091A00150937D015091A10150937E011D
:101408000E943D1AA090F5016090FF01A60CA092E1
:101418009101A090F60120E0A21EA0929201A09056
:10142800FD016090F701A60CA0929301A090FE0127
:101438006090F801A61CA09294015091A0015093CD
:101448007D015091A10150937E010E943D1AA09008
:10145800F5016090F701A618A0929101A090F601FD
:101468006090F801A608A0929201A090FD016090FA
:10147800FF01A60CA0929301A090FE0120E0A21EFD
:10148800A09294015091A00150937D015091A10127
:1014980050937E010E943D1AA090F5016090FF01D3
:1014A800A618A0929101A090F60120E0A20AA092AD
:1014B8009201A090FD016090F701A60CA092930103
:1014C800A090FE016090F801A61CA0929401509192
:1014D800A00150937D015091A10150937E010E947B
:1014E8003D1AA090F5016090F701A618A09291010D
:1014F800A090F6016090F801A608A0929201A09031
:10150800FD016090FF01A618A0929301A090FE0132
:1015180020E0A20AA09294015091A00150937D016D
:101528005091A10150937E010E943D1AA090F501AF
:101538006090FF01A618A0929101A090F60120E00A
:10154800A20AA0929201A090FD016090F701A6184E
:10155800A0929301A090FE016090F801A608A092C5
:1015680094015091A00150937D015091A101509395
:101578007E010E943D1AA090F5016090F701A60C2B
:10158800A0929101A090F6016090F801A61CA0928B
:101598009201A090FD016090FF01A618A09293010E
:1015A800A090FE0120E0A20AA09294015091A0010F
:1015B80050937D015091A10150937E010E943D1AE4
:1015C800A090F5016090FF01A60CA0929101A09057
:1015D800F60120E0A21EA0929201A090FD01609069
:1015E800F701A618A0929301A090FE016090F8015F
:1015F800A608A09294015091A00150937D015091AA
:10160800A10150937E010E943D1AA090FF01A3946E
:10161800A092FF016091C6017091C701C0E0D0E0BF
:101628000E942E2400FE15C06090FF01660C2091D8
:10163800C601260DA22E6090C70120E0621EB62CBE
:1016480021E0A20EA092C60120E0B21EB092C7010E
:101658002DC06090F70121E0621A6092F701609056
:10166800F80120E0620A6092F8016090FF01209181
:10167800F701621AA62C20E06090F8012609B22E24
:1016880021E0A20E6A2C20E0B21E7B2C662D772D5D
:10169800C2E0D0E00E947F256090C601600C609295
:1016A800C6016090C701611C6092C7017ACE089597
:1016B8006EE7C0915E016C1738F060905E0120E221
:1016C800621A60925E0118C062EDC0915E016C17EB
:1016D80038F060905E0121E2621A60925E010CC0EF
:1016E8006AEFC0915E016C1738F060905E0122E2EB
:1016F800621A60925E0100C050E050936C016090E5
:101708006C01639460926C0160915E01CAE00E9472
:101718005824662E60915E01C8E16C9FA02C662D4E
:10172800C0EF6C9F20916C012A0D622EAA2408F448
:10173800A3947A2C601860926F0120E0720A70926C
:10174800700160915E01C0E00E941E240094602C2C
:10175800C0915E0169E00E941E240094202D26217C
:10176800A22EA0FE05C0A0916F0108D900926E01BB
:1017780060915E01CAE00E941E240094602CC09112
:101788005E0163E10E941E240094202D2621A22ED2
:10179800A0FE05C0A0916F0174D900926E016091FE
:1017A8005E01C4E10E941E240094602CC0915E0179
:1017B8006DE10E941E240094202D2621A22EA0FE59
:1017C80005C0A0916F01E0D900926E0160915E01A1
:1017D800CEE10E941E240094602CC0915E0167E255
:1017E8000E941E240094202D2621A22EA0FE05C0B2
:1017F800A0916F014DDA00926E0160915E01C8E21E
:101808000E941E240094602CC0915E0161E30E9436
:101818001E240094202D2621A22EA0FE05C0A091F2
:101828006F01B9DA00926E0160915E01C2E30E9415
:101838001E240094602CC0915E016BE30E941E245C
:101848000094202D2621A22EA0FE05C0A0916F0194
:1018580026DB00926E0160915E01CCE30E941E249B
:101868000094602CC0915E0165E40E941E240094DF
:10187800202D2621A22EA0FE05C0A0916F0192DB8B
:1018880000926E0160915E01C6E40E941E240094DD
:10189800602CC0915E016FE40E941E240094202DEC
:1018A8002621A22EA0FE06C0A0916F010E943A0236
:1018B80000926E0160915E01C0E50E941E240094B2
:1018C800602CC0915E0169E50E941E240094202DC1
:1018D8002621A22EA0FE06C0A0916F010E94BD0283
:1018E80000926E0160915E01CAE50E941E24009478
:1018F800602CC0915E0163E60E941E240094202D96
:101908002621A22EA0FE06C0A0916F010E944003CE
:1019180000926E0160915E01C0EA0E941E2400944C
:10192800602CC0915E0169EA0E941E240094202D5B
:101938002621A22EA0FE06C0A0916F010E9482035C
:1019480000926E0160915E01CAEA0E941E24009412
:10195800602CC0915E0163EB0E941E240094202D30
:101968002621A22EA0FE06C0A0916F010E940504A8
:1019780000926E0160915E01C4EB0E941E240094E7
:10198800602CC0915E0167EB0E941E240094202DFC
:101998002621A22EA0FE06C0A0916F010E948704F6
:1019A80000926E0160916E01643219F451E2509315
:1019B8006E0150E050936D0160906D0163946092E8
:1019C8006D0160906201A0906C016A0C6092B80190
:1019D8006090630120E0621E6092B901609064012A
:1019E800A0906D016A0C6092BA016090650120E0D8
:1019F800621E6092BB016CE0C0916C016C17C0F470
:101A08006090B8012CE0621A6092B8016090B90148
:101A180020E0620A6092B9016090BA0128E0620E83
:101A28006092BA016090BB0120E0621E6092BB0127
:101A380050906E0150FE1AC05091B8015093910118
:101A48005091B901509392015091BA01509393016A
:101A58005091BB015093940150916A0150937D01BC
:101A680050916B0150937E010E943D1A50916E0176
:101A7800579550936E0160916D01683008F49CCFC2
:101A880060916C01683108F43ACE0895E395AEEFA1
:101A980094E19A95F1F7AA95D9F7DA95C1F7EA95FD
:101AA800B1F70895D8EEE3E0F1DFFA95D9F7089594
:101AB800C091B001D091B1016091B2017091B301B0
:101AC8000E94242400FE18C05091B00150938F0149
:101AD8005091B101509390015091B2015093B001CF
:101AE8005091B3015093B10150918F015093B201BD
:101AF800509190015093B301C091B401D091B501B8
:101B08006091B6017091B7010E94242400FE18C0AC
:101B18005091B40150938F015091B50150939001A9
:101B28005091B6015093B4015091B7015093B5014B
:101B380050918F015093B601509190015093B70185
:101B48005091B001509300025091B101509301029D
:101B58005091B401509304025091B501509305027D
:101B68005091B201509302025091B3015093030275
:101B78005091B601509306025091B7015093070255
:101B88000E94DD1AA090B2012091B001A21A6A2C1D
:101B9800A090B3012091B101A20A7A2C21E0620E33
:101BA800A62C20E0721EB72C2091B6010091B4013A
:101BB800201B622E2091B7010091B501200B722ED7
:101BC80021E0620E062D20E0721E172D6A2D7B2D56
:101BD800C02FD12F0E94752500928801109289018B
:101BE800509188015093E701509189015093E80181
:101BF8006091E7017091E801C1E0D0E00E942424DF
:101C080000FC1FC06091E701662329F06090E8019D
:101C180063946092E8015091A0015093980150910B
:101C2800A101509399010E94A31A6090E701709056
:101C3800E8016A946092E70171F77A947092E8017A
:101C480051F7089521E06090F70126192093770154
:101C580020E06090F80126092093780151E0509324
:101C6800710150E0509372016091F7017091F80191
:101C7800CEEFDFEF0E947F2500927301109274016E
:101C880050E0509379015091F70150937A01609098
:101C9800FD01A090F7016A0C6092FB016090FE01C3
:101CA800A090F8016A1C6092FC016090FD01A09070
:101CB800F7016A186092F9016090FE01A090F8019E
:101CC8006A086092FA015091F5015093B001509161
:101CD800F6015093B1015091F9015093B40150911C
:101CE800FA015093B5015091F5015093B20150910A
:101CF800F6015093B3015091FB015093B6015091F6
:101D0800FC015093B7010E949F1760917901C0911F
:101D18007A016C1708F021C1609177017091780100
:101D2800C0E0D0E00E942E24009400FE1FC0609006
:101D38007A016A9460927A016090730122E0620EDF
:101D4800609273016090740120E0621E60927401D9
:101D580060907701A09073016A0C6092770160909F
:101D68007801A09074016A1C6092780160907901F2
:101D78006394609279016090710122E0620E609232
:101D880071016090720120E0621E609272016090A1
:101D98007701A09071016A0C6092770160907801D8
:101DA800A09072016A1C609278016090F501A09081
:101DB80079016A0C6092B0016090F60120E0621E21
:101DC8006092B1016090FD01A0907A016A0C609266
:101DD800B4016090FE0120E0621E6092B50160903F
:101DE800F501A09079016A0C6092B2016090F60149
:101DF80020E0621E6092B3016090FD01A0907A011C
:101E08006A186092B6016090FE0120E0620A609252
:101E1800B7010E949F176090F501A09079016A1898
:101E28006092B0016090F60120E0620A6092B10110
:101E38006090FD01A0907A016A0C6092B4016090F4
:101E4800FE0120E0621E6092B5016090F501A0904D
:101E580079016A186092B2016090F60120E0620A86
:101E68006092B3016090FD01A0907A016A186092B7
:101E7800B6016090FE0120E0620A6092B7010E94FC
:101E88009F176090F501A0907A016A0C6092B001EA
:101E98006090F60120E0621E6092B1016090FD0141
:101EA800A09079016A0C6092B4016090FE0120E074
:101EB800621E6092B50160907A01A090F5016A0CEB
:101EC8006092B20120E06090F601261D2093B301D4
:101ED8006090FD01A09079016A186092B601609047
:101EE800FE0120E0620A6092B7010E949F1760908D
:101EF800F501A0907A016A186092B0016090F6012D
:101F080020E0620A6092B1016090FD01A090790121
:101F18006A0C6092B4016090FE0120E0621E60923B
:101F2800B5016090F501A0907A016A186092B2013B
:101F38006090F60120E0620A6092B3016090FD01B2
:101F4800A09079016A186092B6016090FE0120E0C5
:101F5800620A6092B701EFD7D8CE0895A03F10F07B
:101F680000240895EAE7FFE1EA0F08F4F395C8951D
:101F78000895EF00100C0A882238200820101080DD
:101F88008040040000002848466C0000002810002B
:101F98001000407C008482304E78066C0C000010E3
:101FA80028000464F8FE7CFEFEFE7CFE0040FEFE77
:101FB800FEFE7CFE7CFE4C027E3E7EC60EC2000407
:101FC8000008800040FE7070701010FE0040FE0097
:101FD800F8F870F810F890107838788818880000A9
:101FE8000020780000000000000000000000000051
:101FF80000000000000000000000000000000000D9
:1020080000000000000000000000000000000000C8
:1020180000000000000000000000000000000000B8
:1020280000000000F8FEFEF8FEC2FE7C00FEF8FE8E
:10203800FE827CFEFE00C6020E38C60EBC000038CA
:10204800287C000038FE043028017C30007C40FCED
:102058001C003804F81838043C38443C3C003C3830
:102068003C3CA03F10F000240895E0E8F0E2EA0FBD
:1020780008F4F395C8950895EFFE380A06CC667CF7
:10208800700440103888A2701C00000EFE5426927E
:102098000A38821010A010C020A284C282288A9414
:1020A8000292926CAC282882029224928282921226
:1020B800821082801080040882128212920280406C
:1020C800802810A2FE0882048002A8908888A8FCB4
:1020D800A81090802082081088282810A87C8040AA
:1020E8008050A0C8100082104400000000000000CA
:1020F80000000000000000000000000000000000D8
:1021080000000000000000000000000000000000C7
:1021180000000000000000000000000000000000B7
:10212800000000000000000000002492028492A237
:10213800109282100404089282021200AA0210442B
:102148002810C20000445408000044496849541942
:10215800084A001032402001447C242444044044AE
:102168002840400141444040A03F10F00024089519
:10217800E6E8F1E2EA0F08F4F395C8950895EF7CD4
:102188007C0000EEEE7CA8FEFE545494947C7C0007
:102198009E0028FE10AA0644447C7C6010C0109261
:1021A800FEA28A248A92E292926C6C442844A2F29B
:1021B8002292828292129210FE8228801810821235
:1021C800A23292FE80807010E09282108202800417
:1021D800A8888888A812A808FA8850FEF0088828D5
:1021E8002808A89080806020A0A86CFE6C1042008F
:1021F80000000000000000000000000000000000D7
:1022080000000000000000000000000000000000C6
:1022180000000000000000000000000000000000B6
:1022280000000000000000000000000000000000A6
:102238002292028292921092FE2802181092820232
:10224800120092FEE0FE10FE0200004554053D001B
:102258004449904B54A5044D3C28094040954404FA
:1022680024A4447C40FE10F8383C4045423AA03F44
:1022780010F000240895ECE8F2E2EA0F08F4F39570
:10228800C8950895EF38FE0C0ACC667C20044038C7
:1022980010A288701C00000EFE54C844008238103A
:1022A80010001000088A809296FE8A9212925200BC
:1022B8000082282812822492824492129210827EEE
:1022C8004480042082124252920280408028108A60
:1022D8008220FE048008A8888890A802A808807A2E
:1022E8008880080888283008A88040408050A09836
:1022F80082001020440000000000000000000000E0
:1023080000000000000000000000000000000000C5
:1023180000000000000000000000000000000000B5
:1023280000000000000000000000000000000000A5
:1023380000000000000024920284928A10928244D5
:102348000404209282021200820210442810C20063
:10235800003855044000384E684D54430449404401
:10236800092020AB447C24A44C044044284040412C
:1023780041444141A03F10F000240895E2E9F3E20E
:10238800EA0F08F4F395C8950895EF10000A068837
:1023980022383E08201010808040040000002824C5
:1023A800C4A00000002810001000047C008C6220EB
:1023B80072600E6C3C00000028100C7CF86C4438ED
:1023C8008202F4FE00028280FEFE7C0CBC8C640259
:1023D8007E3E7EC60E86004000088000F07040FEFB
:1023E800300478F000000000F0F07010F810404061
:1023F800F83878887888000000107800000000001D
:1024080000000000000000000000000000000000C4
:1024180000000000000000000000000000000000B4
:1024280000000000000000000000000000000000A4
:10243800000000000000000000000000F86C02F836
:102448008286FE7C0082F8FEFE827CFE0C00820200
:102458000E38C60EBC0000444478200044300431D5
:102468004401783E20007E7C1C413804184834041E
:102478003C38443C3C203C383C3C50E0509395016F
:102488005093960150E0509300025093010250E09F
:1024980050930402509305026090810121E0621A72
:1024A800609202026090820120E0620A6092030258
:1024B80060907F0121E0621A6092060260908001BC
:1024C80020E0620A609207020E94DD1A50917B01A7
:1024D8005093980150917C01509399014398429AE6
:1024E800409A52E05093E40150E05093E50156E9D8
:1024F8005093E601419A23E0ABB0A2226A2C2CEF5C
:10250800009199010223A02EA628ABB82CEFA5B004
:10251800A2226A2C23E0009199010223A02EA6286A
:10252800A5B84198419A23E0ABB0A2226A2C2CEFBF
:10253800009198010223A02E50E0B52EA628ABB832
:102548002CEFA5B0A2226A2C23E000919801022367
:10255800A02E50E0B52EA628A5B841986090E501B8
:102568007090E6016A946092E50121F67A9470927F
:10257800E60109F0BFCF6090E4016A946092E4013B
:1025880009F0B2CF439A419A23E0ABB0A2226A2C59
:102598002CEF009199010223A02EA628ABB82CEFAE
:1025A800A5B0A2226A2C23E0009199010223A02E53
:1025B800A628A5B84198419A23E0ABB0A2226A2C7C
:1025C8002CEF009198010223A02E50E0B52EA628EA
:1025D800ABB82CEFA5B0A2226A2C23E00091980199
:1025E8000223A02E50E0B52EA628A5B84198419AFE
:1025F800089560905E012FE0621A60925E0150E0DB
:1026080050935F015093600160915E01C2EB0E949C
:102618001E240094602CC0915E016AEC0E941E2466
:102628000094202D2621A22EA0FE0CC060906401EB
:1026380021E0621A609264016090650120E0620AFC
:102648006092650150E050936C0160906C01639456
:1026580060926C0160916C01613031F4A0915E016F
:102668007DDC00926E0127C060916C01623031F40C
:10267800A0915E01F6DC00926E011DC060916C01B4
:10268800633031F4A0915E016FDD00926E0113C0DA
:1026980060916C01643031F4A0915E01E8DD009234
:1026A8006E0109C060916C01653029F4A0915E014A
:1026B80061DE00926E0150E050936601509367010D
:1026C80050E050936D0160906D01639460926D01CC
:1026D80050E05093610150E050936901609184018A
:1026E800613008F498C06090690163946092690150
:1026F8006090610163946092610150E050936801B9
:1027080050E05093C80160918401613008F47CC0A6
:102718006090C80163946092C801609068016394F6
:102728006092680150906E0150FE34C0A090620122
:1027380020915F01A20E6A2CA09063012091600194
:10274800A21E7A2CA09061016A0C6092910120E08F
:10275800721E70929201A090640120916601A20EEF
:102768006A2CA090650120916701A21E7A2CA09086
:1027780068016A0C6092930120E0721E70929401C5
:102788005091A00150937D015091A10150937E0179
:1027980070D633C0A090620120915F01A20E6A2C0E
:1027A800A090630120916001A21E7A2CA090610183
:1027B8006A0C6092910120E0721E70929201A090C2
:1027C800640120916601A20E6A2CA09065012091F7
:1027D8006701A21E7A2CA09068016A0C609293018E
:1027E80020E0721E7092940150917B0150937D01FC
:1027F80050917C0150937E013CD66091C801C091F4
:1028080084016C1708F484CF60916901C091840138
:102818006C1708F468CF50916E01579550936E016C
:1028280060906601A09084016A0C609266016090D5
:10283800670120E0621E6092670160916D01683057
:1028480008F441CF60905F01A09084016A0C609207
:102858005F016090600120E0621E609260016091FB
:102868006C01653008F4F1CE08955091C901509378
:102878008B015091CA0150938C0150E05093F401A0
:10288800A091CF01B091D0016C91613008F43CC0A7
:102898006090F40163946092F40150918B0150931D
:1028A800620150918C01509363016090CF01A09018
:1028B800F4016A0CA62D6090D00120E0621EB62DAE
:1028C8005C9150935E0195DE60918501C091840111
:1028D8006C9F602C20918B01260DA22E60908C019C
:1028E80020E0621EB62C21E0A20EA0928B0120E00F
:1028F800B21EB0928C01A091CF01B091D00160912D
:10290800F401CC916C1720F20895A091D101B091F7
:10291800D2015C9150938A0160918A01662309F47F
:1029280008955091C20150938B015091C301509367
:102938008C0150E050938D0160918A01613008F458
:102948004AC060908D01639460928D0150918B0113
:102958005093620150918C01509363015091C401CE
:10296800509364015091C501509365016090D10165
:1029780000918D01600EA62D6090D20100E0601ECE
:10298800B62D5C9150935E01509186015093A00141
:10299800509187015093A1012CDE60918501C0916F
:1029A80084016C9F602CA0908B01A60C0A2DA0902E
:1029B8008C0120E0A21E1A2D21E0020F00938B014A
:1029C80020E0121F10938C0160918D01C0918A0143
:1029D8006C1708F4B6CF089550E05093DF01A0902B
:1029E800DF01A394A092DF012BE4A20EAA2D20E020
:1029F80001E0201FB22F60919C0170919D01809190
:102A08009E0190919F01CAE0D0E0E0E0F0E00E94D2
:102A180097240C9260939C0170939D0180939E0172
:102A280090939F0160919C0170919D0180919E01FE
:102A380090919F01C0E0D0E0E0E0F0E00E94132414
:102A4800009400FCCCCF5091C20150938B0150915F
:102A5800C30150938C01A090DF01A394A0928D0133
:102A68006091DF0170E080E090E0613008F44CC0D4
:102A7800A0908D01AA94A0928D0150918B01509342
:102A8800620150918C01509363015091C40150939D
:102A980064015091C50150936501A0908D012BE40C
:102AA800A20EAA2D20E001E0201FB22FAC9020E357
:102AB800A20EA0925E01509186015093A001509100
:102AC80087015093A10195DD60918501C091840132
:102AD8006C9FA02C20918B012A0D622EA0908C0156
:102AE80020E0A21E7A2C21E0620E60928B0120E089
:102AF800721E70928C0161E070E080E090E0C091FD
:102B08008D016C1708F4B4CF089556E350939701DC
:102B1800DAD460918E01643089F450EF50938101CA
:102B280050E05093820150E450937F0151E050935C
:102B3800800158E450939701E4D44FC060918E010E
:102B4800613089F450E45093810151E0509382013F
:102B580050EF50937F0150E05093800158E250931A
:102B68009701CFD43AC060918E01623089F450EF5A
:102B78005093810150E05093820150E450937F01BB
:102B880051E05093800158E850939701BAD425C07A
:102B980060918E01633089F450E45093810151E0D3
:102BA8005093820150EF50937F0150E05093800181
:102BB80058EE50939701A5D410C050EF509381015F
:102BC80050E05093820150E450937F0151E05093BC
:102BD800800158E45093970194D40895579A569ACF
:102BE800559A549A539A529A219A209A389A399A0D
:102BF8003A9A3B9A3C9A409A419A429A439A449A02
:102C0800D2E3E0E00E944A0D449ADFE0E0E00E944F
:102C18004A0D449890E59A95F1F7449ADFE0E0E090
:102C28000E944A0D5FEE509397014DD453E05093A4
:102C3800970167D450E85093970163D452E05093BA
:102C480097015FD45FEC509397013DD450E05093C7
:102C5800970157D451EC5093970153D450E35093B4
:102C680097014FD45DEE509397012DD454E65093BD
:102C7800970147D453E05093970143D452E15093BE
:102C880097013FD451E8509397013BD458EE5093A5
:102C9800970119D455E85093970133D450E05093D5
:102CA80097012FD458E7509397012BD45BEC50939E
:102CB800970109D459E35093970123D45CE25093C8
:102CC80097011FD450E0509397011BD454E35093BD
:102CD800970117D452E05093970113D457EF5093AC
:102CE8009701F1D350E2509397010BD45AEE5093C9
:102CF8009701E9D350E05093970103D450E05093E3
:102D08009701FFD350EC50939701DDD35BE25093CA
:102D18009701F7D351EC50939701D5D350E15093D5
:102D28009701EFD355EC50939701CDD35EE35093C1
:102D38009701E7D358E250939701E3D357EC5093A8
:102D48009701C1D356E850939701DBD356E35093CC
:102D58009701B9D358E450939701D3D35AE35093CA
:102D68009701B1D355E550939701CBD351EB5093CD
:102D78009701A9D350E050939701C3D358E15093DA
:102D88009701BFD356EB509397019DD358E05093CA
:102D98009701B7D352E850939701B3D357E25093B2
:102DA8009701AFD352EF509397018DD350E05093D2
:102DB8009701A7D356E25093970185D351E05093DA
:102DC80097019FD350EE509397017DD35FE05093C6
:102DD800970197D351E35093970193D35BE25093B4
:102DE80097018FD35CE0509397018BD35EE05093AB
:102DF800970187D358E05093970183D35EE45093AB
:102E080097017FD351EF509397017BD357E35093AA
:102E1800970177D357E05093970173D350E15093BC
:102E280097016FD353E0509397016BD35EE05093B3
:102E3800970167D359E05093970163D350E05093BB
:102E480097015FD351EE509397013DD350E05093D3
:102E5800970157D35EE05093970153D354E15093B1
:102E680097014FD353E0509397014BD351E15093BF
:102E7800970147D357E05093970143D351E35093B9
:102E880097013FD351EC509397013BD358E45093AB
:102E9800970137D358E05093970133D35FE05093AD
:102EA80097012FD35CE0509397012BD351E35093B4
:102EB800970127D356E35093970123D35FE05093AC
:102EC80097011FD351E150939701FDD2D6E9E0E075
:102ED8000E944A0D59E250939701F5D250E0509361
:102EE8007B0150937C015FEF5093860150938701DB
:102EF80050EF5093810150E05093820150E4509379
:102F08007F0151E05093800156E05093850150E0D5
:102F18005093830151E05093840154E050938E0103
:102F2800ACCA50E055B950E058B950E05BB90895C3
:102F38005098519A089550E05093A2015093A301DC
:102F480050E05093A6015093A70150E05093AC0174
:102F58005093AD0150E05093AE015093AF0150E053
:102F68005093A4015093A50150E05093A8015093A9
:102F7800A90150E05093AA015093AB016090B201AF
:102F8800A090B0016A186092A2016090B301A0906D
:102F9800B1016A086092A3016090B601A090B401E3
:102FA8006A186092A6016090B701A090B5016A08FE
:102FB8006092A701C091A201D091A30160E070E0E6
:102FC8000E942E2400FE07C051E05093AC0150E04F
:102FD8005093AD0105C05FEF5093AC015093AD0124
:102FE800C091A601D091A70160E070E00E942E2454
:102FF80000FE07C051E05093AE0150E05093AF017E
:1030080005C05FEF5093AE015093AF016091AC01E2
:103018007091AD01C091A201D091A3010E947F25BA
:103028000092A2011092A3016091AE017091AF01CC
:10303800C091A601D091A7010E947F250092A60108
:103048001092A7016091A2017091A301C2E0D0E0A3
:103058000E947F250092A4011092A5016091A6010B
:103068007091A701C2E0D0E00E947F250092A801DC
:103078001092A9016091A2017091A301C091A601CB
:10308800D091A7010E942E24009400FE9AC060905F
:10309800A801A090A2016A186092AA016090A901F3
:1030A800A090A3016A086092AB016091B001709191
:1030B800B101C091B201D091B3010E940C240094D7
:1030C80000FE65C05091B001509391015091B1013B
:1030D800509392015091B401509393015091B501CE
:1030E800509394015091A00150937D015091A101FA
:1030F80050937E01BED16090B001A090AC016A0CE3
:103108006092B0016090B101A090AD016A1C60921C
:10311800B1016091AA017091AB01C0E0D0E00E94BA
:103128002E2400FE0FC06090AA01A090A8016A0C8E
:103138006092AA016090AB01A090A9016A1C6092FC
:10314800AB0124C06090A8012091A401621AA62CAA
:103158006090A9012091A501620AB62C6090AA018D
:103168006A0C6092AA016090AB016B1C6092AB0183
:103178006090B401A090AE016A0C6092B4016090B6
:10318800B501A090AF016A1C6092B5018ECF509135
:10319800B001509391015091B10150939201509117
:1031A800B401509393015091B501509394015091FB
:1031B800A00150937D015091A10150937E0159D1F6
:1031C80099C06090A401A090A6016A186092AA0113
:1031D8006090A501A090A7016A086092AB01609178
:1031E800B4017091B501C091B601D091B7010E94A8
:1031F8000C24009400FE65C05091B00150939101D9
:103208005091B101509392015091B40150939301A0
:103218005091B501509394015091A00150937D01B4
:103228005091A10150937E0124D16090B401A090E7
:10323800AE016A0C6092B4016090B501A090AF0134
:103248006A1C6092B5016091AA017091AB01C0E05F
:10325800D0E00E942E2400FE0FC06090AA01A0902A
:10326800A4016A0C6092AA016090AB01A090A5012C
:103278006A1C6092AB0124C06090A4012091A8014F
:10328800621AA62C6090A5012091A901620AB62CA9
:103298006090AA016A0C6092AA016090AB016B1C55
:1032A8006092AB016090B001A090AC016A0C609292
:1032B800B0016090B101A090AD016A1C6092B101AB
:1032C8008ECF5091B001509391015091B10150931C
:1032D80092015091B401509393015091B5015093CC
:1032E80094015091A00150937D015091A1015093F8
:1032F8007E01BFD00895A091EE01B091EF016C91CD
:10330800C091EB016C1708F076C0A091EE01B09166
:10331800EF015C915093CE01C0E0D1E0E8E2FCE41B
:103328000E94A52550E05093EA016091CE016130DA
:1033380038F16090EA0163946092EA016090EE01CE
:10334800A090EA016A0CA62D6090EF0120E0621EB1
:10335800B62D5D915093CC015093CD016090EA0158
:1033680020E0620EA62D20E001E0201FB22F509130
:10337800CD015D936091EA01C091CE016C17C8F24E
:10338800A090CE01A394AA94A092EA01A090CE01A5
:10339800A394CA2D6091EB010E941E2400FC26C054
:1033A8006090EA0163946092EA016090EC0121E088
:1033B800620EA62D6090ED0120E0621EB62D5D9193
:1033C8005093CD015093CC016090EA0120E0620E49
:1033D800A62D20E001E0201FB22F5091CC015D9373
:1033E8006091EA01C091EB016C17D0F25091EB01AA
:1033F800509300013DC050E05093EA01A091EE01C6
:10340800B091EF016C91613050F16090EA016394E2
:103418006092EA016090EE01A090EA016A0CA62D84
:103428006090EF0120E0621EB62D5D915093CC01B3
:103438005093CD016090EA0120E0620EA62D20E0B5
:1034480001E0201FB22F5091CD015D93A091EE01B4
:10345800B091EF016091EA01CC916C17B0F2A091A4
:10346800EE01B091EF015D915093CC0150930001B2
:1034780008955091910150930002509192015093F8
:10348800010250919301509304025091940150937A
:10349800050250919101509302025091920150936C
:1034A8000302509193015093060250919401509356
:1034B80007027FD050917D015093980150917E0171
:1034C800509399013CC043984298409A419A23E00E
:1034D800ABB0A2226A2C2CEF009197010223A02EF8
:1034E800A628ABB82CEFA5B0A2226A2C23E0009145
:1034F80097010223A02EA628A5B84198419A439A7D
:1035080008954398429A409A419A23E0ABB0A22288
:103518006A2C2CEF009197010223A02EA628ABB8A5
:103528002CEFA5B0A2226A2C23E000919701022378
:10353800A02EA628A5B84198419A439A0895439881
:10354800429A409A419A23E0ABB0A2226A2C2CEF0F
:10355800009199010223A02EA628ABB82CEFA5B0A4
:10356800A2226A2C23E0009199010223A02EA6280A
:10357800A5B84198419A23E0ABB0A2226A2C2CEF5F
:10358800009198010223A02E50E0B52EA628ABB8D2
:103598002CEFA5B0A2226A2C23E000919801022307
:1035A800A02E50E0B52EA628A5B84198419A439A76
:1035B80008955AE25093970186DF50910102509383
:1035C80097019FDF50910002509397019ADF509125
:1035D80003025093970195DF50910202509397018F
:1035E80090DF5BE2509397016EDF50910502509394
:1035F800970187DF509104025093970182DF509121
:103608000702509397017DDF50910602509397016E
:1036180078DF5CE25093970156CF54E050938E01C7
:1036280074DA52E05093C90150E05093CA0151E056
:103638005093640150E050936501CAE3D1E0E0EA99
:10364800FBE40E94A5255AE35093CF0151E0509323
:10365800D0015FEF5093A0015093A10106D958E320
:103668005093C90150E05093CA0151E0509364014E
:1036780050E050936501CAE3D1E0E4EAFBE40E941C
:10368800A5255AE35093CF0151E05093D00150EE55
:103698005093A0015FEF5093A101E7D852E05093F7
:1036A800C90150E05093CA0150E15093640150E0C1
:1036B80050936501CAE3D1E0EEEAFBE40E94A52538
:1036C8005AE35093CF0151E05093D0015FEF5093EC
:1036D800A0015093A101C9D85CE35093C90150E0FF
:1036E8005093CA015FE15093640150E05093650123
:1036F800CAE3D1E0E6EBFBE40E94A5255AE3509328
:10370800CF0151E05093D001509186015093A00110
:10371800509187015093A101A8D85CE35093C90147
:1037280050E05093CA0157E25093640150E050931F
:103738006501CAE3D1E0E2ECFBE40E94A5255AE367
:103748005093CF0151E05093D0015091860150938E
:10375800A001509187015093A10187D85CE3509351
:10376800C90150E05093CA015FE25093640150E0F0
:1037780050936501CAE3D1E0EEECFBE40E94A52575
:103788005AE35093CF0151E05093D00150918601F4
:103798005093A001509187015093A10166D85AE433
:1037A8005093C90150E05093CA0150E1509364010D
:1037B80050E050936501CAE3D1E0EAEDFBE40E94D2
:1037C800A5255AE35093CF0151E05093D001509171
:1037D80086015093A001509187015093A10145D8CB
:1037E80050E05093B0015093B10150E05093B401B0
:1037F8005093B5016090810101E0601A6092B201B6
:103808006090820100E0600A6092B30160907F01DD
:1038180001E0601A6092B6016090800100E0600AE1
:103828006092B70150EE5093A0015FEF5093A10151
:103838000E94AB086090810105E0601A6092B001B7
:103848006090820100E0600A6092B10160907F019F
:1038580005E0601A6092B4016090800100E0600A9F
:103868006092B5016090810101E0601A6092B20136
:103878006090820100E0600A6092B30160907F016D
:1038880001E0601A6092B6016090800100E0600A71
:103898006092B7015FEF5093A0015093A1010E947D
:1038A800AB086091810170918201C2E0D0E00E9472
:1038B80068246093F5017093F60160917F0170911F
:1038C8008001C2E0D0E00E9468246093FD017093FB
:1038D800FE0152E350939A0150E050939B0158E146
:1038E8005093A00156EC5093A1015091950150932B
:1038F800FF010E94BA096091810170918201C2E0C2
:10390800D0E0E2D76093F5017093F60160917F01F2
:1039180070918001C2E0D0E0D7D76093FD01709329
:10392800FE0159E15093F70150E05093F8015AE82D
:103938005093A00152E55093A1010E94260E50E039
:103948005093B0015093B10160907F0101E0601A7B
:103958006092B4016090800100E0600A6092B50155
:103968006091810170918201C2E0D0E0ADD7662EEE
:1039780004E6600E6092B201672E00E0601E60925D
:10398800B30160917F0170918001C2E0D0E09CD7C3
:10399800662E772E02E3601A6092B60100E0700A84
:1039A8007092B7015FEF5093A00157E05093A101C7
:1039B800C2DA50E05093B0015093B10160917F0199
:1039C80070918001C2E0D0E07FD7662E772E02E3A7
:1039D800601A6092B40100E0700A7092B5016091BB
:1039E800810170918201C2E0D0E06ED7662E04E6B4
:1039F800600E6092B201672E00E0601E6092B30113
:103A080060917F0170918001C2E0D0E05DD7662EA1
:103A1800772E02E3601A6092B60100E0700A709295
:103A2800B7015FEF5093A00157E05093A10183DAEB
:103A380052E05093B00150E05093B10160917F0182
:103A480070918001C2E0D0E03FD7662E0AE0600E98
:103A58006092B401672E00E0601E6092B5015AE2E0
:103A68005093B20150E05093B30160917F0170917F
:103A78008001C2E0D0E028D7662E02E3600E609293
:103A8800B601672E00E0601E6092B70150E05093C7
:103A9800A00158EF5093A1010E945C0D5091840140
:103AA8005093C00152E0509384015AE25093C901E7
:103AB80050E05093CA0160907F010EE1601A609255
:103AC80064016090800100E0600A60926501CAE3C9
:103AD800D1E0E0EEFBE40E94A5255AE35093CF0124
:103AE80051E05093D0015FEF5093A0015093A10192
:103AF8000E94391451E05093840158E45093C9014D
:103B080050E05093CA0160907F010CE3601A609204
:103B180064016090800100E0600A60926501CAE378
:103B2800D1E0E0EFFBE40E94A5255AE35093CF01D2
:103B380051E05093D0015FEF5093A0015093A10141
:103B48000E943914609081010CE3601A6092C901E7
:103B58006090820100E0600A6092CA0152E05093CE
:103B6800640150E050936501CAE3D1E0E0E0FCE471
:103B7800E8D75AE35093CF0151E05093D0015FEF5B
:103B88005093A0015093A1010E94391460908101C3
:103B980006E2601A6092C9016090820100E0600A42
:103BA8006092CA015AE05093640150E05093650155
:103BB800CAE3D1E0EAE0FCE4C4D75AE35093CF016A
:103BC80051E05093D0015FEF5093A0015093A101B1
:103BD8000E9439145091C001509384015FEF5093B3
:103BE80086015093870150E95093C20150E05093E9
:103BF800C3015FE15093C40150E05093C501509157
:103C0800BC0150939C015091BD0150939D0150916E
:103C1800BE0150939E015091BF0150939F010E9495
:103C2800F01450E95093C20150E05093C30157E299
:103C38005093C40150E05093C5015091F201509344
:103C4800F0015091F3015093F10122D556E55093BC
:103C5800EE0151E05093EF0155E05093EB01CAE3B8
:103C6800D1E0E6E2FCE46DD75AE35093EC0151E071
:103C78005093ED0140DB50E05093D10151E0509357
:103C8800D2010E94891450E95093C20150E0509328
:103C9800C3015FE25093C40150E05093C5015091B5
:103CA8005C015093F00150E05093F101F1D456E5D6
:103CB8005093EE0151E05093EF0153E05093EB0124
:103CC800CAE3D1E0E6E2FCE43CD75AE35093EC01C6
:103CD80051E05093ED010FDB50E05093D10151E0DA
:103CE8005093D2010E94891456E35093620150E028
:103CF8005093630150E15093640150E05093650183
:103D080050915D0150935E01509186015093A0013E
:103D1800509187015093A1010E94FD1254E35093E2
:103D2800B00150E05093B1015FE05093B40150E00E
:103D38005093B5015EE35093B20150E05093B30144
:103D48005AE15093B60150E05093B7015FEF50939A
:103D5800A0015093A1010E94AB0854E65093C901F9
:103D680050E05093CA0150E15093640150E05093E1
:103D7800650150915D015093F00150E05093F101BD
:103D880087D456E55093EE0151E05093EF0153E08C
:103D98005093EB01CAE3D1E0E6E2FCE4D2D65AE361
:103DA8005093EC0151E05093ED01A5DA50E05093A7
:103DB800CF0151E05093D001509186015093A0015A
:103DC800509187015093A1010E94391460905D01C0
:103DD800639460925D0160915D01662319F45FE16F
:103DE80050935D0160915D01603819F450EC509377
:103DF8005D016090BC0107E0600E6092BC016090BC
:103E0800BD0100E0601E6092BD016090BE0100E04F
:103E1800601E6092BE016090BF0100E0601E60926B
:103E2800BF016090F20103E0600E6092F2016090C1
:103E3800F30100E0601E6092F30160905C016394FE
:103E480060925C01D0CE089553E050938E010E9499
:103E5800891552E05093C90150E05093CA0151E0CE
:103E68005093640150E050936501CAE3D1E0E0EA61
:103E7800FBE467D65AE35093CF0151E05093D00149
:103E88005FEF5093A0015093A1010E94391458E3A9
:103E98005093C90150E05093CA0151E05093640116
:103EA80050E050936501CAE3D1E0E4EAFBE449D667
:103EB8005AE35093CF0151E05093D00150EE509304
:103EC800A0015FEF5093A1010E94391452E0509372
:103ED800C90150E05093CA0152E15093640150E087
:103EE80050936501CAE3D1E0EEEAFBE42AD65AE32F
:103EF8005093CF0151E05093D0015FEF5093A00150
:103F08005093A1010E94391452E05093C90150E026
:103F18005093CA0154E35093640150E050936501F3
:103F2800CAE3D1E0E0E1FCE40CD65AE35093CF01B8
:103F380051E05093D001509186015093A0015091C7
:103F480087015093A1010E94391452E05093C9018E
:103F580050E05093CA0156E45093640150E05093E6
:103F68006501CAE3D1E0E6E1FCE4EBD55AE35093FE
:103F7800CF0151E05093D001509186015093A00198
:103F8800509187015093A1010E94391452E0509337
:103F9800C90150E05093CA0158E55093640150E0BC
:103FA80050936501CAE3D1E0ECE1FCE4CAD55AE3D9
:103FB8005093CF0151E05093D00150918601509316
:103FC800A001509187015093A1010E94391450E833
:103FD8005093C90150E05093CA0152E150936401D3
:103FE80050E050936501CAE3D1E099275991EAED71
:103FF800FBE4AED5E2E2FCE4ABD5AAE3B1E09C93E6
:104008005AE35093CF0151E05093D001509186016B
:104018005093A001509187015093A1010E94391437
:1040280050E05093B0015093B10150E05093B40167
:104038005093B5016090810101E0601A6092B2016D
:104048006090820100E0600A6092B30160907F0195
:1040580001E0601A6092B6016090800100E0600A99
:104068006092B70150EE5093A0015FEF5093A10109
:104078000E94AB086090810105E0601A6092B0016F
:104088006090820100E0600A6092B10160907F0157
:1040980005E0601A6092B4016090800100E0600A57
:1040A8006092B5016090810101E0601A6092B201EE
:1040B8006090820100E0600A6092B30160907F0125
:1040C80001E0601A6092B6016090800100E0600A29
:1040D8006092B7015FEF5093A0015093A1010E9435
:1040E800AB086091810170918201C2E0D0E0ECD30D
:1040F8006093F5017093F60160917F0170918001E2
:10410800C2E0D0E0E1D36093FD017093FE0152E379
:1041180050939A0150E050939B0158E15093A001AD
:1041280056EC5093A101509195015093FF010E94C4
:10413800BA096091810170918201C2E0D0E0C4D3D4
:104148006093F5017093F60160917F017091800191
:10415800C2E0D0E0B9D36093FD017093FE0159E14C
:104168005093F70150E05093F8015AE85093A0019A
:1041780052E55093A1010E94260E50E05093B001E1
:104188005093B10160907F0101E0601A6092B40120
:104198006090800100E0600A6092B5016091810141
:1041A80070918201C2E0D0E08FD3662E04E6600EE3
:1041B8006092B201672E00E0601E6092B3016091C8
:1041C8007F0170918001C2E0D0E07ED3662E772E09
:1041D80002E3601A6092B60100E0700A7092B701BB
:1041E8005FEF5093A00157E05093A1010E949F17E1
:1041F80050E05093B0015093B10160917F017091EC
:104208008001C2E0D0E060D3662E772E02E3601A08
:104218006092B40100E0700A7092B501609181016A
:1042280070918201C2E0D0E04FD3662E04E6600EA2
:104238006092B201672E00E0601E6092B301609147
:104248007F0170918001C2E0D0E03ED3662E772EC8
:1042580002E3601A6092B60100E0700A7092B7013A
:104268005FEF5093A00157E05093A1010E949F1760
:1042780052E05093B00150E05093B10160917F013A
:1042880070918001C2E0D0E01FD3662E0AE0600E74
:104298006092B401672E00E0601E6092B5015AE298
:1042A8005093B20150E05093B30160917F01709137
:1042B8008001C2E0D0E008D3662E02E3600E60926F
:1042C800B601672E00E0601E6092B70150E050937F
:1042D800A00158EF5093A1010E945C0D50918401F8
:1042E8005093C00153E05093840152E35093C901A5
:1042F80050E05093CA0160907F010EE1601A60920D
:1043080064016090800100E0600A60926501CAE380
:10431800D1E0E0EEFBE415D45AE35093CF0151E02D
:104328005093D0015FEF5093A0015093A1010E94D8
:10433800391451E050938401609081010CE3601AB4
:104348006092C9016090820100E0600A6092CA012F
:1043580052E05093640150E050936501CAE3D1E004
:10436800E0E0FCE4EED35AE35093CF0151E05093E0
:10437800D0015FEF5093A0015093A1010E9439141E
:104388006090810106E2601A6092C9016090820122
:1043980000E0600A6092CA015AE05093640150E05C
:1043A80050936501CAE3D1E0EAE0FCE4CAD35AE3DA
:1043B8005093CF0151E05093D0015FEF5093A0018B
:1043C8005093A1010E9439145091C0015093840167
:1043D8005FEF509386015093870154E65093C201D2
:1043E80050E05093C30160907F010CE3601A609223
:1043F800C4016090800100E0600A6092C501CAE3D0
:10440800D1E0E0EFFBE49DD35AE35093E00151E0A3
:104418005093E1015091860150936A0150918701B0
:1044280050936B010E94590850E45093C20150E028
:104438005093C30154E35093C40150E05093C50115
:104448005091BC0150939C015091BD0150939D0126
:104458005091BE0150939E015091BF0150939F010E
:104468000E94F01450E45093C20150E05093C301ED
:1044780056E45093C40150E05093C5015091F201A5
:104488005093F0015091F3015093F10101D156E599
:104498005093EE0151E05093EF0155E05093EB013A
:1044A800CAE3D1E0E6E2FCE44CD35AE35093EC01D2
:1044B80051E05093ED010E947F1950E05093D101D3
:1044C80051E05093D2010E94891450E45093C201E4
:1044D80050E05093C30158E55093C40150E0509305
:1044E800C50150915C015093F00150E05093F101E7
:1044F800CFD056E55093EE0151E05093EF0153E0D1
:104508005093EB01CAE3D1E0E6E2FCE41AD35AE3A4
:104518005093EC0151E05093ED010E947F1950E057
:104528005093D10151E05093D2010E94891453E66F
:104538005093620150E05093630152E1509364013B
:1045480050E05093650150915D0150935E01509188
:1045580086015093A001509187015093A1010E94B8
:10456800FD1252E65093B00150E05093B10152E170
:104578005093B40150E05093B50155E75093B20100
:1045880050E05093B3015AE25093B60150E0509373
:10459800B7015FEF5093A0015093A1010E94AB08AF
:1045A80054EB5093C90150E05093CA0152E1509323
:1045B800640150E05093650150915D015093F00102
:1045C80050E05093F10164D056E55093EE0151E06C
:1045D8005093EF0153E05093EB01CAE3D1E0E6E2D8
:1045E800FCE4AFD25AE35093EC0151E05093ED0153
:1045F8000E947F1950E05093CF0151E05093D001B1
:10460800509186015093A001509187015093A101C8
:104618000E94391460905D01639460925D0160911D
:104628005D01662319F45FE150935D0160915D01BE
:10463800603819F450EC50935D016090BC0107E0BC
:10464800600E6092BC016090BD0100E0601E609247
:10465800BD016090BE0100E0601E6092BE016090E6
:10466800BF0100E0601E6092BF016090F20103E0AC
:10467800600E6092F2016090F30100E0601E6092AB
:10468800F30160905C01639460925C01CDCE089563
:1046980050E05093CE016091F0017091F101C0E1BA
:1046A800D7E2CED0009400FE1FC06091F001709157
:1046B800F101C0E1D7E208D16093E9010092F0016D
:1046C8001092F1016090CE0163946092CE0126E5CC
:1046D800620EA62D20E001E0201FB22F6090E901B4
:1046E80020E3620E6C920AC06091F0017091F101B2
:1046F800C8EED3E0A5D0009400FE1FC06091F00181
:104708007091F101C8EED3E0DFD06093E901009227
:10471800F0011092F1016090CE0163946092CE0195
:1047280026E5620EA62D20E001E0201FB22F609042
:10473800E90120E3620E6C920AC06091F001709169
:10474800F101C4E6D0E07CD0009400FE1FC0609167
:10475800F0017091F101C4E6D0E0B6D06093E901B0
:104768000092F0011092F1016090CE016394609282
:10477800CE0126E5620EA62D20E001E0201FB22F13
:104788006090E90120E3620E6C920AC06091F0012A
:104798007091F101CAE0D0E053D0009400FE1EC031
:1047A8006091F0017091F101CAE0D0E08DD0609382
:1047B800E9010092F0011092F1016090CE0163943A
:1047C8006092CE0126E5620EA62D20E001E0201FB2
:1047D800B22F6090E90120E3620E6C926090CE01E6
:1047E80063946092CE0126E5620EA62D20E001E0DA
:1047F800201FB22F6090F00120E3620E6C920092AD
:10480800F0011092F1015091CE0150935601089594
:1048180000246C1719F47D1709F4009408950024F6
:104828006C1739F47D1729F48E1719F49F1709F4BA
:104838000094089500246C1708F0089500940895D2
:104848000024D71730F07D1718F06C1708F008957A
:104858000094089550E0052E77FF1BC0D7FD04C0D3
:10486800602C6094062C0895A62EB72EA094B094C0
:10487800A39409F4B3948A2D9B2DAC2EBD2EA0943D
:10488800B094A39409F4B3946A2D7B2DC82FD92F23
:1048980002C0D7FD0895D71730F07D1718F06C17B0
:1048A80008F0089500940895CC2309F4089500248D
:1048B80058E0552E660F001C0C1A616010F46E7FCC
:1048C8000C0E5A94B9F70895862F972FEC2FFD2FC9
:1048D80050E0252E50E0352E6E2F7F2FC0E0D0E01F
:1048E80097DF00FE03C060E070E0089550E1552EA8
:1048F8008894881F991F221C331C622C6E1A262C40
:10490800632C6F0A362C816038F48E7F622C6E0E11
:10491800262C632C6F1E362C5A9451F7682F792F4A
:10492800022C132C08956093D3017093D4018093C3
:10493800D5019093D601C093D701D093D801E093C5
:10494800D901F093DA0150E05093DB015093DC0178
:104958005093DD015093DE016091D7017091D80129
:104968008091D9019091DA01C0E0D0E0E0E0F0E078
:1049780056DF00FE05C060E070E080E090E008953A
:1049880050E2552E88945091D301551F5093D3016E
:104998005091D401551F5093D4015091D501551F02
:1049A8005093D5015091D601551F5093D60150917F
:1049B800DB01551F5093DB015091DC01551F5093CB
:1049C800DC015091DD01551F5093DD015091DE014E
:1049D800551F5093DE016090DB01A090D7016A1843
:1049E8006092DB016090DC01A090D8016A086092B7
:1049F800DC016090DD01A090D9016A086092DD01B8
:104A08006090DE01A090DA016A086092DE015091A0
:104A1800D30151605093D30108F55091D3015E7FC3
:104A28005093D3016090DB01A090D7016A0C60928B
:104A3800DB016090DC01A090D8016A1C6092DC0167
:104A48006090DD01A090D9016A1C6092DD01609040
:104A5800DE01A090DA016A1C6092DE015A9409F026
:104A680091CF6091D3017091D4018091D50190913B
:104A7800D6010090DB011090DC012090DD01309020
:104A8800DE0108956D2E6726462C77FF09C0A62EF5
:104A9800B72EA094B094A39409F4B3946A2D7B2DF7
:104AA800D7FF09C0AC2EBD2EA094B094A39409F4EE
:104AB800B394CA2DDB2D08DF47FE12C0A62EB72EF1
:104AC800A094B094A39409F4B3946A2D7B2DA02CE0
:104AD800B12CA094B094A39409F4B3940A2C1B2C81
:104AE80008956C9F202C312C6D9F300C7C9F300CCE
:104AF800022C132C08956D2E6726462C77FF09C0CB
:104B0800A62EB72EA094B094A39409F4B3946A2D5A
:104B18007B2DD7FF09C0AC2EBD2EA094B094A394D2
:104B280009F4B394CA2DDB2DDCDF47FE09C0A02CA5
:104B3800B12CA094B094A39409F4B3940A2C1B2C20
:104B48000895C895602DE39509F4F395699306C017
:104B5800C895602DE39509F4F395960F603009F434
:104B68000895C895E39509F4F39509926A95C9F7EC
:104B7800089510474C43445072696E742053747200
:104B8800696E670009474C434420666F6E7408736A
:104B9800697A65203D203300034743420876302E6A
:104BA80039382E30350007447261775374720B4CD4
:104BB8006F6E67204E756D6265720B576F72642059
:104BC8004E756D6265720B42797465204E756D6223
:104BD8006572044173633A000E494C4939333431E4
:104BE80020447269766572000F47726561742043CC
:104BF8006F77204241534943084D6172203230316A
:104C08003900053820626974054C6F6E673A05579C
:104C18006F72643A05427974653A022020000120D7
:024C280000008A
:00000001FF
