:020000020000FC
:0200000033C00B
:0200040018954D
:02000800189549
:02000C00189545
:02001000189541
:0200140018953D
:02001800189539
:02001C00189535
:02002000189531
:0200240018952D
:02002800189529
:02002C00189525
:02003000189521
:0200340018951D
:02003800189519
:02003C00189515
:0200400060C39B
:0200440018950D
:02004800189509
:02004C00189505
:02005000189501
:020054001895FD
:020058001895F9
:02005C001895F5
:020060001895F1
:020064001895ED
:1000680058E05EBF5FEF5DBF14D326D37894529AF1
:1000780050E0509331015093320150E050932301E6
:10008800509324015CE050933B0150E050931B01D6
:1000980050931C0150931D0150931E0151E0509341
:1000A800250153E05093260151E05093300102D4CA
:1000B80050E050933F0151E05093400150E050937D
:1000C800270150E0509328015FEF5093290150E039
:1000D80050932A0150932B014BD350E050933F018A
:1000E80051E05093400151E05093270150E0509364
:1000F80028015FEF5093290150932A0150E0509353
:100108002B0136D350E050933F0151E0509340010A
:1001180052E05093270150E0509328015093290151
:100128005FEF50932A0150E050932B0121D350E008
:1001380050933F0151E05093400153E05093270101
:100148005FEF509328015093290150932A0150E002
:1001580050932B010DD350E050933F0151E0509341
:10016800400154E0509327015FEF5093280150E07D
:100178005093290150932A0150932B01F9D250E052
:1001880050933F0151E05093400155E050932701AF
:1001980050E0509328015093290150932A0150931D
:1001A8002B01E6D256E050934B0159E450933F019E
:1001B80051E05093400151E05093270150E650938D
:1001C800280150E05093290150932A0150932B01A4
:1001D800CFD259E450933F0151E05093400152E08F
:1001E8005093270150E95093280150E0509329017A
:1001F80050932A0150932B01BBD259E450933F01ED
:1002080051E05093400153E05093270158E0509338
:10021800280151E05093290150E050932A0150934E
:100228002B01A6D259E450933F0151E0509340016D
:1002380054E05093270154E05093280152E0509322
:10024800290150E050932A0150932B0191D259E48F
:1002580050933F0151E05093400155E050932701DE
:1002680052E05093280154E05093290150E05093F4
:100278002A0150932B017CD259E450933F0151E05D
:100288005093400156E05093270151E050932801C4
:1002980058E05093290150E050932A0150932B01C4
:1002A80067D253E05093460150E050933F0151E02C
:1002B80050934001509126015093270198D15091B5
:1002C8002C0150931B0150912D0150931C0150910A
:1002D8002E0150931D0150912F0150931E0150E0A3
:1002E8005093480160914B01613008F4ABC03090E5
:1002F800480133943092480159E450933F0151E04A
:1003080050934001509148015093270170D150916A
:100318002C0150934C0150912D0150934D015FEFEA
:100328005093470130903B013A94C0E0632D6BD263
:1003380000FC54C030904701339430924701552750
:1003480050904D0153FC539550931A018894509145
:100358004C01551F50934C0150914D01551F50931E
:100368004D0160911A01613089F450911B0150933D
:100378001F0150911C015093200150911D01509371
:10038800210150911E01509322011EC0609130013D
:10039800613051F450E050931F0150932001509365
:1003A80021015093220110C050911B0150931F014D
:1003B80050911C015093200150911D01509321012F
:1003C80050911E01509322014ED230903B013A9435
:1003D80060914701C32D17D200FCACCF30902501A6
:1003E8003394309225018DD15091330150932301DC
:1003F80050913401509324013090230140903101F1
:100408003418132C30902401409032013408232CE6
:10041800612D722DC0914601D0E0FBD1009400FE01
:1004280009C05091230150933101509124015093F8
:10043800320101C0D8CF60914801C0914B016C17BF
:1004480008F455CF40904B014A9443944092480198
:1004580040904B014A94642DC2E0D5D100FCAAC05B
:10046800309048013A943092480159E450933F0142
:1004780051E0509340015091480150932701B7D063
:1004880050912C0150934C0150912D0150934D01E6
:100498005FEF5093470140903B014A94C0E0642DC0
:1004A800B2D100FC54C030904701339430924701D8
:1004B800552750904D0153FC539550931A01889439
:1004C80050914C01551F50934C0150914D01551FAF
:1004D80050934D0160911A01613089F450911B01CC
:1004E80050931F0150911C015093200150911D0100
:1004F8005093210150911E01509322011EC060911A
:100508003001613051F450E050931F0150932001A5
:10051800509321015093220110C050911B01509318
:100528001F0150911C015093200150911D015093BF
:10053800210150911E015093220195D140903B0119
:100548004A9460914701C42D5ED100FCACCF309035
:100558002501339430922501D4D050913301509322
:10056800230150913401509324013090230140908D
:1005780031013418132C3090240140903201340892
:10058800232C612D722DC0914601D0E042D10094F8
:1005980000FE09C05091230150933101509124016C
:1005A8005093320101C0D8CF62E0C09148016C1766
:1005B80008F456CF51E0509325014090260143940A
:1005C800342C632DC5E02FD10092260130904601CE
:1005D80003E0300E3092460160914601643B19F405
:1005E80053E05093460160CE00C08895FECF6091DD
:1005F8002701C4E06C9F302C40902701340C3092C6
:10060800270130903F0140902701340CA32D3090F2
:10061800400100E0301EB32D5C9150932C0150E056
:1006280050932D0150932E0150932F014090270194
:100638004394342C40903F01430CA42D309040014A
:1006480000E0301EB32D5C9150932D01409027019E
:1006580002E0400E342C40903F01430CA42D309012
:10066800400100E0301EB32D5C9150932E01409064
:10067800270103E0400E342C40903F01430CA42D89
:100688003090400100E0301EB32D5C9150932F0153
:10069800089550E055B950E058B950E05BB9089555
:1006A80060914501623019F457E05093440150912C
:1006B800440150934301089550916E005160509346
:1006C8006E0050E050933701509338015093390130
:1006D80050933A0116D051E05093450153E050939E
:1006E8004401DEDF56E056BD08EF45B44022342C05
:1006F80040904301432845BC0895ADD01FD0A89829
:10070800A2C0509141015E7F0FF4516050934101A6
:10071800F894509137015093330150913801509318
:100728003401509139015093350150913A01509359
:1007380036015090410150FC7894089556E056BD1A
:10074800309037013394309237013090380109F4F2
:100758003394309238013090390109F4339430924F
:10076800390130903A0109F4339430923A010895EE
:1007780060912701C4E06C9F302C40902701340C15
:100788003092270130903F0140902701340CA32D6F
:100798003090400100E0301EB32D509128015C9349
:1007A800409027014394342C40903F01430CA42DE2
:1007B8003090400100E0301EB32D509129015C9328
:1007C8004090270102E0400E342C40903F01430C3A
:1007D800A42D3090400100E0301EB32D50912A0125
:1007E8005C934090270103E0400E342C40903F0179
:1007F800430CA42D3090400100E0301EB32D5091E1
:100808002B015C93089500246C1708F00895009458
:1008180008950024D71730F07D1718F06C1708F0EA
:10082800089500940895CC2309F40895002458E00D
:10083800552E660F001C0C1A616010F46E7F0C0EAA
:100848005A94B9F7089530903D0150913C015FBF2B
:1008580050913E01189550933E015FB750933C016B
:1008680030923D01089558E1509342015090210182
:1008780057FE02C05A9A02C05A9A5A9850911F01BC
:10088800551F50931F0150912001551F509320016F
:1008980050912101551F5093210150912201551F5C
:1008A800509322015A98309042013A943092420172
:1008B800E9F608955A9A5A98AAE090E09A95F1F7BD
:0E08C800AA95D9F790E69A95F1F700C0089529
:00000001FF
