:020000020000FC
:0200000033C00B
:0200040018954D
:02000800189549
:02000C00189545
:02001000189541
:0200140018953D
:02001800189539
:02001C00189535
:02002000189531
:0200240018952D
:02002800189529
:02002C00189525
:02003000189521
:0200340018951D
:02003800189519
:02003C00189515
:0200400061C39A
:0200440018950D
:02004800189509
:02004C00189505
:02005000189501
:020054001895FD
:020058001895F9
:02005C001895F5
:020060001895F1
:020064001895ED
:1000680058E05EBF5FEF5DBF14D326D37894529AF1
:1000780050E0509331015093320150E050932301E6
:10008800509324015CE050933B0150E050931B01D6
:1000980050931C0150931D0150931E0151E0509341
:1000A800250153E05093260151E05093300104D4C8
:1000B80050E050933F0151E05093400150E050937D
:1000C800270150E0509328015FEF5093290150E039
:1000D80050932A0150932B014DD350E050933F0188
:1000E80051E05093400151E05093270150E0509364
:1000F80028015FEF5093290150932A0150E0509353
:100108002B0138D350E050933F0151E05093400108
:1001180052E05093270150E0509328015093290151
:100128005FEF50932A0150E050932B0123D350E006
:1001380050933F0151E05093400153E05093270101
:100148005FEF509328015093290150932A0150E002
:1001580050932B010FD350E050933F0151E050933F
:10016800400154E0509327015FEF5093280150E07D
:100178005093290150932A0150932B01FBD250E050
:1001880050933F0151E05093400155E050932701AF
:1001980050E0509328015093290150932A0150931D
:1001A8002B01E8D256E050934C015AE450933F019A
:1001B80051E05093400151E05093270150E650938D
:1001C800280150E05093290150932A0150932B01A4
:1001D800D1D25AE450933F0151E05093400152E08C
:1001E8005093270150E95093280150E0509329017A
:1001F80050932A0150932B01BDD25AE450933F01EA
:1002080051E05093400153E05093270158E0509338
:10021800280151E05093290150E050932A0150934E
:100228002B01A8D25AE450933F0151E0509340016A
:1002380054E05093270154E05093280152E0509322
:10024800290150E050932A0150932B0193D25AE48C
:1002580050933F0151E05093400155E050932701DE
:1002680052E05093280154E05093290150E05093F4
:100278002A0150932B017ED25AE450933F0151E05A
:100288005093400156E05093270151E050932801C4
:1002980058E05093290150E050932A0150932B01C4
:1002A80069D253E05093470150E050933F0151E029
:1002B80050934001509126015093270198D15091B5
:1002C8002C0150931B0150912D0150931C0150910A
:1002D8002E0150931D0150912F0150931E0150E0A3
:1002E8005093490160914C01613008F4ABC03090E3
:1002F80049013394309249015AE450933F0151E047
:1003080050934001509149015093270170D1509169
:100318002C0150934D0150912D0150934E015FEFE8
:100328005093480130903B013A94C0E0632D6DD260
:1003380000FC54C03090480133943092480155274E
:1003480050904E0153FC539550931A018894509144
:100358004D01551F50934D0150914E01551F50931B
:100368004E0160911A01613089F450911B0150933C
:100378001F0150911C015093200150911D01509371
:10038800210150911E01509322011EC0609130013D
:10039800613051F450E050931F0150932001509365
:1003A80021015093220110C050911B0150931F014D
:1003B80050911C015093200150911D01509321012F
:1003C80050911E015093220150D230903B013A9433
:1003D80060914801C32D19D200FCACCF30902501A3
:1003E8003394309225018ED15091330150932301DB
:1003F80050913401509324013090230140903101F1
:100408003418132C30902401409032013408232CE6
:10041800612D722DC0914701D0E0FDD1009400FEFE
:1004280009C05091230150933101509124015093F8
:10043800320101C0D8CF60914901C0914C016C17BD
:1004480008F455CF40904C014A9443944092490196
:1004580040904C014A94642DC2E0D7D100FCAAC058
:10046800309049013A94309249015AE450933F013F
:1004780051E0509340015091490150932701B7D062
:1004880050912C0150934D0150912D0150934E01E4
:100498005FEF5093480140903B014A94C0E0642DBF
:1004A800B4D100FC54C030904801339430924801D4
:1004B800552750904E0153FC539550931A01889438
:1004C80050914D01551F50934D0150914E01551FAC
:1004D80050934E0160911A01613089F450911B01CB
:1004E80050931F0150911C015093200150911D0100
:1004F8005093210150911E01509322011EC060911A
:100508003001613051F450E050931F0150932001A5
:10051800509321015093220110C050911B01509318
:100528001F0150911C015093200150911D015093BF
:10053800210150911E015093220197D140903B0117
:100548004A9460914801C42D60D100FCACCF309032
:100558002501339430922501D5D050913301509321
:10056800230150913401509324013090230140908D
:1005780031013418132C3090240140903201340892
:10058800232C612D722DC0914701D0E044D10094F5
:1005980000FE09C05091230150933101509124016C
:1005A8005093320101C0D8CF62E0C09149016C1765
:1005B80008F456CF51E0509325014090260143940A
:1005C800342C632DC5E031D10092260130904701CB
:1005D80003E0300E3092470160914701643B19F403
:1005E80053E05093470160CE00C08895FECF6091DC
:1005F8002701C4E06C9F302C40902701340C3092C6
:10060800270130903F0140902701340CA32D3090F2
:10061800400100E0301EB32D5C9150932C0150E056
:1006280050932D0150932E0150932F014090270194
:100638004394342C40903F01430CA42D309040014A
:1006480000E0301EB32D5C9150932D01409027019E
:1006580002E0400E342C40903F01430CA42D309012
:10066800400100E0301EB32D5C9150932E01409064
:10067800270103E0400E342C40903F01430CA42D89
:100688003090400100E0301EB32D5C9150932F0153
:10069800089550E055B950E058B950E05BB9089555
:1006A80060914601623019F457E05093450150912A
:1006B800450150934401089550916E005160509344
:1006C8006E0050E050933701509338015093390130
:1006D80050933A0117D051E05093460153E050939C
:1006E8004501DEDF56E05093430108EF45B4402250
:1006F800342C40904401432845BC0895AED01FD007
:10070800A898A3C0509141015E7F0FF451605093A7
:100718004101F894509137015093330150913801B9
:1007280050933401509139015093350150913A0159
:10073800509336015090410150FC7894089556E04A
:100748005093430130903701339430923701309001
:10075800380109F43394309238013090390109F4A2
:1007680033943092390130903A0109F4339430923D
:100778003A01089560912701C4E06C9F302C4090A5
:100788002701340C3092270130903F014090270117
:10079800340CA32D3090400100E0301EB32D509151
:1007A80028015C93409027014394342C40903F01EA
:1007B800430CA42D3090400100E0301EB32D509121
:1007C80029015C934090270102E0400E342C4090B0
:1007D8003F01430CA42D3090400100E0301EB32DA2
:1007E80050912A015C934090270103E0400E342C7D
:1007F80040903F01430CA42D3090400100E0301E92
:10080800B32D50912B015C93089500246C1708F0C8
:100818000895009408950024D71730F07D1718F034
:100828006C1708F0089500940895CC2309F40895EE
:10083800002458E0552E660F001C0C1A616010F455
:100848006E7F0C0E5A94B9F7089530903D0150917F
:100858003C015FBF50913E01189550933E015FB730
:1008680050933C0130923D01089558E15093420164
:100878005090210157FE02C05A9A02C05A9A5A98BB
:1008880050911F01551F50931F0150912001551F72
:100898005093200150912101551F509321015091EF
:1008A8002201551F509322015A98309042013A94E0
:1008B80030924201E9F608955A9A5A98AAE090E0CF
:1008C8009A95F1F7AA95D9F790E69A95F1F700C0AD
:0208D800089581
:00000001FF
