:020000020000FC
:0200000033C00B
:0200040018954D
:02000800189549
:02000C00189545
:02001000189541
:0200140018953D
:02001800189539
:02001C00189535
:02002000189531
:0200240018952D
:02002800189529
:02002C00189525
:02003000189521
:0200340018951D
:02003800189519
:02003C00189515
:0200400002C2FA
:0200440018950D
:02004800189509
:02004C00189505
:02005000189501
:020054001895FD
:020058001895F9
:02005C001895F5
:020060001895F1
:020064001895ED
:1000680058E05EBF5FEF5DBFB5D1C7D17894529AB3
:1000780050E0509330015093310150E050932201E9
:10008800509323015CE050933A0150E050931A01D9
:1000980050931B0150931C0150931D0151E0509344
:1000A800240153E05093250151E050932F019FD232
:1000B80050E050933E0151E050933F0150E050937F
:1000C800260150E0509327015FEF5093280150E03C
:1000D8005093290150932A01EED150E050933E01EC
:1000E80051E050933F0151E05093260150E0509366
:1000F80027015FEF509328015093290150E0509356
:100108002A01D9D150E050933E0151E050933F016C
:1001180052E05093260150E0509327015093280154
:100128005FEF5093290150E050932A01C4D150E069
:1001380050933E0151E050933F0153E05093260104
:100148005FEF50932701509328015093290150E005
:1001580050932A01B0D150E050933E0151E05093A2
:100168003F0154E0509326015FEF5093270150E080
:10017800509328015093290150932A019CD150E0B3
:1001880050933E0151E050933F0155E050932601B2
:1001980050E0509327015093280150932901509320
:1001A8002A0189D153E05093460150E050933E0113
:1001B80051E050933F015091250150932601B8D04A
:1001C80050912B0150931A0150912C0150931B010F
:1001D80050912D0150931C0150912E0150931D01F7
:1001E80050E05093480160913A01613008F483C0AF
:1001F8003090480133943092480150E050934701C1
:1002080060913A01613008F442C03090470133945C
:100218003092470160914701C09124016C1789F41D
:1002280050911A0150931E0150911B0150931F01C8
:1002380050911C015093200150911D0150932101B0
:100248001EC060912F01613051F450E050931E019F
:1002580050931F01509320015093210110C05091D9
:100268001A0150931E0150911B0150931F01509188
:100278001C015093200150911D015093210190D1F0
:1002880060914701C0913A016C1708F4BECF3090D5
:100298002401339430922401D6D0509132015093E6
:1002A8002201509133015093230130902201409054
:1002B80030013418132C3090230140903101340858
:1002C800232C612D722DC0914601D0E03FD10094BE
:1002D80000FE09C050912201509330015091230132
:1002E8005093310101C0D8CF60914801C0913A01C3
:1002F8006C1708F47DCF51E05093240140902501FC
:100308004394342C632DC5E02BD100922501309005
:10031800460103E0300E30924601609146016A358D
:1003280019F453E05093460140CF00C08895FECFA2
:1003380060912601C4E06C9F302C40902601340C5B
:100348003092260130903E0140902601340CA32DB6
:1003580030903F0100E0301EB32D5C9150932B018B
:1003680050E050932C0150932D0150932E01409052
:1003780026014394342C40903E01430CA42D309028
:100388003F0100E0301EB32D5C9150932C0140904A
:10039800260102E0400E342C40903E01430CA42D6F
:1003A80030903F0100E0301EB32D5C9150932D0139
:1003B8004090260103E0400E342C40903E01430C4F
:1003C800A42D30903F0100E0301EB32D5C91509376
:1003D8002E01089550E055B950E058B950E05BB986
:1003E800089560914501623019F457E05093440133
:1003F8005091440150934301089550916E0051600B
:1004080050936E0050E0509336015093370150934B
:1004180038015093390117D051E05093450153E00A
:1004280050934401DEDF56E05093420108EF45B493
:100438004022342C40904301432845BC0895A8D05D
:100448001FD0A8989DC0509140015E7F0FF4516065
:1004580050934001F89450913601509332015091D5
:100468003701509333015091380150933401509122
:100478003901509335015090400150FC789408950B
:1004880056E0509342013090360133943092360151
:100498003090370109F433943092370130903801A5
:1004A80009F43394309238013090390109F43394C7
:1004B80030923901089560912601C4E06C9F302C78
:1004C80040902601340C3092260130903E01409035
:1004D8002601340CA32D30903F0100E0301EB32DCF
:1004E800509127015C93409026014394342C40900E
:1004F8003E01430CA42D30903F0100E0301EB32D87
:10050800509128015C934090260102E0400E342C63
:1005180040903E01430CA42D30903F0100E0301E76
:10052800B32D509129015C934090260103E0400EC1
:10053800342C40903E01430CA42D30903F0100E044
:10054800301EB32D50912A015C9308950024D717CB
:1005580030F07D1718F06C1708F00895009408958E
:10056800CC2309F40895002458E0552E660F001C8A
:100578000C1A616010F46E7F0C0E5A94B9F7089546
:1005880030903C0150913B015FBF50913D0118955F
:1005980050933D015FB750933B0130923C01089561
:1005A80058E1509341015090200157FE02C05A9AD9
:1005B80002C05A9A5A9850911E01551F50931E0115
:1005C80050911F01551F50931F0150912001551F35
:1005D8005093200150912101551F509321015A98A1
:1005E800309041013A9430924101E9F608955A9ABF
:1005F8005A98AAE090E09A95F1F7AA95D9F790E66B
:080608009A95F1F700C0089576
:00000001FF
