:020000020000FC
:0200000033C00B
:0200040018954D
:02000800189549
:02000C00189545
:02001000189541
:0200140018953D
:02001800189539
:02001C00189535
:02002000189531
:0200240018952D
:02002800189529
:02002C00189525
:02003000189521
:0200340018951D
:02003800189519
:02003C00189515
:02004000189511
:0200440018950D
:02004800189509
:02004C00189505
:02005000189501
:020054001895FD
:020058001895F9
:02005C001895F5
:020060001895F1
:020064001895ED
:1000680058E05EBF5FEF5DBF32D238D2C8D1A0D1B1
:10007800F1E0BFD1C0E0D1E0E8ECF7E089D350E08F
:100088005093270151E05093280153D3F1E0B1D1A7
:1000980051E050931F0150E050931D0128D3C0E058
:1000A800D1E0E4EDF7E074D350E05093270151E03C
:1000B800509328013ED3F1E09CD17AD150E050937F
:1000C8001F0150E050931D0112D3C0E0D1E0E0EED3
:1000D800F7E05ED350E05093270151E05093280198
:1000E80028D351E050931F0150E050931D01FFD2D7
:1000F8005AE050931E0127D2F1E07BD159D15DE03F
:1001080050931E0120D250E050931F0150E05093AD
:100118001D01EDD2C0E0D1E0EAEEF7E039D350E0BE
:100128005093270151E05093280103D3F1E061D1A6
:100138003FD150E050931F0150E050931D01D7D29A
:10014800C0E0D1E0E6EFF7E023D350E05093270179
:1001580051E050932801EDD251E050931F0150E037
:1001680050931D01C4D259E050931E01ECD1F1E027
:1001780040D11ED150E050931F0150E050931D0113
:10018800B6D2C0E0D1E0E0E0F8E002D350E050930E
:10019800270151E050932801CCD25EE050931E0114
:1001A800D2D1F1E026D150E050931F0150E0509396
:1001B8001D019DD2C0E0D1E0EAE0F8E0E9D250E0CC
:1001C8005093270151E050932801B3D251E0509346
:1001D8001F0150E050931D018AD25AE050931E012E
:1001E800B2D159E050931E01AED1F1E002D150E0F6
:1001F80050931F0150E050931D0179D2C0E0D1E027
:10020800EAE1F8E0C5D250E05093270151E050935D
:1002180028018FD251E050931F0150E050931D01E7
:1002280066D25DE050931E018ED15EE050931E01B0
:100238008AD1F1E0DED0BCD050E050931F0154E0E9
:1002480050931D0154D2C0E0D1E0ECE2F8E0A0D216
:1002580050E05093270151E0509328016AD251E0B1
:1002680050931F0154E050931D0141D2C0E0D1E0EA
:10027800E6E3F8E08DD250E05093270151E0509327
:10028800280157D2D4EFE1E0A8D05AE050932A01D0
:100298005BE050931E0157D1D4E6E0E09ED05CE0CD
:1002A80050931E0150D1D4E6E0E097D010902A0177
:1002B8001A9410922A0161F77BD050E050931F01E5
:1002C80050E050931D0113D2C0E0D1E0EEE3F8E016
:1002D8005FD250E05093270151E05093280129D272
:1002E80051E050931F0150E050931D0100D2C0E02F
:1002F800D1E0EAE4F8E04CD250E05093270151E015
:100308005093280116D2F1E074D05BE050931E019F
:100318001AD1F2E06ED04CD050E050931F0150E05B
:1003280050931D01E4D15CE050931E010CD15BE1B8
:10033800509312015BE15093130150E05093140164
:1003480054E05093150150E05093160151E1509339
:10035800170151E1509318015EE05093190128D01C
:1003680050E050931C0151E15093250151E0509306
:100378002601B7D050E050931B01B2D1F1E039D03B
:1003880051E050931F0150E050931D01B0D1C0E0DF
:10039800D1E0E4E5F8E0FCD150E05093270151E0CA
:1003A80050932801C6D1F1E024D061CE8895FECFC4
:1003B800289851E050931A012BD1D4E0E0E00DD0F9
:1003C80050E850931A0124D1BCE000C094E39A95F8
:1003D800F1F70000BA95D1F70895E395AEEF94E1EF
:1003E8009A95F1F7AA95D9F7DA95C1F7EA95B1F791
:1003F8000895D8EEE3E0F1DFFA95D9F70895209A49
:10040800219ADAE0E0E0E9DF63D1109020011120C1
:10041800D9F32898549A559A569A579ADFE0E0E00B
:10042800DCDF5C9A5D9A5E985F989AE09A95F1F79E
:1004380000C0299A9AE09A95F1F700C02998D5E06A
:10044800E0E0CBDF53E050932B01299A9AE09A958C
:10045800F1F700C02998A4E090E09A95F1F7AA95E1
:10046800D9F796E29A95F1F700C020902B012A94CB
:1004780020922B0151F7D5E0E0E0AFDF5C985D9A60
:100488005E985F989AE09A95F1F700C0299A9AE0E9
:100498009A95F1F700C02998A1E090E09A95F1F7B4
:1004A800AA95D9F799E09A95F1F700C058E25093C8
:1004B8001A01AED056E050931A01AAD05CE05093CE
:1004C8001A01A6D075DF5CE050932201089550E030
:1004D80055B950E058B950E05BB908955098519A11
:1004E8000895289860911C01C8E06C9F102C00E4C6
:1004F800100E10921A018CD0B5E068DF289A50E0EF
:100508005093210110902101139410922101109011
:10051800250120902101120CA12D1090260100E048
:10052800101EB12D5C9150931A0172D0B5E04EDFC8
:1005380060912101683030F3289850E850931A01EF
:1005480067D0B5E043CF289860911E01613031F43F
:100558000CE010902201102A1092210160911E01D6
:100568006C3031F40CE010902201102A1092210115
:1005780060911E01662331F40BE0109022011022D5
:100588001092210160911E016B3031F40BE0109044
:10059800220110221092210160911E016A3031F46B
:1005A8000AE010902201102A1092210160911E0188
:1005B8006D3031F40DE010902201102210922101CB
:1005C80060911E01693031F409E010902201102A6F
:1005D8001092210160911E01693031F409E01090F8
:1005E8002201102A1092210160911E016E3031F40F
:1005F8000EE0109022011022109221015091210149
:1006080050931A0105D05091210150932201089569
:10061800549A559A569A579A5C985D985E985F983E
:1006280050901A0157FC5F9A50901A0156FC5E9A36
:1006380050901A0155FC5D9A50901A0154FC5C9A2E
:1006480095E09A95F1F70000299A9AE09A95F1F7C2
:1006580000C029989AE09A95F1F700C05C985D98D7
:100668005E985F9850901A0153FC5F9A50901A0157
:1006780052FC5E9A50901A0151FC5D9A50901A01F2
:1006880050FC5C9A95E09A95F1F70000299A9AE057
:100698009A95F1F700C029989AE09A95F1F700C069
:1006A8005F985E985D985C989AEA9A95F1F700C011
:1006B80018990DC060911A01603148F467E0C09143
:1006C8001A016C1720F450911A01509322010895D1
:1006D800DAE0E0E082DE5FEF5093200108950895AC
:1006E800289A50911B0150931A0192DF0895289877
:1006F80061E0C0911F016C1760F410901F0102E0C7
:10070800101A10921F0110901D0104E1100E109292
:100718001D0160911F01C0E46C9F002D20901D01F8
:10072800020D102E00E8102A10921A0171DFB5E0B0
:100738004DCEA0912701B09128015C9150932301DF
:1007480060912301662309F40895289A50E0509394
:100758002901609123016130D0F010902901139490
:10076800109229011090270120902901120CA12D27
:100778001090280100E0101EB12D5C9150931A01D1
:1007880047DF60912901C09123016C1730F3089568
:10079800C895602DE39509F4F395699306C0C8954B
:1007A800602DE39509F4F395960F603009F40895E8
:1007B800C895E39509F4F39509926A95C9F70895E0
:1007C8000A53544152542054455354000A4449533F
:1007D800504C4159204F4E0009437572736F722077
:1007E8004F4E0A437572736F72204F464600084693
:1007F8004C415348204F4E0009464C415348204F26
:1008080046460F4355525352202620464C53482003
:100818004F4E104355525352202620464C534820E1
:100828004F46460008466C617368696E6700074466
:100838006973706C61790B444953504C4159204F8E
:10084800464609464F5220322053454308454E44F8
:060858002054455354003A
:00000001FF
