:020000020000FC
:0200000033C00B
:0200040018954D
:02000800189549
:02000C00189545
:02001000189541
:0200140018953D
:02001800189539
:02001C00189535
:02002000189531
:0200240018952D
:02002800189529
:02002C00189525
:02003000189521
:0200340018951D
:02003800189519
:02003C00189515
:02004000189511
:0200440018950D
:02004800189509
:02004C00189505
:02005000189501
:020054001895FD
:020058001895F9
:02005C001895F5
:020060001895F1
:020064001895ED
:1000680058E05EBF5FEF5DBF0E9454080E945B08C6
:1000780077D60E9453085EE15093810150E0509377
:10008800820158E25093850150E05093860157EE63
:10009800509375015EE050937601ECD152E0509395
:1000A800490150E55093700150E05093710158ECAC
:1000B8005093720150E050937301C0E0D1E0E8E63C
:1000C800FDE10E949C0E50E05093780151E050935E
:1000D800790150E050935D0158EF50935E01D2D5FD
:1000E80055E05093700150E05093710156EE5093D3
:1000F800720150E050937301C0E0D1E0E0E7FDE108
:100108000E949C0E50E05093780151E05093790181
:1001180050E050935D0158EF50935E01B3D552E023
:1001280050935F0150E05093600152E05093630197
:1001380050E0509364015DEE5093610150E050939C
:1001480062015DE35093650151E05093660150E010
:1001580050935D0150935E017ED051E050935F0152
:1001680050E05093600151E05093630150E0509388
:1001780064015EEE5093610150E0509362015EE3CA
:100188005093650151E05093660150E050935D0132
:1001980058EF50935E015FD050E050935F01509349
:1001A800600150E050936301509364015FEE5093F7
:1001B800610150E0509362015FE35093650151E0A3
:1001C8005093660150EE50935D015FEF50935E01CE
:1001D80042D051E05093490156E15093700150E0EC
:1001E8005093710155E35093720151E0509373019C
:1001F800C0E0D1E0EEE8FDE10E949C0E50E0509393
:10020800780151E05093790150E050935D0150938B
:100218005E0138D554EC5093700150E05093710151
:1002280056E05093720150E050937301C0E0D1E062
:10023800E2ECFDE10E949C0E50E05093780151E001
:100248005093790150E050935D0150935E011AD5A7
:10025800FFCF8895FECFC0915F01D091600160917A
:100268006101709162010E94880E00FE18C05091D1
:100278005F01509352015091600150935301509186
:10028800610150935F015091620150936001509158
:100298005201509361015091530150936201C091F2
:1002A8006301D091640160916501709166010E94BB
:1002B800880E00FE18C0509163015093520150916E
:1002C800640150935301509165015093630150911B
:1002D8006601509364015091520150936501509109
:1002E80053015093660160905F0101E0601A6092CB
:1002F8003E016090600100E0600A60923F01C09199
:100308005F01D091600160916101709162010E946A
:10031800880E00FC4BC060903E01639460923E01E1
:1003280060903F0109F4639460923F0150913E014F
:100338005093540150913F015093550150916301DE
:1003480050935601509164015093570150915D01AB
:100358005093420150915E01509343010E94A80DB1
:1003680050913E015093540150913F0150935501D3
:100378005091650150935601509166015093570171
:1003880050915D015093420150915E015093430199
:100398000E94A80D60913E0170913F01C0916101DA
:1003A800D09162010E94880E00FCB5CF6090630175
:1003B80001E0601A60923E016090640100E0600A0A
:1003C80060923F01C0916301D09164016091650121
:1003D800709166010E94880E00FC4BC060903E013F
:1003E800639460923E0160903F0109F463946092C7
:1003F8003F0150915F015093540150916001509317
:10040800550150913E015093560150913F01509330
:10041800570150915D015093420150915E015093F4
:1004280043010E94A80D50916101509354015091CD
:1004380062015093550150913E01509356015091DD
:100448003F015093570150915D01509342015091E3
:100458005E01509343010E94A80D60913E01709186
:100468003F01C0916501D09166010E94880E00FC91
:10047800B5CF089551E050937D0150E050937E012F
:100488006091750170917601C7EEDEE00E94810EE1
:1004980000FE2CC0A0917D01B0917E010E94E70E64
:1004A80000926B01A0917D01B0917E010E942620EF
:1004B80000926C0160907D01639460927D01609070
:1004C8007E0109F4639460927E01A0917D01B09150
:1004D8007E010E94E70E00926901A0917D01B09112
:1004E8007E010E94262000926A019FC060917501DA
:1004F80070917601C6E6D1E30E94810E00FE1EC00F
:10050800A0917D010E94663100926B0150E05093EA
:100518006C0160907D01639460927D0160907E0122
:1005280009F4639460927E01A0917D010E94663176
:100538000092690150E050936A0177C0609175019B
:1005480070917601C1E7D1E30E94810E00FE1EC0C2
:10055800A0917D010E94713100926B0150E050938F
:100568006C0160907D01639460927D0160907E01D2
:1005780009F4639460927E01A0917D010E9471311B
:100588000092690150E050936A014FC06091750173
:1005980070917601CCE7D1E30E94810E00FE1EC067
:1005A800A0917D010E947C3100926B0150E0509334
:1005B8006C0160907D01639460927D0160907E0182
:1005C80009F4639460927E01A0917D010E947C31C0
:1005D8000092690150E050936A0127C0609175014B
:1005E80070917601C7E8D1E30E94810E00FE1DC01C
:1005F800A0917D010E94873100926B0150E05093D9
:100608006C0160907D01639460927D0160907E0131
:1006180009F4639460927E01A0917D010E94873164
:100628000092690150E050936A0153E050937D01B4
:1006380050E050937E015FEF5093890150938A01F7
:100648008090690101E0801A682C80906A0100E0BE
:10065800800A782CC0E0D0E0662D772D0E94880EA5
:1006680000FC00C1609089016394609289016090E8
:100678008A0109F4639460928A015FEF50938701BD
:100688005093880180906B0101E0801A682C80905B
:100698006C0100E0800A782CC0E0D0E0662D772D50
:1006A8000E94880E00FCCAC0609087016394609223
:1006B80087016090880109F46394609288016091D1
:1006C800750170917601C7EEDEE00E94810E00FE92
:1006D80011C0A0917D01B0917E010E94E70E0092A9
:1006E8006E01A0917D01B0917E010E9426200092AA
:1006F8006F014FC06091750170917601C6E6D1E334
:100708000E94810E00FE0AC0A0917D010E94663100
:1007180000926E0150E050936F013BC060917501EB
:1007280070917601C1E7D1E30E94810E00FE0AC0F4
:10073800A0917D010E94713100926E0150E05093AA
:100748006F0127C06091750170917601CCE7D1E304
:100758000E94810E00FE0AC0A0917D010E947C319A
:1007680000926E0150E050936F0113C060917501C3
:1007780070917601C7E8D1E30E94810E00FE09C09E
:10078800A0917D010E94873100926E0150E0509344
:100798006F0160907D01639460927D0160907E019D
:1007A80009F4639460927E016090810180908701D2
:1007B800680C60927F016090820180908801681CBB
:1007C800609280016090850180908901680C609238
:1007D80083016090860180908A01681C6092840180
:1007E80050917F01509354015091800150935501CD
:1007F80050918301509356015091840150935701B1
:1008080050916E015093420150916F0150934301F2
:100818000E94A80D80906B0101E0801A682C8090DE
:100828006C0100E0800A782C609187017091880142
:10083800C62DD72D0E94880E00FC36CF8090690106
:1008480001E0801A682C80906A0100E0800A782C08
:100858006091890170918A01C62DD72D0E94880E5A
:1008680000FC00CF0895E395AEEF94E19A95F1F777
:10087800AA95D9F7DA95C1F7EA95B1F7089550E046
:10088800509358015093590150E050938B01509365
:100898008C0150E050938F01509390014090460195
:1008A80001E0401A40928D014090470100E0400A63
:1008B80040928E014090440101E0401A409291011B
:1008C8004090450100E0400A409292010E94480E83
:1008D8005091400150935B015091410150935C014C
:1008E8004398429A409A52E050937A0150E05093CC
:1008F8007B0156E950937C01419A03E06BB060227A
:10090800462C0CEF80905C018022682C64286BB820
:100918000CEF65B06022462C03E080905C018022D9
:10092800682C642865B84198419A03E06BB060224E
:10093800462C0CEF80905B018022682C50E0752ECD
:1009480064286BB80CEF65B06022462C03E08090F9
:100958005B018022682C50E0752E642865B84198A8
:1009680060907B0170907C016A9460927B0121F613
:100978007A9470927C0109F0BFCF40907A014A9432
:1009880040927A0109F0B2CF439A419A03E06BB0E2
:100998006022462C0CEF80905C018022682C642831
:1009A8006BB80CEF65B06022462C03E080905C01C8
:1009B8008022682C642865B84198419A03E06BB09E
:1009C8006022462C0CEF80905B018022682C50E05E
:1009D800752E64286BB80CEF65B06022462C03E0D6
:1009E80080905B018022682C50E0752E642865B8E1
:1009F8004198419A0895609033010FE0601A60921F
:100A0800330150E05093340150933501609149010E
:100A1800613001F56090330100E1601A60923301A2
:100A2800A091330135D400926701A09133016CD4B1
:100A380000926801A0916701B09168013BD30092D0
:100A48003A0160903A01639460924A0157E05093EA
:100A580074011BC0609149016230B9F460903301A0
:100A680001E1601A609233016091330170E0C4E1E2
:100A7800D0E00E94920E009267011092680159E03E
:100A880050933A015FE0509374015FEF50933B013C
:100A980060913A01603008F4F4C060903B016394BF
:100AA80060923B0160906701639460926701609077
:100AB800680109F4639460926801609149016130AA
:100AC80041F4A0916701B0916801F4D200923D0110
:100AD8000BC060914901623039F4A0916701B0916F
:100AE80068014ED400923D015FEF50933C01609144
:100AF8007401603008F4BEC060903C016394609259
:100B08003C0150903D0150FC24C06090360180901B
:100B18003B01680C609254016090370100E0601E50
:100B2800609255016090380180903C01680C609299
:100B380056016090390100E0601E609257015091A3
:100B48004001509342015091410150934301FCD719
:100B580023C06090360180903B01680C609254017C
:100B68006090370100E0601E609255016090380186
:100B780080903C01680C609256016090390100E059
:100B8800601E6092570150915D015093420150914F
:100B98005E0150934301D8D750913D01579550932A
:100BA8003D0160914901C2E00E947C0E602C609179
:100BB8003C01C7E00E947C0E002D0621802E80FE9D
:100BC80012C0609067016394609267016090680149
:100BD80009F4639460926801A0916701B09168017B
:100BE800CFD300923D0160913B01C0913A016C174F
:100BF800D1F56090360180903B01680C60925201FB
:100C08006090370100E0601E6092530160914901D5
:100C1800623059F46090520163946092520160907E
:100C2800530109F463946092530150915201509317
:100C380054015091530150935501609038018090B0
:100C48003C01680C609256016090390100E0601E1A
:100C580060925701509140015093420150914101D7
:100C68005093430171D760913C01C09174016C1796
:100C780008F442CF60913B01C0913A016C1708F427
:100C88000CCF0895A0917801B09179015C915093AF
:100C98004D0160914D01662309F4089550914A0170
:100CA80050936D015091700150934E015091710114
:100CB80050934F0150E05093500160914D016130C5
:100CC80008F449C0609050016394609250015091BB
:100CD8004E015093360150914F0150933701509176
:100CE800720150933801509173015093390160900B
:100CF800780180905001680CA62D6090790100E081
:100D0800601EB62D5C915093330175DE60914A01E7
:100D1800C09149016C9F602C00914E01060D802EF8
:100D280060904F0100E0601E962C00914901800EF2
:100D3800682C00E0901E792C01E0601A60924E0148
:100D480000E0700A70924F0160915001C0914D010E
:100D58006C1708F4B7CF50916D0150934A0108956C
:100D6800579A569A559A549A539A529A219A209A6F
:100D7800389A399A3A9A3B9A3C9A409A419A429AB6
:100D8800439A449AD2E3E0E06EDD449ADFE0E0E083
:100D98006ADD449890E59A95F1F7449ADFE0E0E03F
:100DA80062DD5FEE50935A01F9D653E050935A0131
:100DB80013D750E850935A010FD752E050935A0175
:100DC8000BD75FEC50935A01E9D650E050935A0183
:100DD80003D751EC50935A01FFD650E350935A0170
:100DE800FBD65DEE50935A01D9D654E650935A017A
:100DF800F3D653E050935A01EFD652E150935A017B
:100E0800EBD651E850935A01E7D658EE50935A0161
:100E1800C5D655E850935A01DFD650E050935A0191
:100E2800DBD658E750935A01D7D65BEC50935A015A
:100E3800B5D659E350935A01CFD65CE250935A0184
:100E4800CBD650E050935A01C7D654E350935A0179
:100E5800C3D652E050935A01BFD657EF50935A0168
:100E68009DD650E250935A01B7D65AEE50935A0184
:100E780095D650E050935A01AFD650E050935A019E
:100E8800ABD650EC50935A0189D65BE250935A0185
:100E9800A3D651EC50935A0181D650E150935A0190
:100EA8009BD655EC50935A0179D65EE350935A017C
:100EB80093D658E250935A018FD657EC50935A0163
:100EC8006DD656E850935A0187D656E350935A0187
:100ED80065D658E450935A017FD65AE350935A0185
:100EE8005DD655E550935A0177D651EB50935A0188
:100EF80055D650E050935A016FD658E150935A0195
:100F08006BD656EB50935A0149D658E050935A0184
:100F180063D652E850935A015FD657E250935A016C
:100F28005BD652EF50935A0139D650E050935A018C
:100F380053D656E250935A0131D651E050935A0194
:100F48004BD650EE50935A0129D65FE050935A0180
:100F580043D651E350935A013FD65BE250935A016E
:100F68003BD65CE050935A0137D65EE050935A0165
:100F780033D658E050935A012FD65EE450935A0165
:100F88002BD651EF50935A0127D657E350935A0165
:100F980023D657E050935A011FD650E150935A0177
:100FA8001BD653E050935A0117D65EE050935A016E
:100FB80013D659E050935A010FD650E050935A0176
:100FC8000BD651EE50935A01E9D550E050935A018F
:100FD80003D65EE050935A01FFD554E150935A016D
:100FE800FBD553E050935A01F7D551E150935A017C
:100FF800F3D557E050935A01EFD551E350935A0176
:10100800EBD551EC50935A01E7D558E450935A0167
:10101800E3D558E050935A01DFD55FE050935A0169
:10102800DBD55CE050935A01D7D551E350935A0170
:10103800D3D556E350935A01CFD55FE050935A0168
:10104800CBD551E150935A01A9D5D6E9E0E00BDCA4
:1010580059E250935A01A2D55FEF50934001509343
:1010680041015FEF50934B0150934C0150EF509367
:10107800460150E05093470150E45093440151E039
:101088005093450155E050934A0150E05093480170
:1010980051E05093490154E050935101F0CB089529
:1010A80050E055B950E058B950E05BB908955098F0
:1010B800519A08956A2F7B2FC5EAD1E025D600FE04
:1010C8000895E6EDF0E1EA0FFB1FC8950895A50124
:1010D80000015E0306000605287C287C2805242AD2
:1010E8007F2A100362184605304C5A245001060224
:1010F8003C4202423C0528107C102803103810019D
:10110800C003101010014003601806043C42423C22
:1011180003447E40044462524C034A4A34041E107D
:101128007C10034E4A32043C4A4A300362120E04D1
:10113800344A4A34040C52523C0148028068031075
:10114800284403282828034428100302520C053891
:1011580044545458047C12127C047E4A4A34043C99
:10116800424224047E42423C037E4A4A037E0A0AE3
:10117800043C425234047E08087E03427E42034205
:10118800423E047E081462037E4040057E04080443
:101198007E057E0418207E043C42423C047E1212E6
:1011A8000C043C4242BC047E12126C04444A4A308D
:1011B80003027E02043E40403E05061860180605FC
:1011C8003E403E403E054224182442049EA0A07E94
:1011D8000462524A46027E420306186002427E03B7
:1011E8002010200480808080020408042054547851
:1011F800047E4444380438444428043844447E0473
:1012080038545458027C0A0498A4A47C047E04042C
:1012180078017A02403A047E102844017E057C0455
:10122800780478047C040478043844443804FC24A2
:10123800241804182424FC027C0404485454200371
:10124800043E44043C40403C050C3040300C053C16
:10125800403C403C054428102844049CA0A07C0342
:1012680064544C0308364101FF034136080420103A
:10127800201001006A2F7B2FC1E0D0E045D500FE89
:101288000895E6E9F2E1EA0FFB1FC8950895010009
:10129800A13610F000240895EEEAF2E1EA0F08F40E
:1012A800F395C895089560010305090F15191F21C5
:1012B80024272D313337393D42464B4F54585D6111
:1012C800666B6D7074787C80868B90959A9EA2A7C9
:1012D800ACB0B4B9BDC3C9CED3D8DDE2E6EBF1F703
:1012E800FD02070A0E11151A1D22272C3136393E28
:1012F8004345484D4F555A5F64696C71757A8086CD
:101308008C9195999B9FA400A13610F00024089514
:10131800E6E2F3E1EA0F08F4F395C89508950000B2
:1013280000000000000000000000000000000000B5
:1013380000000000000000000000000000000000A5
:101348000000000000000000000000000000000095
:10135800000000000000000000010101010101017E
:101368000101010101010101010101010101010165
:101378000101010101010101010101010101010056
:101388006A2F7B2FC1E9D7E0BFD400FE0895E2EAB7
:10139800F3E1EA0FFB1FC8950895930000000000D1
:1013A8000000000000000000000000000000000035
:1013B80000000000000000FE1B000000000000000C
:1013C800000000000000001E000000000000001ED9
:1013D8000000000000000000012019A00778012685
:1013E80019A0077801260120010000000000001C58
:1013F8001826104210FF3F8211020F000000001C47
:10140800102208220422039C00400E301108110407
:1014180011020E000780085C106210A21132131C22
:101428001C00180016800100000000000000001ECB
:1014380000000000000000000000000000000000A4
:1014480000E00718180C3004200240024000000099
:10145800000240024004200C301818E00700000089
:10146800000000000008001800F0004E00F000180E
:10147800000800000000000002000200020002E074
:101488001F0002000200020002000000000000002D
:101498000000980078000000000000000000000034
:1014A800000000000100010001000100010001002E
:1014B80000000000000000000000180018000000F4
:1014C80000000000000000000000400030000C0098
:1014D80003C00030000C00020000000000F0030C04
:1014E8000C0210021002100C0CF0030000000000A7
:1014F80000041004100410FE1F001000100010005B
:1015080000000000000618021402120211C2103C6A
:10151800100000000000000000000002104210420D
:10152800104210BC0F0000000000000003C00220A1
:101538000218020402FE1F00020002000000000060
:101548000000003E1022102210420882070000000E
:101558000000000000F0074C082210221022104260
:10156800088007000000000000020002180207C2FD
:101578000032000A0006000000000000001C0FA254
:101588001042104210A210A2091C06000000000020
:101598000078008410021102110211840CF8030073
:1015A8000000000000000000006018601800000043
:1015B80000000000000000000000000000609860CB
:1015C800780000000000000000000000000000009B
:1015D8000300038004800440084008201000000035
:1015E80000800480048004800480048004800480D7
:1015F8000400000000201040084008800480040017
:101608000300030000000000000E000200021B821D
:1016180000420026001C0000000000F003180C0423
:1016280018E21312140A168A1BFC070004000400AF
:1016380010000E8003700218023002C0020003007E
:101648000C00100000F81F881088108810881048B7
:1016580011300E00000000C003300C1008081008FC
:1016680010081008101810000000000000F81F08EB
:10167800100810081008101008E00700000000000B
:1016880000F81F08110811081108110811081000A6
:101698000000000000F81F080108010801080108FF
:1016A800010800000000000000C003300C1008080A
:1016B80010081008110811181F00000000F81F007A
:1016C800010001000100010001F81F0000000000F6
:1016D80000081008100810F81F081008100810005B
:1016E800000000000000000010081008100810F8A2
:1016F8000F0000000000000000F81F80008001407B
:1017080002200410040808001000000000F81F0060
:10171800100010001000100010001000000000F869
:101728001F3800E00100070006C0013800F81F005C
:101738000000000000F81F10006000800100060093
:1017480008F81F000000000000E007100808100853
:1017580010081008101008E00700000000F81F0823
:10176800010801080108018800700000000000005D
:1017780000E007100808100810081008301048E0AA
:101788004700000000F81F080108010803880470DA
:101798000800100000000000007018481088108829
:1017A8001008110809180E000000000800080008B9
:1017B800000800F81F0800080008000800000000E2
:1017C80000F80700180010001000100008F80700C3
:1017D80000000008003000C00100060018001800D2
:1017E80007C000300008001800E003001C000FE0EC
:1017F80000C001000E001CE00318000810100820AB
:1018080004400280018001400220041008081008EA
:1018180000100060008000001F80004000200010C1
:101828000008000000081808140812081188104859
:1018380010281018100000000000000000FE7F02B1
:101848004002400240024000000000000002000C7C
:10185800003000C0000003000C0030004000000011
:10186800000240024002400240FE7F0000000000EB
:10187800000000000000040003E00038000E0070C3
:101888000080030004000000200020002000200049
:101898002000200020002000200020000000000080
:1018A800000000010002000000000000000000002D
:1018B80000000C2012201120112009C01F00100068
:1018C8000000000000FE1F400820102010201060BB
:1018D8000880070000000000008007400820102052
:1018E8001020102010201000000000000080074089
:1018F800182010201020104008FE1F0000000000D3
:1019080000800740092011201120112011C011006A
:10191800000000000020002000FC1F2400220022FC
:10192800002200220000000000800740982090203C
:101938009020904048E03F000000000000FE1F801B
:10194800004000200020002000C01F000000000010
:1019580000200020002600E61F0000000000000014
:1019680000000000000080208020802680E67F00A4
:10197800000000000000000000FE1F0001000380BE
:10198800044004400820100000000000000000028D
:101998000002000200FE1F0000000000000000E03E
:1019A8001F400020002000C01F400020002000C071
:1019B8001F00000000E01FC00040002000200020A1
:1019C80000C01F0000000000008007400820102011
:1019D80010201040088007000000000000E0FF40D1
:1019E8000820102010201060088007000000000068
:1019F80000800740182010201020104008E0FF0049
:101A080000000000000000E01F80004000200020CF
:101A180000E000000000000000C018201120112084
:101A2800122012200C0000000000000000200020FE
:101A380000F80F20102010201020100000000000D7
:101A480000E00F0010001000100008E01F00000068
:101A58000000002000C001000600180010000C0063
:101A680003C00020000000600080070018000EC0BE
:101A7800018001000E00188007600000002010405F
:101A880008800400030003800440082010000020A0
:101A980080C080008300460038001800060001C09E
:101AA800002000000020102018201420122011A06F
:101AB800106010201000000000000000010001FC70
:101AC8003E0240024002400000000000000000000A
:101AD800000000FE7F000000000000000000000081
:101AE800000000024002400240FC3E0001000100EC
:101AF8000000000003800080008000000100010059
:101B0800020002000280010000801FC01020101097
:101B1800102010C010801F00000000C003300C10FF
:101B28000808100810089008B018D0006A2F7B2FFA
:101B3800C1E0D0E0E9D000FE0895EEE4FBE1EA0F51
:101B4800FB1FC895089507005091540150938B01CD
:101B58005091550150938C015091560150938F012B
:101B680050915701509390015091540150938D0119
:101B78005091550150938E01509156015093910107
:101B880050915701509392017FD050914201509348
:101B98005B015091430150935C013CC043984298CB
:101BA800409A419A03E06BB06022462C0CEF80907B
:101BB8005A018022682C64286BB80CEF65B060224B
:101BC800462C03E080905A018022682C642865B86E
:101BD8004198419A439A08954398429A409A419A63
:101BE80003E06BB06022462C0CEF80905A018022F3
:101BF800682C64286BB80CEF65B06022462C03E0B3
:101C080080905A018022682C642865B84198419ACE
:101C1800439A08954398429A409A419A03E08BB0B8
:101C28008022682C0CEF40905C014022842C86288E
:101C38008BB80CEF65B06022462C03E080905C0105
:101C48008022682C642865B84198419A03E06BB0FB
:101C58006022462C0CEF80905B018022682C50E0BB
:101C6800752E64286BB80CEF65B06022462C03E033
:101C780080905B018022682C50E0752E642865B83E
:101C88004198419A439A08955AE250935A0186DF3F
:101C980050918C0150935A019FDF50918B015093C2
:101CA8005A019ADF50918E0150935A0195DF509155
:101CB8008D0150935A0190DF5BE250935A016EDF19
:101CC8005091900150935A0187DF50918F015093A2
:101CD8005A0182DF5091920150935A017DDF509151
:101CE800910150935A0178DF5CE250935A0156CF24
:101CF80000246C1308950094089500246C1719F4B7
:101D08007D1709F4009408950024D71730F07D1743
:101D180018F06C1708F00895009408956C9F202C13
:101D2800312C6D9F300C7C9F300C022C132C0895A5
:101D3800C895602DE39509F4F395699306C0C89595
:101D4800602DE39509F4F395960F603009F4089532
:101D5800C895E39509F4F39509926A95C9F708952A
:101D680007494C49393334311C554E4F204156529E
:101D78002047726170686963616C204C434420534A
:101D88006869656C640032477265617420436F77D7
:101D9800204241534943206120636F6D70696C652F
:101DA8007220666F72204D6963726F636869702074
:101DB800415652202620504943000A417072696CEE
:101DC8002032303139006A2F7B2FC3E6D2E29CDF04
:101DD80000FE0895E8EEFDE1EA0FFB1FC89508959F
:101DE80062B032FFFFFFFFFFFFFFFFFFFFFFFFFFB4
:101DF800FFFFFFFFFFFFFFFFFFFFFFFFFFFFFFFFEB
:101E0800FFFFFFFFFFFFFFFFFFFFFFFFFFFFFFFFDA
:101E1800FFFFFFFFFFFFFFFFFFFFFFFFFFFFFFFFCA
:101E2800FFFFDEFFFFFFFFFFFFFFFFFFDFDFBFBE9C
:101E38009E9E7D3D1C1C1CFCDB9A7939F796551437
:101E4800D39292B0114E8F4E8B2DAB096A6AC86639
:101E5800676625E4E4E4C4E425476787C86B094A54
:101E6800EDAC4E4FD01152D43576D7399BFC3D5D41
:101E78005D7E9EDFDFDFDFDFDFFFFFFFFFFFFFFFAE
:101E8800FFFFFFFFFFFFFFFFFFDFFFFFFFFFFFFF7A
:101E9800FFFFFFFFFFFFFFFFFFFFFFFFFFFFFFFF4A
:101EA800FFFFFFFFFFFFFFFFFFFFFFFFFFFFFFFF3A
:101EB800FFFFFFFFFFFFFFFFFFFFFFFFFFFFFFFF2A
:101EC800FFFFFFFFFFFFFFFFFFDEFFFFFFFFFFFF3B
:101ED800FFFFFFFFFFFFFFFFFFFFFFBE7DBB39B71F
:101EE8001492304DCB49C7664545252504E4E4E402
:101EF800E4E4C4A383A38383A3638362624242228C
:101F0800222201010121010101222222224222630F
:101F18006322426363838383A3A483C4258729EC54
:101F2800AF72F4B759FC5D7E7D9EBEBFDFDFDFDF99
:101F3800FFFFFFFFDEFFFFFFFFFFFFFFFFFFFFFFCA
:101F4800FFFFFFFFFFFFFFFFFFFFFFFFFFFFFFFF99
:101F5800FFFFFFFFFFFFFFFFFFFFFFFFFFFFFFFF89
:101F6800FFFFFFFFFFFFFFFFFFFFFFFFFFFFFFFF79
:101F7800FFFFFFFFDEFFFFFFFFFFFFFFFFFFFFFF8A
:101F8800FFFFFFFFFFFFFFFFFFFFFFBE9E1CFBBA27
:101F98005939D7D796765514D39251F0AF4EEC8B6A
:101FA80029A76604E3E3C3C3C36262634222220231
:101FB80002020202010102022202010122020201BE
:101FC8000222222222222201224342424342434247
:101FD800426283A383C4866AAED3B6DB3C7E9EDEB0
:101FE800DEFFFFFFFFFFDFDFFFFFFFFFFFFFFFFF5A
:101FF800FFFFFFFFFFFFFFFFFFFFFFFFFFFFFFFFE9
:10200800FFFFFFFFFFFFFFFFFFFFFFFFFFFFFFFFD8
:10201800FFFFFFFFFFFFFFFFFFFFFFFFFFFFFFFFC8
:10202800FFFFFFFFFFFFFFDEFFFFFFFFFFFFFFFFD9
:10203800FFFFFFFFFFFFFFFFFFFFFFFFFFDFDFDF08
:10204800BEBFBEBFBEBEBEBE9E9E7E7E7E5E5D5DC8
:102058003D3D1C9A79D7961472108ECC4AA80584F7
:102068008383636342636342224243222201010164
:102078000122010102010122020101020101010202
:1020880002010101010101426282A3C4E84ED45950
:102098005D9D9DBEDFDFFFDFDFFFFFFFFFFFFFFF6F
:1020A800FFFFFFFFFFFFFFFFFFFFFFFFFFFFFFFF38
:1020B800FFFFFFFFFFFFFFFFFFFFFFFFFFFFFFFF28
:1020C800FFFFFFFFFFFFFFFFFFFFFFFFFFFFFFFF18
:1020D800FFFFFFFFFFFFFFFFDEFFFFFFFFFFFFFF29
:1020E800FFFFFFFFFFFFFFFFFFFFFFFFFFFFFFDF18
:1020F800DFDFDFDFDFDFDFDFDFDFDFDFDFDFDEDEEA
:10210800DEDFBEBF9EBFBE9E9E9E7E9E7E7E3DDC67
:102118007AD83592F02D4966C4838363222242011E
:10212800010101010201010202012202020202016F
:1021380002010202020202020222424222224363F6
:10214800E4CBD39A7DBEBFFFFFFFFFFFFFFFFFFF7A
:10215800FFFFFFFFFFFFFFFFFFFFFFFFFFFFFFFF87
:10216800FFFFFFFFFFFFFFFFFFFFFFFFFFFFFFFF77
:10217800FFFFFFFFFFFFFFFFFFFFFFFFFFFFFFFF67
:10218800FFFFFFFFFFFFDEFFFFFFFFFFFFFFFFFF78
:10219800FFFFFFFFFFFFFFFFFFFFFFFFFFFFFFFF47
:1021A800FFFFFFFFFFFFFFFFFFFFFFFFFFFFFFFF37
:1021B800FFFFFFFFDFFFFFFFFFFFFFFFFFFFFFFF47
:1021C800DFDFBFBE9E7E7D3D9BD83511CCA7C462A4
:1021D8008383626342424322020202020202020233
:1021E80002020102020202020202020202020202C8
:1021F800224282E328F43C9E9EDEFFFFFFFFFFFFA2
:10220800FFFFFEFFFFFFFFFFFFFFFFFFFFFFFFFFD7
:10221800FFFFFFFFFFFFFFFFFFFFFFFFFFFFFFFFC6
:10222800FFFFFFFFFFFFFFFFFFFFFFFFFFFFFFFFB6
:10223800FFFFFFFFFFFFFFFFFFFFFFFFFFFFFFFFA6
:10224800FFFFDEFFFFFFFFFFFFFFFFFFFFFFFFFFB7
:10225800FFFFFFFFFFFFFFFFFFFFFFFFFFFFFFFF86
:10226800FFFFFFFFFFFFFFFFFFFFFFFFFFFFFFFF76
:10227800FFFFFFDFDFDFDFDFBEBE9E9E7E7EFC5AF4
:1022880097736F0925A363424222010201010101EC
:102298000202020102020202020202020202020217
:1022A800020222224262C42D395DBEDFFFFFFFFF1A
:1022B800FFFFFEFFFFFFFFFFFFFFFFFFFFFFFFFF27
:1022C800FFFFFFFFFFFFFFFFFFFFFFFFFFFFFFFF16
:1022D800FFFFFFFFFFFFFFFFFFFFFFFFFFFFFFFF06
:1022E800FFFFFFFFFFFFFFFFFFFFFFFFFFFFFFFFF6
:1022F800FFFFDEFFFFFFFFFFFFFFFFFFFFFFFFFF07
:10230800FFFFFFFFFFFFFFFFFFFFFFFFFFFFFFFFD5
:10231800FFFFFFFFFFFFFFFFFFFFFFFFFFFFFFFFC5
:10232800FFFFFFFFFFFFFFFFFFFFFFFFFFFFDFDFF5
:10233800BFBF9E5DFB18F4AF29E48362624242424C
:102348002202020201010202020202020202020247
:102358000202020201222242836AF87EBFDFFFFFE7
:10236800FFFFFEFFFFFFFFFFFFFFFFFFFFFFFFFF76
:10237800FFFFFFFFFFFFFFFFFFFFFFFFFFFFFFFF65
:10238800FFFFFFFFFFFFFFFFFFFFFFFFFFFFFFFF55
:10239800FFFFFFFFFFFFFFFFFFFFFFFFFFFFFFFF45
:1023A800FFFFDEFFFFFFFFFFFFFFFFFFFFFFFFFF56
:1023B800FFFFFFFFFFFFFFFFFFFFFFFFFFFFFFFF25
:1023C800FFFFFFFFFFFFFFFFFFFFFFFFFFFFFFFF15
:1023D800FFFFFFFFFFFFFFFFFFFFFFFFFFFFFFFF05
:1023E800FFDFDFDFBFBF9F9F7E1D5AD46EA7A38389
:1023F8004302020122020102020222022201020217
:1024080002020201010222224262A28ABB9EDFFF6F
:10241800FFFFFFFFFFFFFFFFFFFFFFFFFFFFFFFFC4
:10242800FFFFFFFFFFFFFFFFFFFFFFFFFFFFFFFFB4
:10243800FFFFFFFFFFFFFFFFFFFFFFFFFFFFFFFFA4
:10244800FFFFFFFFFFFFFFFFFFFFFFFFFFFFDEFFB5
:10245800FFFFFFFFFFFFFFFFFFFFFFFFFFFFFFFF84
:10246800FFFFFFFFFFFFFFFFFFFFFFFFFFFFFFFF74
:10247800FFFFFFFFFFFFFFFFFFFFFFFFFFFFFFFF64
:10248800FFFFFFFFFFFFFFFFFFFFFFFFFFFFDEFF75
:10249800FFFFFFFFFFFFFFDFFFDF9EBE9E5D7AB3FA
:1024A800AC266362422222220201010101020201DA
:1024B800020202010102020201012182A3567EDF0B
:1024C800FFFFFFFFFFFFFFFFFFFFFFFFFFFFFFFF14
:1024D800FFFFFFFFFFFFFFFFFFFFFFFFFFFFFFFF04
:1024E800FFFFFFFFFFFFFFFFFFFFFFFFFFFFFFFFF4
:1024F800FFFFFFFFFFFFFFFFFFFFFFFFFFFFFFDE05
:10250800FFFFFFFFFFFFFFFFFFFFFFFFFFFFFFFFD3
:10251800FFFFFFFFFFFFFFFFFFFFFFFFFFFFFFFFC3
:10252800FFFFFFFFFFFFFFFFFFFFFFFFFFFFFFFFB3
:10253800FFFFFFFFFFFFFFFFFFFFFFFFFFFFFFDEC4
:10254800FFFFFFFFFFFFFFFFFFFFFFDFDEDEBE9E97
:102558007E3D3952E88363010142012201020201F2
:1025680022020102020202010101014262A44E7E1E
:10257800DFFFDFFFFFFFFFFFFFFFFFFFFFFFFFFFA3
:10258800FFFFFFFFFFFFFFFFFFFFFFFFFFFFFFFF53
:10259800FFFFFFFFFFFFFFFFFFFFFFFFFFFFFFFF43
:1025A800FFFFFFFFFFFFFFFFFFFFFFFFFFFFFFFF33
:1025B800FFFFDEFFFFFFFFFFFFFFFFFFFFFFFFFF44
:1025C800FFFFFFFFFFFFFFFFFFFFFFFFFFFFFFFF13
:1025D800FFFFFFFFFFFFFFFFFFFFFFFFFFFFFFFF03
:1025E800FFFFFFFFFFFFFFFFFFFFFFFFFFFFFFFFF3
:1025F800FFFFDEFFFFFFFFFFFFFFFFFFFFFFFFFF04
:10260800DFFFDF9E3DD86F4663424222020202028C
:102618000201010203020202010202020122624DCA
:102628007EBFFFFFFFFFFFFFFFFFFFFFFFFFFFFF73
:10263800FFFFFFFFFFFFFFFFFFFFFFFFFFFFFFFFA2
:10264800FFFFFFFFFFFFFFFFFFFFFFFFFFFFFFFF92
:10265800FFFFFFFFFFFFFFFFFFFFFFFFFFFFFFFF82
:10266800FFDEFFFFFFFFFFFFFFFFFFFFFFFFFFFF93
:10267800FFFFFFFFFFFFFFFFFFFFFFFFFFFFFFFF62
:10268800FFFFFFFFFFFFFFFFFFFFFFFFFFFFFFFF52
:10269800FFFFFFFFFFFFFFFFFFFFFFFFFFFFFFFF42
:1026A800FFDEFFFFFFFFFFFFFFFFFFFFFFFFFFFF53
:1026B800FFFFFFDEBEBE9E7EF80DE463012201012E
:1026C8000101020302020202020202012202228323
:1026D800B37EFFFFFFFFFFFFFFFFFFFFFFFFFFFFCF
:1026E800FFFFFFFFFFFFFFFFFFFFFFFFFFFFFFFFF2
:1026F800FFFFFFFFFFFFFFFFFFFFFFFFFFFFFFFFE2
:10270800FFFFFFFFFFFFFFFFFFFFFFFFFFFFFFFFD1
:10271800FFDEFFFFFFFFFFFFFFFFFFFFFFFFFFFFE2
:10272800FFFFFFFFFFFFFFFFFFFFFFFFFFFFFFFFB1
:10273800FFFFFFFFFFFFFFFFFFFFFFFFFFFFFFFFA1
:10274800FFFFFFFFFFFFFFFFFFFFFFFFFFFFFFFF91
:10275800FFDEFFFFFFFFFFFFFFFFFFFFFFFFDFFFC2
:10276800FFFFDFFFFFFFFFDFBF7EBB314642424274
:1027780022020202020101020203022301010202F3
:102788008379BDFFFFFFFFFFFFFFFFFFFFFFFFFF95
:10279800FFFFFFFFFFFFFFFFFFFFFFFFFFFFFFFF41
:1027A800FFFFFFFFFFFFFFFFFFFFFFFFFFFFFFFF31
:1027B800FFFFFFFFFFFFFFFFFFFFFFFFFFFFFFFF21
:1027C800FFFFDEFFFFFFFFFFFFFFFFFFFFFFFFFF32
:1027D800FFFFFFFFFFFFFFFFFFFFFFFFFFFFFFFF01
:1027E800FFFFFFFFFFFFFFFFFFFFFFFFFFFFFFFFF1
:1027F800FFFFFFFFFFFFFFFFFFFFFFFFFFFFFFFFE1
:10280800FFFFDEFFFFFFFFFFFFFFFFFFFFFFFFFFF1
:10281800FFFFFFFFFFFFFFFFDFDFBE9E3C93464346
:1028280023220122010101020202030102010143E4
:1028380022CB3CFFFFFFFFFFFFFFFFFFFFFFFFFF74
:10284800FFFFFFFFFFFFFFFFFFFFFFFFFFFFFFFF90
:10285800FFFFFFFFFFFFFFFFFFFFFFFFFFFFFFFF80
:10286800FFFFFFFFFFFFFFFFFFFFFFFFFFFFFFFF70
:10287800FFFFDEFFFFFFFFFFFFFFFFFFFFFFFFFF81
:10288800FFFFFFFFFFFFFFFFFFFFFFFFFFFFFFFF50
:10289800FFFFFFFFFFFFFFFFFFFFFFFFFFFFFFFF40
:1028A800FFFFFFFFFFFFFFFFFFFFFFFFFFFFFFFF30
:1028B800FFFFDEFFFFFFFFFFFFFFFFFFFFFFFFFF41
:1028C800FFFFFFFFFFFFFFFFFFFFFFFFDF9E1D7200
:1028D800A443422221010101020202020201010174
:1028E80063A3B6FFFFFFFFFFFFFFFFFFFFFFFFFF31
:1028F800FFFFFFFFFFFFFFFFFFFFFFFFFFFFFFFFE0
:10290800FFFFFFFFFFFFFFFFDFFFFFFFFFFFFFFFEF
:10291800FFFFFFFFFFFFFFDFFFDFFFFFFFFFFFFFFF
:10292800FFFFFFFFFFFFFFFFFFFFFFFFFFFFFFFFAF
:10293800FFFFFFFFFFFFFFFFFFFFFFFFFFDFFFFFBF
:10294800FFFFFFFFFFFFFFFFFFFFFFFFFFFFFFFF8F
:10295800FFFFFFFFFFFFFFFFFFFFFFFFFFFFFFFF7F
:10296800FFFFFFFFFFFFFFFFFFFFFFFFFFFFFFFF6F
:10297800FFFFFFFFFFFFFFFFFFFFFFFFFFDEDF9D02
:102988003DAC844301020202020202020202020179
:102998002182AEDFFFFEFFFFDF9E9E9E9E9E9EDF92
:1029A800FFFFFFFFFFFFFFFFFFFFFFDFBFBFBFBF4F
:1029B800FFFFFFFFDF9E9F9E9E9EBEBEDEFFFFFFC6
:1029C800DEFFDFFFFFFFFFFFDFFFFFFFFFFFFFFF70
:1029D800FFFFFFFFFFFFFFFFFFFFFFFFFFFFFFFFFF
:1029E800FFFFFFFFFFFFFFFFFFFFFFFFFFDFFFDF2F
:1029F800DFFFFFFFFFDFFFFFFFFFFFFFFFFFFFFF1F
:102A0800FFFFDFFFFFFFFFFFFFFFFFFFFFFFFFFFEE
:102A1800FFFFFFFFFFFFFFFFFFFFFFFFFFFFFFFFBE
:102A2800FFFFFFFFFFFFFFFFFFFFFFFFFFFFFFFFAE
:102A3800BE5E538363020202020101020203020125
:102A4800214129FFFFFFFFDEDAAEAFAFAF10341C24
:102A5800BEDFFFFFFFFFFFFFFFFFFF7D71B4DCBE9E
:102A6800DEFFFFFF3BEFAFCFAF11D31B9DDFDFFFD3
:102A7800FF3CAE30300F92757DFFFFFFFFFFFFFF79
:102A8800FFFFFFFFFFFFFFFFFFFFFFFFFFFFFFFF4E
:102A9800FFFFFFFFFFFFFFFFFFFFFFFFFFFFFFFF3E
:102AA800FFFF7DAEEF30109175BEFFFFDFFFFFFF28
:102AB800FFFFFFFFFFFFFFFFFFFFFFFFFFFFFFFF1E
:102AC800FFFFFFFFFFFFFFFFFFFFFFFFFFFFFFFF0E
:102AD800FFFFFFFFFFFFFFFFFFFFFFFFDFFFFFFF1E
:102AE800FFDE9D39046302020201010202020201B3
:102AF8002102E5FFFFFFDFBED36262636262A324A7
:102B080018BFFFFFFFFFFFFFFFFFDE1704A4C495F8
:102B1800BDDEFFFF380482628384A3E3B6BFFFFFF4
:102B2800DF1300A2A2A282824118DFFFFFFFFFFF8E
:102B3800FFFFFFFFFFFFFFFFFFFFFFFFFFFFFFFF9D
:102B4800FFFFFFFFFFFFFFFFFFFFFFFFFFFFFFFF8D
:102B5800FFDE754081C2A241612059FFFFFFFFFFE0
:102B6800FFFFFFFFFFFFFFFFFFFFFFFFFFFFFFFF6D
:102B7800FFFFFFFFFFFFFFFFFFFFFFFFFFFFFFFF5D
:102B8800FFFFFFFFFFFFFFFFFFFFFFFFFFFFFFFF4D
:102B9800FEFFFE9D1CC76201012202020202020121
:102BA8000122A5FFFFFFBF5D8A6322222343424221
:102BB800253DFFFFFFFFDFFFFFFFBE51826283E479
:102BC80059BFFFFF1CE4624222222242C4DBDFFF1E
:102BD800FFCA40C3A2C2C2C261A25DFFFFFFFFFFDE
:102BE800FFFFFFFFFFFFFFFFFFFFFFFFFFFFFFFFED
:102BF800FFFFFFFFFFFFFFFFFFFFFFFFFFFFFFFFDD
:102C0800FFFF0B40E382C3C3E361813CFFFFFFFF8B
:102C1800FFFFFFFFFFFFFFFFFFFFFFFFFFFFFFFFBC
:102C2800FFFFFFFFFFFFFFFFFFFFFFFFFFFFFFFFAC
:102C3800FFFFFFFFFFFFFFFFFFFFFFDFFFFFBFFFFC
:102C4800FFFFFFFF9EFBC7220121010202020202D1
:102C5800022226FFFFFFBF38A3420202030202013D
:102C6800A39AFFFFFFFFDFFFFFFF9E0821014282BB
:102C7800F4BFFFDF9FD7A3A443638463C4D7BEFF19
:102C88003C61C281E3C3C2C3E36118FFFFFFFFFFDA
:102C9800FFFFFFFFFFFFFFFFFFFFFFFFFFFFFFFF3C
:102CA800FFFFFFFFFFFFFFFFFFFFFFFFFFFFFFDF4C
:102CB800FF3BA2A2C2C2C3A2A2E34179DFFFFFFF8A
:102CC800FFFFFFFFFFFFFFFFFFFFFFFFFFFFFFFF0C
:102CD800FFFFFFFFFFFFFFFFFFFFFFFFFFFFFFFFFC
:102CE800FFFFFFFFFFFFFFFFFFFFFFFFFFFFFFFFEC
:102CF800DFFFFFFFFFBE99620221220202020202E9
:102D0800234229DFFFFF9E928241222302022221D1
:102D1800041CFFFFFFFFDFFFFFDF5AA3012141E48F
:102D280019BEDFDFBF9E7DF8F4925252313CFFFF9F
:102D3800F640C20381C3C2C2C2A21CFFFFFFFFFF4D
:102D4800FFFFFFFFFFFFFFFFFFFFFFFFFFFFFFFF8B
:102D5800FFFFFFDFFFFFFFFFFFFFFFFFFFFFFFFF9B
:102D6800FF7520C2C2C2C2A2C3A2A21CFFFFFFFFFE
:102D7800FFFFFFFFFFFFFFFFFFFFFFFFFFFFFFFF5B
:102D8800FFFFFFFFFFFFFFFFFFFFFFFFFFFFFFFF4B
:102D9800FFFFFFFFFFFFFFFFFFFFFFFFFFFFFFFF3B
:102DA800BFFFFFFFFFDF7DD36221010202020202A3
:102DB8002362CFFFFFFF7D6A412102020201224107
:102DC8000C9EFFFFFFFFDFFFDF9FB342010141C8F9
:102DD8003D9EDF1DBBDB3C3D3C5D5D7D9EDFFFFF17
:102DE8006C40C2A2C2C3C2A2618AFFFFFFFFFFFFFD
:102DF800FFFFFFFFFFFFFFFFFFFFFFFFFFBE7D5C41
:102E08005D5D3C5D5D5D3C5C7DBEFFFFDFFFFFFF00
:102E1800FF6D40C2C2A2E2A2A241CBFFFFFFFFFFAB
:102E2800FFFFFFFFFFFFFFFFFFFFFF5D5D5D5D5DD4
:102E38005D5D5D5C3C5C7DBEFFFFFFFFFFBE5D3CF2
:102E48005C5D5D5D5D5D7D7D5D3D3D5C7D7D5D3D8C
:102E58003D9EFFFFFFFFBE3C084101020202020245
:102E680002A354FEFEDF9A83020223030202218199
:102E7800349EDFFFFFFFFFFFDE5D8A6200016231E3
:102E88009EDF5D86A3C4A3A325CB589DDEFFFFBEAE
:102E98002482A3C3A2C2C2A240F3FFFFFFFFFFFF29
:102EA800FFFFFFFFFFFFFFFFFFFFFF95AA44C2C31D
:102EB800E3E303E304E3E3C3C204F3FFFFFFFFFF1D
:102EC8009E0382C2C2C2E2A2C34055FFFFDFFFFFDA
:102ED800FFFFFFFFFFFFFFBED38A44C2E3E3E3E344
:102EE80004C3E3C303E3A2048EDFFFFFFF7141E3E2
:102EF800E3E3E3E3C3E3C3E3C3C3C3E3E3E3E3E33A
:102F0800A3C3695DFFFFDF9E556121010203020132
:102F18006265DAFEDEBE764202030202020141C2A7
:102F2800B9BFFFFFFFFFFFFFBE79C321220163592D
:102F3800DFBED783010102224261E3DAFEFFFF17F9
:102F480061C3C3C2C2C2C2C341DBFFFFFFFFFFFFB1
:102F5800FFFFFFFFFFFFFFFFFF340341A2A2A2E331
:102F6800A2C3A2A28261C3C2C2626179FFFF5DAE41
:102F7800AA81C2E281E2C2C281A24C0F8D8EAE0C40
:102F8800CBBEFFFFFFFFF3A24161A2A2E3E3A2C30E
:102F9800A2822000A2C3C28220D3FFFFFFC761C262
:102FA800A2A2C3A2C382C3A281000000000081C301
:102FB800A3C3006DFFFFDFDF1C0401020202012230
:102FC80062307CFFFE7D2C41010202020201620C8C
:102FD8009DDFFFDFFFFFDFFFBED483222201677E74
:102FE800DF9DEF42220101010142A2EFBEFFFF5027
:102FF8002062C4A2C2C2C261E7FFFFFFFFFFFFFF5A
:10300800FFFFFFFFFFFFFFDECB41A2C3A282C2A2E8
:10301800C2A261452C914582E3A28134DFBEA200A1
:1030280061A2C3A2C2C2C2C3E3A2402020402000C2
:10303800AEFFFFFF3C284082E3C2E3C2A2C3A24125
:10304800866D92754881A2C282AEFFDF5940C3C324
:10305800A2C2C2A282E361E30F13B2F2D2B62C81FC
:10306800C3A2A248FFFFFFFF7EAB42230202020178
:103078008279DEFFDFFC2562010102020201427152
:103088003C7E9E5E7E5D9E9E1CCC220202428F9EEE
:10309800DF3CE74302010102020283EF9DFFFFC606
:1030A80061E482C3A2A2E30071FFFFFFFFFFFFFFFD
:1030B800FFFFFFFFFFFF9D2461A2A2A2C2E3A2E3DC
:1030C80041C375DFFF5CC382A2A261BAFFAE20854F
:1030D800E3C382C2A2C2C2C2A2C224032403A27151
:1030E800FFFFFF798241E3C3A2C3A2C2E3414518AF
:1030F800FFFFFFFF4841C3C30055DFFF1041C2A2D5
:10310800C3C3C2C2C2618A9EFFFFFFFFFFFF302018
:10311800C2E3208DFFFFFFFF9E726202032221415E
:103128004D9DFEFFBF978322010202020202224642
:10313800A78787A7A787A887866222012263769E2A
:103148009E17A3220201010203026318BEDFBA61BF
:10315800C2C2C2C2C2A2A24058FFFFFFFFFFFFFFC8
:10316800FFFFFFFFFFFFC720C2A2E3A2C2A2C24126
:10317800241CFFFFFF5420A2E361A6DFFF5DFF5878
:1031880061C2C2A2C2C2A2C281F7FFBE9D7DDFDFBB
:10319800FFDF7D4161A2C3C2C3A2C3E32048FFFF92
:1031A800FFFFFFDA61A2C3C2611CFFDF2861C2C250
:1031B800C2A2A2C24069FFFFFFFFFFFFFFBE44A2F9
:1031C800A2E34175FFFFFFFF9ED38323020142C3A1
:1031D80059BEFFDF9F8F6322010201020202228390
:1031E8006342636363636363620101224204DB9E9B
:1031F8009E724222020101020323E51CDEFFD32056
:10320800C2C2C2C2A2C361449DFFFFFFFFFFFFFF0E
:10321800FFFFFFFFFF8A00E3C2A2A2C2C2A282414F
:103228003CFFFFFFDE0B40A2A241CEFFDEFFFF34D2
:1032380020A2A2A2E3A2C28124DEFFFFFFFFFFFFBC
:10324800FFFFE720E3E3A2C2A2A2C261E7DEFFFF1D
:10325800FFFFFFB241A2A26128DFFFDB82A2C2E327
:10326800C2C2C2A24058FFFFFFFFFFFFFF7940C262
:10327800C282615CFFFFFFFF7ED38322022182307E
:103288009DDEFFDF5DA7212202012201434387CB98
:10329800CBECACACCCCCCCEC46020202424C9DDF71
:1032A8005E4A22020201010101622D9DFFFF8A414F
:1032B800A2E2C2C2A2C3418EFFFFFFFFFFFFFFFFD2
:1032C800FFFFFFFF9520C3C2A2C2C2E3A2C20095BE
:1032D800FFFFFFFFF781A2C3C22017FFFFDFFF48F0
:1032E80081A2C2C382C3E320CEFFFFFFFFFFDFFF3F
:1032F800FFD300E3C2A2C2C2E2A2E32058DEFFFF6E
:10330800FFFFFFC681C2A24192FFDF1420E3C2A2E1
:10331800A2C2C281E39DFFFFDFFFFFFFFF5000C392
:10332800C361CBDFFFFFFFFF9FB342222241453C31
:10333800DFFFFFBE58A30002020101220284773D8D
:103348005D5E5E5E3D7E3DDBA723022262959DBFEA
:103358009B83220202220122426214BEFFBB62C387
:10336800A2A2C2C2C3C240F7FFFFFFFFFFFFFFFFD9
:10337800FFFFFFFFC761C3A2A2C2C2A2C28185BE6E
:10338800FFFFFF9120A2C2A24145DEFFFFFFFB81A4
:10339800C2A2C3A2E382E340F7FFFFFFFFFFFFDF04
:1033A800BEE382C2A2C2C2C2C2C24169FFFFFFFF1E
:1033B800FFFFBA61A1C2E340BAFFFF8A81A2E3C25C
:1033C800C3A2C2412CFFFFFFFFFFFFFFFFE782A25E
:1033D800A220F3FFFFFFFFFF9ECF422141A2D79E0D
:1033E800FFFFFF7D71822101020122012246DC9E3E
:1033F800BFDFDFDEDEDF7EF783220201A3BBDF9EB5
:10340800146302020202012121C39A9EFFD220C343
:10341800A2C2A2C2A28244BEFFFFFFFFFFFFFFFFBE
:10342800FFFFFF9A40A2C2C3A2C3C2C2C2A2852C98
:10343800AAAA4461C2C2E3810096FFFFFFFF1440BD
:10344800C2A2A2C3A2A2A2E37DFFFFFFFFFFFFFF6C
:103458003820C2A2C2C2C2A2C3C220F3FFFFFFFF2C
:10346800FFFFD320E2A26128DFFF3CA2A2C2C2C2B2
:10347800C2A2C22176FFFFFFFFFFFFFFBA61A2A22F
:10348800A261DAFFFFFFFFFF7D29212182B37EDFE2
:10349800FFFFFF3C6961210203020100634E7EDFEA
:1034A800FFFFFFFFFFFF9EF062222221497EDF7DA2
:1034B8004D4202020202010162AB5DBFFF8940C3B7
:1034C800A282E3C3C2416DFFFFFFFFFFFFFFFFFFC3
:1034D800FFFFFF9241C3A2A2C2C2A2C2A2E38140DF
:1034E8002020A2A2C2818161EFFFFFFFFFFF4D40B4
:1034F800C2A2C2A2A2C341EBFFFFFFFFFFFFFFFF73
:103508002C41A2A2A2A2C2A2A2C382B6DFFFFFFFE1
:10351800FFFF8A61C2C32092FFFFB640C2C2C2C287
:10352800C2C2A2821CDFFFFFFFFFFFDF3420C3A25D
:1035380081C6FFFFFFFFFFFEFAA30161697DDFDFA0
:10354800FFFFFF1804420203020201014275BEDFB9
:10355800FFFFFFFFFFFF7E0942022242519EBEDAB3
:10356800254302020201010263D39EDF5DA2A2C3CA
:10357800E3A2A2C2A24095FFDFFFFFFFFFFFFFFF0C
:10358800FFFFFF6961A2E3A2C3A2A2C2A2A2C6076B
:10359800C628E7E7C7070B18DFFFFFDFFF7DA2A2FA
:1035A800A2C2A2A2A2E32014FFFFFFFFFFDFFF9E3B
:1035B8002481C2C2A2A2C2A2A2C28118FFFFFFDF59
:1035C800FF5DA2A282C24079DFFF8E40C2A2C2C2C2
:1035D800A2C26149FFFFFFFFFFFFFFFFCA40A2C26F
:1035E8006150FFFFFFFFFFDE756242E3BADEFFFFB7
:1035F800FFFFFFB3422202020301000182FBFFFF2B
:10360800FFFFFFFFFFDFBB62012222C4189DBD54EC
:10361800A343020202022202A49ADFDF5641C2A299
:1036280082C3C2C382813CFFFFFFFFFFFFFFFFDFB2
:10363800FFFF3CA2C2A2C2C282C3C2C2C26151DFA2
:10364800FFFFFFFFFFFFFFFFFFFFFFFFDEF761C385
:10365800C2C3A2C2C28282DBFFFFFFFFFFFFFF18C7
:1036680061C2C2C2C2A2A2A2C2A24014FFBEFFFF90
:10367800FF9620A2E361A6BEFFBE0461C2C3C2A238
:10368800E3C200F3FFFFFFDFFFFFFFFB81A2E3A21E
:103698002058FFFFFFFFDF7DCAA34158BEDEFFFFB2
:1036A800FFFFFF296302020303212061AA7EFFFFB7
:1036B800FFFFFFFFFFBFD483010163C85DBD9DEB22
:1036C80062220201010122426A9DFFFF4D41E2A2EE
:1036D800C2E3A2A2404DDFDFFFBEFFFFFFFFFFFFF7
:1036E800FFDFFB62A2C2C2A2C3A2C2C2C281E39A26
:1036F800FFBEFFFFDFFFFFFFFFFFFFFFFF2C41C201
:10370800A2C2C2A2A2204DFFDFFFFFFFFFDFFF968C
:1037180061C2C2A2C2A2A2A2C3A26145FBFFDEFF90
:10372800FF2C41A2A240EFFFFF1861E3C2C2C2C250
:10373800C28282FCFFDFFFFFDFFFFB4482C3A2815E
:1037480044BEFFFFFFFFBE58E3C3967EDFFFFFFFC7
:10375800FFFFFF256202020302014182549EDFFF40
:10376800FFFFFFFFFF9E7262210143529EDE9D8A8A
:103778008222020201022262B3BDFEDF4961A1C2B8
:10378800C2A1C2E361AE1B18183838181818389649
:103798001CFFBE4561E3C382A2C3C2A2A2C38220AA
:1037A800AEB6185879381818BEFFFFFFFF0882C256
:1037B800E3A2C3A2C361AEDB3896BBFFDFFFFFFB0A
:1037C80020C2A2C2C2A2C2C2A2C3C382400FD29D5B
:1037D800DFC381C2E320F7FFFF5520C3C2C2A2C3E3
:1037E800A26145387918185918108261C3A2A2201D
:1037F800CEFFFFFFFFDF9E2CE2B27DDFFFFFFFFF62
:10380800FFFFFF5082220202020142C3BABEFFFF3D
:10381800FFFFFFFFFFDE38C2614262B7DFDE9D9126
:10382800A2420202022323C4187DFFFFD300C2A2D2
:10383800C2C2A2A2C2A2204161202120614120006F
:103848001CDFFF750082C2C2C2C3A2C3C2A2E3C208
:103858004161616140410069FFFFFFFFFF34008162
:10386800C2A2A2C382C2E34140009AFFFFFFBEFF8B
:103878005100C2C2C2A2C2A282A2E3A2E361009D19
:10388800BA20C2C281E3BEDFFF1C8261C2E3A2C2CA
:10389800C3A2E361406120206182A2A2A2A2A24148
:1038A80096DFFFFFDF9EF804EF7DBEDFDFFFFFFF3F
:1038B800FFDFFF3B4CC342834363A4CB7DDFFFFFA5
:1038C800FFFFFFFFDFFF9DD2C382455DFFFFDF7D66
:1038D800EF8363638343A4295DBFDFFFFF6DA2818C
:1038E80061818282C281A28161828282824100D703
:1038F800FFFFFFFF306161A28282A28282A28281E1
:10390800A28282618241613CFFFFFFFFFFDFCFE3BC
:103918006181A281A28181610014FFFFDFFFFFFFA7
:10392800FFCB8181A28282A282828181614095FF40
:103938001020C3C2610BFFFFFFFFF7E38181A28262
:1039480082A2828181A281A2828182828282616135
:103958003CFFFFFFDF3D66EC5D9DFFFFFFFFFFFFC4
:10396800FFFFFFBF9EDBD7355535F4BBBEFFFFFF1A
:10397800FFFFFFFFFFFFDF9E3C9638BFFFFFFFDF23
:10398800BEBBD77555553439DFFFDFFFFFFF5D1824
:103998007576769696969696969696965575FBFFB4
:1039A800FFFFFFFFFFFB9675957596959596969682
:1039B8009696969575F75DFFFFFFFFFFDFFFFF5DAA
:1039C8003896759675967575BAFFFFFFFFFFFFFF6E
:1039D800FFFFBA757595969696969596951BFFDF97
:1039E8006581C2C22096FFDFFFFFFFBE59969595FD
:1039F80095B6959595959595959696969675343828
:103A0800FFFFFFDF9E6EE87EDFFFFFFFFFFFFFFF88
:103A1800FFFFFFFFFFFFDEBEBEBEDFBFFFFFDFFF12
:103A2800FFFFFFFFFFFFFFFFFF9EDFFFFFFFFFFF1F
:103A3800FFDFDEDEBEBEBEDFFFDFFFFFDFFFFFDF33
:103A4800FFFFDFFFFFFFFFFFFFFFFFDFFFFFFFFFBE
:103A5800DFFFFFFFFFFFFFFFFFFFFFFFFFFFFFFF8E
:103A6800FFFFFFFFFFFFFFFFFFFFFFFFFFFFFFFF5E
:103A7800FFFFFFFFFFFFFFDFFFFFFFFFDFFFFFFF8E
:103A8800FFDFFFFFFFFFFFFFFFFFFFFFFFFFFF79E4
:103A9800A2C2C2A2A23CDFFFFFFFFFFFFFFFFFDFC2
:103AA800FFFFFFFFFFFFFFFFFFFFFFFFFFFFFFFF1E
:103AB800FFFFFFDFB6083C9EFFFFFFFFFFFFFFFF92
:103AC800FFFFFFFFFFFFFFFFFFFEFFFFFFFFFFFFFF
:103AD800FFFFFFFFFFFFFFFFFFFFDFFFFFFFFFFF0E
:103AE800FFFFFFFFDFDFDFFFFFFFFFFFFFFFFFFF3E
:103AF800FFFFFFFFFFFFFFFFFFFFFFFFFFFFFFFFCE
:103B0800FFFFFFFFFFFFFFFFFFFFFFFFFFFFFFFFBD
:103B1800FFFFFFFFFFFFFFFFFFFFFFFFFFFFFFFFAD
:103B2800FFFFFFFFFFFFDEFFFFFFFFFFFFFFFFFFBE
:103B3800DFFFFFFFFFFFFFFFFFFFFFFFFFFFFF713B
:103B480040C2C26189FFFFFFFFFFFFFFFFFFFFFFCA
:103B5800FFFFFFFFFFFFFFFFFFFFFFFFFFDFFFFF8D
:103B6800FFFFFFDB8E5CBDFFFFFFFFFFFFFFFFFFD7
:103B7800FFFFFFFFFFFFFFFFFFFFFFFFFFFFFFFF4D
:103B8800FFFFFFFFFFFFFFFFDFFFDFFFFFFFFFFF7D
:103B9800FFFFFFFFFFFFFFFFFFFFDFFFFFFFFFFF4D
:103BA800FFFFFFFFFFFFFFFFFFFFFFFFFFFFFFFF1D
:103BB800FFFFFFFFFFFFFFFFFFFFFFFFFFFFFFFF0D
:103BC800FFFFFFFFFFFFFFFFFFFFFFFFFFFFFFFFFD
:103BD800FFFFFFFFFFFFFFFFFFFFDEFFFFFFFFFF0E
:103BE800FFFFFFFFFFFFFFFFFFFFFFDFFFDFFF48D4
:103BF80061C3C32034FFFFFFFFFFFFFFFFFFFFFF8D
:103C0800FFFFFFFFFFFFFFFFFFFFFFFFFFFFFFFFBC
:103C1800FFFF9E965DDEFFDEFFFFFFFFFFFFFFFF5A
:103C2800FFFFFFFFFFFFFFFFFFFFFFFFFFFFFFFF9C
:103C3800FFFFFFFFFFFFFFFFFFFFFFFFFFFFFFFF8C
:103C4800FFFFFFFFFFFFFFFFFFFFFFFFFFFFFFFF7C
:103C5800FFFFFFFFFFFFFFDEFFFFFFFFFFFFFFFF8D
:103C6800FFFFFFFFFFFFFFFFFFFFFFFFFFFFFFFF5C
:103C7800FFFFFFFFFFFFFFFFFFFFFFFFFFFFFFFF4C
:103C8800FFFFFFFFFFFFFFFFFFFFFFFFFFFFFFFF3C
:103C9800DFFFFFFFFFFFFFFFFFFFFFFFFFFFFB61EE
:103CA800C2A2C361FBFFDFFFFFFFFFFFFFFFFFFFB4
:103CB800FFFFFFFFFFFFFFFFFFFFFFFFFFDFDFFF4C
:103CC800FFDFFB9DDEFFDFFFFFFFFFFFFFFFFFFFC3
:103CD800FFFFFFFFFFFFFFFFFFFFFFFFFFFFFFFFEC
:103CE800FFFFFFFFFFFFFFFFFFDFFFFFFFFFFFFFFC
:103CF800FFFFFFFFFFFFFFFFFFFFFFFFFFFFFFFFCC
:103D0800FFFFFFFFFFFFFFFFFFFFFFFFFFFFFFFFBB
:103D1800FFFFFFFFFFFFFFFFFFFFFFFFFFFFFFFFAB
:103D2800FFFFFFFFFFFFFFFFFFDEFFFFFFFFFFFFBC
:103D3800FFFFFFFFFFFFFFFFFFFFFFDFFFFFFFFFAB
:103D4800FFFFFFFFFFFFFFFFFFFFFFFFDEFFD34087
:103D5800E3C341C6DEFFFFFFFFFFFFFFFFFFFFFFDB
:103D6800FFFFFFFFFFFFFFFFFFFFFFFFFFFFFFFF5B
:103D7800DFDFBEFFFFFFFFFFDFFFFFFFFEFFFFFFED
:103D8800FFFFFFFFFFFFFFFFFFFFFFFFFFFFFFFF3B
:103D9800FFFFFFFFFFFFDFFFFFFFFFFFFEFFFFFF4C
:103DA800FFFFFFFFFFFFFFFFFFFFDFFFFFFFFFFF3B
:103DB800FFFFDFFFFFFFFFFFFFFFFFFFFFFFFFFF2B
:103DC800FFFFFFFFFFFFFFFFFFFFFFFFFFFFFFFFFB
:103DD800FFFFFFFFFFFFFFFFFFFFFFFFFFFFFFFFEB
:103DE800FFFFFFFFFFFFFFFFFFFFFFFFDFFFFFFFFB
:103DF800DF31E48AAACAEBCBAA694848894903C2D9
:103E0800C2A200F3FFFFFFFFFFFFFFDFFFFFFFFF7F
:103E1800FFFFFFFFFFFFFFFFFFFFFFFFFFFFFFFFAA
:103E2800FFFFFFDFFFFFFFDFFFFFDFFFFEFFFFFFFB
:103E3800FFFFFFFFFFFFFFFFFFFFFFFFFFFFFFFF8A
:103E4800FFFFFFFFFFFFFFFFFFFFFFFFFFFFFFFF7A
:103E5800FFFFFFFFFFFFFFFFFFFFFFFFDFFFFFFF8A
:103E6800FFFFFFFFFFFFFFFFFFFFFFFFFFFFFFFF5A
:103E7800FFFFFFFFFFFFFFFFFFFFFFFFFFFFFFFF4A
:103E8800FFFFFFFFFFFFFFFFFFFFFFFFFFFFFFFF3A
:103E9800FFFFFFFFFFFFFFFFFFFFFFFFDEFFFFFF4B
:103EA800FF1400614120202061A2E3C2C2C2A2C364
:103EB800A200EBFFFFFFFFFFFFFFFFFFFFFFFFFF7A
:103EC800FFFFFFFFFFFFFFFFFFFFFFFFFFFFFFFFFA
:103ED800FFFFFFFFFFFFFFFFFFFFFFFFFFFFFFFFEA
:103EE800FFFFFFFFFFFFFFFFFFFFFFFFFFFFFFFFDA
:103EF800FFFFDEFFFFFFFFFFFFFFFFFFFFFFFFFFEB
:103F0800FFFFFFFFFFFFFFFFFFFFFFFFFFFFFFFFB9
:103F1800FFFFFFFFFFFFFFFFFFFFFFFFFFFFFFFFA9
:103F2800FFFFFFFFFFFFFFFFFFFFFFFFFFFFFFFF99
:103F3800FFFFDEFFFFFFFFFFFFFFFFFFFFFFFFFFAA
:103F4800FFFFFFFFFFFFFFFFFFFFFFFFFFFFFFFF79
:103F5800FFFF2C0081828161828181818181826160
:103F6800814DFFFFFFFFFFFFFFFFFFFFFFFFFFFF89
:103F7800FFFFFFFFFFFFFFFFFFFFFFFFFFFFFFFF49
:103F8800FFFFFFFFFFFFFFFFFFFFFFFFFFFFFFFF39
:103F9800FFFFFFFFFFFFFFFFFFFFFFFFFFFFFFFF29
:103FA800FFDEFFFFFFFFFFFFFFFFFFFFFFFFFFFF3A
:103FB800FFFFFFFFFFFFFFFFFFFFFFFFFFFFFFFF09
:103FC800FFFFFFFFFFFFFFFFFFFFFFFFFFFFFFFFF9
:103FD800FFFFFFFFFFFFFFFFFFFFFFFFFFFFFFFFE9
:103FE800FFDEFFFFFFFFFFFFFFFFFFFFFFFFFFFFFA
:103FF800FFFFFFFFFFFFFFFFFFFFFFFFFFFFFFFFC9
:10400800FFFFFFEF240465456565654545A6690F13
:10401800DAFFFFFFFFFFFFFFFFFFFFFFFFFFFFFFCD
:10402800FFFFFFFFFFFFFFFFFFFFFFFFFFFFFFFF98
:10403800FFFFFFFFFFFFFFFFFFFFFFFFFFFFFFFF88
:10404800FFFFFF006A2F7B2FC3E6D2E20E94880E93
:1040580000FE0895E8E6F0E4EA0FFB1FC89508950E
:10406800220000FFFFFFFFFFFFFFFFFFFFFFFFFF33
:10407800FFFFFFFFFFFFFFFFFFFFFFFFFFFFFFFF48
:10408800FFFFFFFFFFFFFFFFFFFFFFFFFFFFFFFF38
:10409800FFFFFFFFFFFFFFFFFFFFFFFFFFFFFFFF28
:1040A800FFFFF7FFFFFFFFFFFFFFFFFFFFFFFFFF20
:1040B800FFFFFFFFFFFFFFFEFEFEFEFEFDFDFDFD15
:1040C800FCFCFCFBFCFBFBFBFAFBFAFAFAFAF9F93D
:1040D800F9F9F9F0F0F0F0F0F9F9F9F9F9FAFAFA72
:1040E800FAFAFBFBFBFCFCFCFDFDFDFEFEFEFFFF00
:1040F800FFFFFFFFFFFFFFFFFFFFFFFFFFFFFFFFC8
:10410800FFFFFFFFFFFFFFFFFFFFFFFFFFFFFFFFB7
:10411800FFFFFFFFFFFFFFFFFFFFFFFFFFFFFFFFA7
:10412800FFFFFFFFFFFFFFFFFFFFFFFFFFFFFFFF97
:10413800FFFFFFFFFFFFFFFFFFFFFFFFFFFFFFFF87
:10414800FFFFFFFFFFFFFFFFFFF7FFFFFFFFFFFF7F
:10415800FFFFFFFFFFFFFFFFFFFFFFFFFFEEE6DDB3
:10416800CDC4BCABAA9A898981898991919898A074
:10417800A0A0A8B0B0B0B0B8C0B8C0C0C8D0D0D0A7
:10418800D8D8D8D8D8D8D8D8D8D8D8D8D0D0C8D0CF
:10419800D0C0C8C0C0C0C0B8B8B8A8A8B1B9C2CA51
:1041A800DBECF4FDFEFEFFFFFFFFFFFFFFFFFFFF5D
:1041B800FFFFFFFFFFFFFFFFFFFFFFFFFFFFFFFF07
:1041C800FFFFFFFFFFFFFFFFFFFFFFFFFFFFFFFFF7
:1041D800FFFFFFFFFFFFFFFFFFFFFFFFFFFFFFFFE7
:1041E800FFFFFFFFFFFFFFFFFFFFFFFFFFFFFFFFD7
:1041F800FFFFFFFFF7FFFFFFFFFFFFFFFFFFFFFFCF
:10420800FFFFFFFFFFFFFFFFFFFFFFFFFFF7F6F6D0
:10421800EEEEE5E5E5E5E5DDDCDCDCD3D3CBCAC2D3
:10422800B2A9A1A1A0A8A8B0B8B8C0C8C8D0D8D809
:10423800D8E0E0E0E0E0E0E0E0E0D8D8E0E0D8D89E
:10424800D8E0D8D8D8D8D8D0D0D8D0D0D0C8C8C836
:10425800C0C0C0B8B8C0D1E2FBFCFDFEFFFFFFFF45
:10426800FFFFFFFFFFFFFFFFFFFFFFFFFFFFFFFF56
:10427800FFFFFFFFFFFFFFFFFFFFFFFFFFFFFFFF46
:10428800FFFFFFFFFFFFFFFFFFFFFFFFFFFFFFFF36
:10429800FFFFFFFFFFFFFFFFFFFFFFFFFFFFFFFF26
:1042A800FFFFFFFFFFFFFFF7FFFFFFFFFFFFFFFF1E
:1042B800FFFFFFFFFFFFFFFFFFFFFFFFFFFFFFFF06
:1042C800FFFFFFFFFFFFFFFFFFFFFFFFFFFFFFFFF6
:1042D800FFFFFFFEFEFDFDFDFCFCF3EAE2D1C1B8E5
:1042E800B8C0C0C0C0C8C8C8C8D0D8D8D8D8E0E0FE
:1042F800E0E8E0E0E8E0E0E8E8E0E0E0E0E0E0E096
:10430800E0E0E0E0D8D8D8D0C8B8B0A8C1DBFCFE5F
:10431800FFFFFFFFFFFFFFFFFFFFFFFFFFFFFFFFA5
:10432800FFFFFFFFFFFFFFFFFFFFFFFFFFFFFFFF95
:10433800FFFFFFFFFFFFFFFFFFFFFFFFFFFFFFFF85
:10434800FFFFFFFFFFFFFFFFFFFFFFFFFFFFFFFF75
:10435800FFFFFFFFFFFFFFFFF7FFFFFFFFFFFFFF6D
:10436800FFFFFFFFFFFFFFFFFFFFFFFFFFFFFFFF55
:10437800FFFFFFFFFFFFFFFFFFFFFFFFFFFFFFFF45
:10438800FFFFFFFFFFFFFFFFFFFFFFFFFFFFFFFE36
:10439800FEFDF5ECE3CBBAB1A8B0C0C8C8D8E0E0E0
:1043A800E0E0E0E0E0E0E0E8E0E0E8E0E0E0E0E0F5
:1043B800E8E8E8E8E0E0D8D8D8D0D0D0C8C8C0B895
:1043C800B8E2FCFEFFFFFFFFFFFFFFFFFFFFFFFF5D
:1043D800FFFFFFFFFFFFFFFFFFFFFFFFFFFFFFFFE5
:1043E800FFFFFFFFFFFFFFFFFFFFFFFFFFFFFFFFD5
:1043F800FFFFFFFFFFFFFFFFFFFFFFFFFFFFFFFFC5
:10440800FFFFFFFFFFFFF7FFFFFFFFFFFFFFFFFFBC
:10441800FFFFFFFFFFFFFFFFFFFFFFFFFFFFFFFFA4
:10442800FFFFFFFFFFFFFFFFFFFFFFFFFFFFFFFF94
:10443800FFFFFFFFFFFFFFFFFFFFFFFFFFFFFFFF84
:10444800FFFFFFFFFFFFFFFFFEFDFDFCEAD1B8B84D
:10445800C0C0C0D0C8D0D8D8D8E0E0E0E0E0E8E8F4
:10446800E8E8E8E8E0E0E0E0E0E0E0E0E0E8E8E014
:10447800D8C8C0A8BAF4FFFFFFFFFFFFFFFFFFFF88
:10448800FFFFFFFFFFFFFFFFFFFFFFFFFFFFFFFF34
:10449800FFFFFFFFFFFFFFFFFFFFFFFFFFFFFFFF24
:1044A800FFFFFFFFFFFFFFFFFFFFFFFFFFFFFFFF14
:1044B800FFFFFFFFFFFFFFFFFFFFFFFFFFFFFFFF04
:1044C800FFFFF7FFFFFFFFFFFFFFFFFFFFFFFFFFFC
:1044D800FFFFFFFFFFFFFFFFFFFFFFFFFFFFFFFFE4
:1044E800FFFFFFFFFFFFFFFFFFFFFFFFFFFFFFFFD4
:1044F800FFFFFFFFFFFFFFFFFFFFFFFFFFFFFEFEC6
:10450800FDECD3BAB1B0B8C0D0D8E0E0E8E0E0E064
:10451800E0E0E0E8E8E0E0E0E0E0E0E0E0E0E0E083
:10452800E0D8D8D0C8B8B8EBFEFFFFFFFFFFFFFF09
:10453800FFFFFFFFFFFFFFFFFFFFFFFFFFFFFFFF83
:10454800FFFFFFFFFFFFFFFFFFFFFFFFFFFFFFFF73
:10455800FFFFFFFFFFFFFFFFFFFFFFFFFFFFFFFF63
:10456800FFFFFFFFFFFFFFFFFFFFFFFFFFFFFFFF53
:10457800FFFFF7FFFFFFFFFFFFFFFFFFFFFFFFFF4B
:10458800FFFFFFFFFFFFFFFFFFFFFFFFFFFFFFFF33
:10459800FFFFFFFFFFFFFFFFFFFFFFFFFFFFFFFF23
:1045A800FFFFFFFFFFFFFFFFFFFFFFFFFFFFFFFF13
:1045B800FFFFFFFFFEFEFCFBDAC0C0C0C8C8D0D8B2
:1045C800D8D8E0E8E8E0E0E0E0E0E8E0E0E0E0E8D3
:1045D800E0E0E0E8E0E0D8C8B0CAFDFFFFFFFFFF79
:1045E800FFFFFFFFFFFFFFFFFFFFFFFFFFFFFFFFD3
:1045F800FFFFFFFFFFFFFFFFFFFFFFFFFFFFFFFFC3
:10460800FFFFFFFFFFFFFFFFFFFFFFFFFFFFFFFFB2
:10461800FFFFFFFFFFFFFFFFFFFFFFFFFFFFFFFFA2
:10462800FFFFF7FFFFFFFFFFFFFFFFFFFFFFFFFF9A
:10463800FFFFFFFFFFFFFFFFFFFFFFFFFFFFFFFF82
:10464800FFFFFFFFFFFFFFFFFFFFFFFFFFFFFFFF72
:10465800FFFFFFFFFFFFFFFFFFFFFFFFFFFFFFFF62
:10466800FFFFFFFFFFFFFFFFFFFFFEF4DBB1B0C05E
:10467800D0D8E0D8E0E0E0E0E0E0E0E0E0E0E0E84A
:10468800E0E0E0E8E8E0D8D8D0C8B8DAFEFFFFFFFD
:10469800FFFFFFFFFFFFFFFFFFFFFFFFFFFFFFFF22
:1046A800FFFFFFFFFFFFFFFFFFFFFFFFFFFFFFFF12
:1046B800FFFFFFFFFFFFFFFFFFFFFFFFFFFFFFFF02
:1046C800FFFFFFFFFFFFFFFFFFFFFFFFFFFFF7FFFA
:1046D800FFFFFFFFFFFFFFFFFFFFFFFFFFFFFFFFE2
:1046E800FFFFFFFFFFFFFFFFFFFFFFFFFFFFFFFFD2
:1046F800FFFFFFFFFFFFFFFFFFFFFFFFFFFFFFFFC2
:10470800FFFFFFFFFFFFFFFFFFFFFFFFFFFFF7FFB9
:10471800FFFFFFFFFFFFFFFFFFFFFFFFFFFFFEFCA5
:10472800EAC9B8C0C0D0D8E0E0E0D8E0E0E0E0E016
:10473800E0E0E0E8E8E0E0E0E0E0D8C8A0FDFFFF66
:10474800FFFFFFFFFFFFFFFFFFFFFFFFFFFFFFFF71
:10475800FFFFFFFFFFFFFFFFFFFFFFFFFFFFFFFF61
:10476800FFFFFFFFFFFFFFFFFFFFFFFFFFFFFFFF51
:10477800FFFFFFFFFFFFFFFFFFFFFFFFFFFFFFF749
:10478800FFFFFFFFFFFFFFFFFFFFFFFFFFFFFFFF31
:10479800FFFFFFFFFFFFFFFFFFFFFFFFFFFFFFFF21
:1047A800FFFFFFFFFFFFFFFFFFFFFFFFFFFFFFFF11
:1047B800FFFFFFFFFFFFFFFFFFFFFFFFFFFFFFF709
:1047C800FFFFFFFFFFFFFFFFFFFFFFFFFFFFFFFFF1
:1047D800FFFFFEF4C1B0C8D0E0E8E0E0E0E0E0E0D0
:1047E800E8E8E0E8E8E0E0E0E0E0E0D0C8C0EBFFBF
:1047F800FFFFFFFFFFFFFFFFFFFFFFFFFFFFFFFFC1
:10480800FFFFFFFFFFFFFFFFFFFFFFFFFFFFFFFFB0
:10481800FFFFFFFFFFFFFFFFFFFFFFFFFFFFFFFFA0
:10482800FFFFFFFFFFFFFFFFFFFFFFFFFFFFFFFF90
:10483800FFFFF7FFFFFFFFFFFFFFFFFFFFFFFFFF88
:10484800FFFFFFFFFFFFFFFFFFFFFFFFFFFFFFFF70
:10485800FFFFFFFFFFFFFFFFFFFFFFFFFFFFFFFF60
:10486800FFFFFFFFFFFFFFFFFFFFFFFFFFFFFFFF50
:10487800FFFFF7FFFFFFFFFFFFFFFFFFFFFFFFFF48
:10488800FFFFFFFFFFFDF3C9B8C0D0D8D8E0E0E0D4
:10489800E8E8E8E8E0E0E0E0E0E0E0E0D8D8B8D335
:1048A800FFFFFFFFFFFFFFFFFFFFFFFFFFFFFFFF10
:1048B800FFFFFFFFFFFFFFFFFFFFFFFFFFFFFFFF00
:1048C800FFFFFFFFFFFFFFFFFFFFFFFFFFFFFFFFF0
:1048D800FFFFFFFFFFFFFFFFFFFFFFFFFFFFFFFFE0
:1048E800FFF7FFFFFFFFFFFFFFFFFFFFFFFFFFFFD8
:1048F800FFFFFFFFFFFFFFFFFFFFFFFFFFFFFFFFC0
:10490800FFFFFFFFFFFFFFFFFFFFFFFFFFFFFFFFAF
:10491800FFFFFFFFFFFFFFFFFFFFFFFFFFFFFFFF9F
:10492800FFF7FFFFFFFFFFFFFFFFFFFFFFFFFFFF97
:10493800FFFFFFFFFFFFFFFFFDD3A8C0D0E0E0E0CF
:10494800E0E0E8E8E0E0E0E0E0E0E0D8E0E0D0B88F
:10495800FCFFFFFFFFFFFFFFFFFFFFFFFFFFFFFF62
:10496800FFFFFFFFFFFFFFFFFFFFFFFFFFFFFFFF4F
:10497800FFFFFFFFFFFFFFFFFFFFFFFFFFFFFFFF3F
:10498800FFFFFFFFFFFFFFFFFFFFFFFFFFFFFFFF2F
:10499800FFF7FFFFFFFFFFFFFFFFFFFFFFFFFFFF27
:1049A800FFFFFFFFFFFFFFFFFFFFFFFFFFFFFFFF0F
:1049B800FFFFFFFFFFFFFFFFFFFFFFFFFFFFFFFFFF
:1049C800FFFFFFFFFFFFFFFFFFFFFFFFFFFFFFFFEF
:1049D800FFF7FFFFFFFFFFFFFFFFFFFFFFFFFFFFE7
:1049E800FFFFFFFFFFFFFFFFFFFFFEFCC1C0D0D8A6
:1049F800E0E0E8E8E0E0E0E0E0E0E0E8E0E0E0D0A7
:104A0800B0FEFFFFFFFFFFFFFFFFFFFFFFFFFFFFFE
:104A1800FFFFFFFFFFFFFFFFFFFFFFFFFFFFFFFF9E
:104A2800FFFFFFFFFFFFFFFFFFFFFFFFFFFFFFFF8E
:104A3800FFFFFFFFFFFFFFFFFFFFFFFFFFFFFFFF7E
:104A4800FFFFF7FFFFFFFFFFFFFFFFFFFFFFFFFF76
:104A5800FFFFFFFFFFFFFFFFFFFFFFFFFFFFFFFF5E
:104A6800FFFFFFFFFFFFFFFFFFFFFFFFFFFFFFFF4E
:104A7800FFFFFFFFFFFFFFFFFFFFFFFFFFFFFFFF3E
:104A8800FFFFF7FFFFFFFFFFFFFFFFFFFFFFFFFF36
:104A9800FFFFFFFFFFFFFFFFFFFFFFFFFFFCB1B8B6
:104AA800D0E0D8E0E0E0E8E0E0E0E0D8E0E0E0E016
:104AB800C0CAFFFFFFFFFFFFFFFFFFFFFFFFFFFF72
:104AC800FFFFFFFFFFFFFFFFFFFFFFFFFFFFFFFFEE
:104AD800FFFFFFFFFFFFFFFFFFFFFFFFFFFFFFFFDE
:104AE800FFFFFFFFFFFFFFFFFFFFFFFFFFFFFFFFCE
:104AF800FFFFF7FFFFFFFFFFFFFFFFFFFFFFFFFFC6
:104B0800FFFFFFFFFFFFFFFFFFFFFFFFFFFFFFFFAD
:104B1800FFFFFFFFFFFFFFFFFFFFFFFFFFFFFFFF9D
:104B2800FFFFFFFFFFFFFFFFFFFFFFFFFFFFFFFF8D
:104B3800FFFFF7FFFFFFFFFFFFFFFFFFFFFFFFFF85
:104B4800FFFFFFFFFFFFFFFFFFFFFFFFFFFFFFFC70
:104B5800B0C0D0D8E0E8E8E0E0E0E0E0E0E0E0E0A5
:104B6800D8A8FDFFFFFFFFFFFFFFFFFFFFFFFFFFCD
:104B7800FFFFFFFFFFFFFFFFFFFFFFFFFFFFFFFF3D
:104B8800FFFFFFFFFFFFFFFFFFFFFFFFFFFFFFFF2D
:104B9800FFFFFFFFFFFFFFFFFFFFFFFFFFFFFFFF1D
:104BA800FFFFFFFFFFFFFFFFFFFFFFFFFFFFFFFF0D
:104BB800FFFFFFFFFFFFFFFFFFFFFFFFFFFFFFFFFD
:104BC800FFFFFFFFFFFFFFFFFFFFFFFFFFFFFFFFED
:104BD800FFFFFFFFFFFFFFFFFFFFFFFFFFFFFFFFDD
:104BE800FFFFFFFFFFFFFFFFFFFFFFFFFFFFFFFFCD
:104BF800FFFFFFFFFFFFFFFFFFFFFFFFFFF7FFFFC5
:104C0800FFD2B8D0E0E8E8E0E0E0E0E0E0E8E8E89B
:104C1800D8C0FBFFFFFFFFFFFFFFFFFFFFFFFFFF06
:104C2800FFFFFFFFFFFFFFFFFFFFFFFFFFFFFFFF8C
:104C3800FFFFFFFFFFFFFFFFFFFFFFFFFFFFFFFF7C
:104C4800F7FFFFFFFFFFFFFFFFFFFFFFFFFFFFFF74
:104C5800FFFFFFFFFFFFFFFFFFFFFFFFFFFFFFFF5C
:104C6800FFFFFFFFFFFFFFFFFFFFFFFFFFFFFFFF4C
:104C7800FFFFFFFFFFFFFFFFFFFFFFFFFFFFFFFF3C
:104C8800FFFFFFFFFFFFFFFFFFFFFFFFFFFFFFFF2C
:104C9800FFFFFFFFFFFFFFFFFFFFFFFFFFFFFFFF1C
:104CA800FFFFFFFFFFFFFFFFFFFFFFFFFFFFFFFF0C
:104CB800FFFFFCB0D0D8E0E0E0E0E0E0E0E8E8E8C2
:104CC800E0C8FAFFFFFFFFFFFEE3FBFBFBFCFDFF75
:104CD800FFFFFFFFFFFFFFFFFFFFFFFFDCFCFEFF03
:104CE800FFFFFFFFFFDBF3FBFBFCFCFFFFFFFFFF0A
:104CF800FFEF7B8C8C8494B5F7FFFFFFFFFFFFFF6E
:104D0800FFFFFFFFFFFFFFFFFFFFFFFFFFFFFFFFAB
:104D1800FFFFFFFFFFFFFFFFFFFFFFFFFFFFFFFF9B
:104D2800FFFFEF7B838C8494B5F7FFFFFFFFFFFF46
:104D3800FFFFFFFFFFFFFFFFFFFFFFFFFFFFFFFF7B
:104D4800FFFFFFFFFFFFFFFFFFFFFFFFFFFFFFFF6B
:104D5800FFFFFFFFFFFFFFFFFFFFFFFFFFFFFFFF5B
:104D6800FFFFFFFEA1D0E0E0E0E0E0E8E0E0E0E007
:104D7800E0D0E8FFFFFFFFFFECA8D0D0C0C0B0A193
:104D8800FEFFFFFFFFFFFFFFFFFFFFFEA1A8A0FD43
:104D9800FFFFFFFFFEA9C0C0C8C0B098FDFFFFFF1E
:104DA800FFAD08181818101008C6FFFFFFFFFFFF17
:104DB800FFFFFFFFFFFFFFFFFFFFFFFFFFFFFFFFFB
:104DC800FFFFFFFFFFFFFFFFFFFFFFFFFFFFFFFFEB
:104DD800FFFFAD08181818101008CEFFFFFFFFFFDF
:104DE800FFFFFFFFFFFFFFFFFFFFFFFFFFFFFFFFCB
:104DF800FFFFFFFFFFFFFFFFFFFFFFFFFFFFFFFFBB
:104E0800FFFFFFFFFFFFFFFFFFFFFFFFFFFFFFFFAA
:104E1800F7FFFFFFFFC9C8D8E0E8E0E8E0E0E0E01E
:104E2800D8D8E0FFFFFFFFFFCAC0D8D8D8D8D0C86D
:104E3800B1FFFFFFFFFFFFFFFFF7FFFCB8C8C0A0EF
:104E4800FEFFFFFFFFA0C8D0D8D8D0C8A8FEFFFF3C
:104E5800FF621020182018181010EFFFFFFFFFFF47
:104E6800FFFFFFFFFFFFFFFFFFFFFFFFFFFFFFFF4A
:104E7800FFFFFFFFFFFFFFFFFFFFFFFFFFFFFFFF3A
:104E8800FFFF630820182020201010EFFFFFFFFF0E
:104E9800FFFFFFFFFFFFFFFFFFFFFFFFFFFFFFFF1A
:104EA800FFFFFFFFFFFFFFFFFFFFFFFFFFFFFFFF0A
:104EB800FFFFFFFFFFFFFFFFFFFFFFFFFFFFFFFFFA
:104EC800FFFFFFFFFFFEB9D0E8E0D8E0E0E0E0E058
:104ED800D8D8F1FFFFFFFFFEA8D0E0E0E0E0E0E077
:104EE800B8FEFFFFFFFFFFFFFFFFFFD2D0D8D0B013
:104EF800FCFFFFFFFFFDA8C0C0C0C8C0A8FDFFFFA2
:104F0800EF102018202020202010C6FFFFFFFFFFF1
:104F1800FFFFFFFFFFFFFFFFFFFFFFFFFFFFFFFF99
:104F2800FFFFFFFFFFFFFFFFFFFFFFFFFFFFFFFF89
:104F3800FFE7101820202018182010D6FFFFFFFFC9
:104F4800FFFFFFFFFFFFFFFFFFFFFFFFFFFFFFFF69
:104F5800FFFFFFFFFFFFFFFFFFFFFFFFFFFFFFFF59
:104F6800FFFFFFFFFFFFFFFFFFFFFFFFFFFFFFFF49
:104F7800FFFFFFFFFFFFFEB8E0D8E0E0E0E0E0E081
:104F8800D8D0FAFFFFFFFFFCC0D8E0E0E0E8E0D8A7
:104F9800B9FFFFFFFFFFFFFFFFFFFEB8D8E0D0B06B
:104FA800FEFFFFFFFFFFFFFDF4ECECF4DCFFFFFF6B
:104FB800BD102029182020181818E7FFFFFFFFFF51
:104FC800FFFFFFFFFFFFFFFFFFFFFFFFFFFFFFFFE9
:104FD800FFFFFFFFFFFFFFFFFFFFFFFFFFFFFFFFD9
:104FE800FFAD082020202020201818EFFFFFFFFF2A
:104FF800FFFFFFFFFFFFFFFFFFFFFFFFFFFFFFFFB9
:10500800FFFFFFFFFFFFFFFFFFFFFFFFFFFFFFFFA8
:10501800FFFFFFFFFFFFFFFFFFFFFFFFFFFFFFFF98
:10502800FFFFFFFFFFFFFFFCB8D0E0E0E0E0E0E0BB
:10503800D8C0FBFFFFFFFFE2D0D8E0D8E0E0E0C82F
:10504800EBFFFFFFFFFFFFFFFFFFF4C0E0E8C8B979
:10505800FFFFFFFFFEFEFFFFFFFFFFFFFFFFFFFF5A
:105068006B102020202020181052FFFFFFFFFFFFA9
:10507800FFFFFFFFFFFFFFFFFFFFFFFFFFFFF7EF50
:10508800EFEFEFEFEFEFEFEFF7FFFFFFFFFFFFFFB0
:10509800FF73082020182020201062FFFFFFFFFF69
:1050A800FFFFFFFFFFFFFFFFFFFFFFEFEFEFEFEF58
:1050B800EFEFEFEFEFEFF7FFFFFFFFFFFFF7EFEF88
:1050C800EFEFEFEFEFEFE7E7EFF7F7EFEFE7EFF7E8
:1050D800F7FFFFFFFFFFFFFFCAC8E0E0E0E0E0E006
:1050E800D0B0FDFFFFFFFEC0E0E0E0E0E0E8D8B8A8
:1050F800FDFFFFFFFFFFFFFFFFFFCAC8E0E8C8ECA6
:10510800FFFFFFA9B8C0B8C0C1E2FEFFFFFFFFFF65
:10511800291820201820201808A4FFFFFFFFFFFFF0
:10512800FFFFFFFFFFFFFFFFFFFFFFB55A31202002
:1051380020202120212020201821A4FFFFFFFFFF8D
:10514800F7211820202020182010B5FFFFFFFFFFAF
:10515800FFFFFFFFFFFFFFFF9C52291820202020A0
:10516800211820202120182173FFFFFFFF94082019
:1051780020202020202820202028282820202028FF
:1051880020184AE7FFFFFFFFFDB8E0D8E0E0E0E0C5
:10519800D0B1FEFFFFFFFDC8E8E0D8E0E0E0D0A80E
:1051A800FEFFFFFFFFFFFFFFFFFEA8C8E8E0C0FE0D
:1051B800FFFFFDB8D8D8E0E8D8B898FEFFFFFFC6D3
:1051C800102020202020202010DEFFFFFFFFFFFFFF
:1051D800FFFFFFFFFFFFFFFFFFAD2910181820207A
:1051E8002020181810102020201810D6FFFFEF7B61
:1051F8005A182020182020201820738C73737B6382
:105208005AF7FFFFFFFFA4181010181820201818CD
:10521800181808081820181808A4FFFFFF411018CC
:10522800181820202818201810080800080018202E
:105238002018006BFFFFFFFFFFC1D8E0E0E0E0E8C7
:10524800C0ECFFFFFFFFD3C8E0E0E0E0E8E8D0D320
:10525800FFFFFFFFFFFFFFFFFFFCC0D8E8D8D1FF2B
:10526800FFFFE3C0E8E8E8E0D8D8B0CBFFFFFF8C49
:10527800082028202020201041FFFFFFFFFFFFFF0C
:10528800FFFFFFFFFFFFFFFF6210202020182020F4
:10529800201810316B9C3118202018ADFFFF180022
:1052A80010182020202020202018080808080800AE
:1052B80073FFFFFFEF4A1018202020201820181035
:1052C80039739CB552181820187BFFFFD610202080
:1052D800202020202020102084A5949C9CB56B10B1
:1052E8002010104AFFFFFFFFFFE2D0E0E0E0E0D827
:1052F800B8FEFFFFFFFEA9D0E0E0E8E8E0E8C8FC60
:10530800FFFFFFFFFFFFFFFFFFF2D0E0D8D0FBFF5A
:10531800FFFFC1D0E8E8E8E8E8E0C0DBFFFFFF39BD
:10532800102820202020200894FFFFFFFFFFFFFF08
:10533800FFFFFFFFFFFFF729101818202028202063
:105348001020B5FFFFF72018201810DEFF7B08316A
:1053580020201820202020201818292129211894DD
:10536800FFFFFFD61810202018202020201031C65B
:10537800FFFFFFFF5210202008B5FFFF8C102020F0
:1053880020202020201052F7FFFFFFFFFFFF8C0096
:1053980018200873FFFFFFFFFFFCC0D8E8E8D8C853
:1053A800F3FFFFFFFFFDB0D8E8E0E0E0E8E0D8E178
:1053B800D9D1C9D1D1C9D1C9D1D0E0E0D8B8FDFF80
:1053C800FFFEB0D0E0E8E0E0E8E0B8FEFFFFD6106E
:1053D8002020202020201810CEFFFFFFFFFFFFFF16
:1053E800FFFFFFFFFFFF390820202020202020108A
:1053F80029E7FFFFFFB51020281039FFFFEFFFCE88
:10540800102020202020202018C5FFFFF7F7FFFFDD
:10541800FFFFF71010202020202020200852FFFF37
:10542800FFFFFFE61018202010E7FFFF4A1020209A
:10543800202020201052FFFFFFFFFFFFFFFF311841
:10544800182010B5FFFFFFFFFFFCC0D8E8E0D0A888
:10545800FEFFFFFFFFF3C8E0E8E8E0E8E0D8D0C8C7
:10546800C0B8C0C0C0B8C0C0C8D8E8E8D0B1FEFF56
:10547800FFFCC0D8E0E0E0E0E0D8C0FFFFFF9C08F8
:105488002018182020201029F7FFFFFFFFFFFFFF3B
:10549800FFFFFFFFFF5200202020202020201810AF
:1054A800EFFFFFFFFF631020201083FFFFFFFFAD1A
:1054B800081820202018201029FFFFFFFFFFFFFFFA
:1054C800FFFF4108202018202020201041FFFFFF67
:1054D800FFFFFF9C102018104AFFFFE6101820203D
:1054E8002020202008C6FFFFFFFFFFFFFFD6102067
:1054F800201818EFFFFFFFFFFFFCC0D8E0D8C0EC72
:10550800FFFFFFFFFFC9D0E0E8E0E8D8D8C8D9DA44
:10551800CAD2CACAD2CAD2EAD1D8E0E0C0CBFFFF09
:10552800FFE2D0E0E0E0E0E0D8C8F3FFFFFF521070
:105538002020202018201073FFFFFFFFFFFFFFFF30
:10554800FFFFFFFFB508202020202020181800B5F5
:10555800FFFFFFFFC51018202010C6FFFFFFFF4AFE
:1055680018202020182020087BFFFFFFFFFFFFFFE7
:10557800FFA400202020202020182008CEFFFFFFB5
:10558800FFFFFF39182018109CFFFFA508201818E6
:105598001820202020F7FFFFFFFFFFFFFF940820BF
:1055A800201062FFFFFFFFFFFFFCC0D8E0C8B9FF73
:1055B800FFFFFFFFFEB8D8E8E0E0E0E0D0B8FDFF6D
:1055C800FFFFFFFFFFFFFFFED9D8E0E0B8FDFFFFB8
:1055D800FEB8E0E0E0E0E0E0D8B8FDFFFFDE102034
:1055E80020202020202008C5FFFFFFFFFFFFFFFF2E
:1055F800FFFFFFFF4110202020202020201031F73E
:10560800FFFFFF94081820201031FFFFFFFFDE1076
:105618002020202020182008BDFFFFFFFFFFFFFFEC
:10562800FF2018202020202020201052FFFFFFFFFD
:10563800FFFFD61018202008DEFFFF521018202088
:10564800202020186BFFFFFFFFFFFFFFFF411820FE
:105658002010A4FFFFFFFFFFFFFBC8D8D0B0FDFF5D
:10566800FFFFFFFFECC0E0E0E0D8E0E8D0B9FEFFC4
:10567800FFFFFFFFFFFFFFFDB8D8E0D8B8FEFFFF30
:10568800FDC0E0E0E0E8E0E0C8A8FEFFFF9C0820DD
:1056980020202020201829F7FFFFFFFFFFFFFFFF32
:1056A800FFFFFFDE10182020182020202018396B5B
:1056B8005A5A29101818201000B5FFFFFFFFA5102F
:1056C8002020202020201820EFFFFFFFFFFFFFFFF2
:1056D800CE08202020202020202008A4FFFFFFFF44
:1056E800FFFF9C082018104AFFFFEF181820202001
:1056F80020202010B5FFFFFFFFFFFFFFDE1820204E
:105708002018DEFFFFFFFFFFFFE2D0D8C0FCFFFF3D
:10571800FFFFFFFFC2C8E0E8E0E0D8E0D0E3FFFF0A
:10572800FFFFFFFFFFFFFFFBC0D8E0D0E2FFFFFF56
:10573800DBC8E0E8E0E0E0E0C8CAFFFFFF5A10205D
:1057480018202820201073FFFFFFFFFFFFFFFFFF37
:10575800FFFFFF9C10201820202020202028181050
:1057680008081818201010107BFFFFFFFFFF6B10B0
:105778002020202020201062FFFFFFFFFFFFFFFFF7
:105788006B10182020202020202018BDFFFFFFFFCD
:10579800FFFF521020200894FFFFBD082020202082
:1057A80020202018EFFFFFFFFFFFFFFFAD0820209C
:1057B8001841FFFFFFFFFFFFFEC0D0C0D2FFFFFF71
:1057C800FFFFFFFEB1C8E0E0E0E0E0E8C0FDFFFF5A
:1057D800FFFFFFFFFFFFFFDAD0D8D8C0FCFFFFFEB6
:1057E800B1D0E0E0E0E0E0E0C0FCFFFFEF181820F7
:1057F800281818201810B5FFFFFFFFFFFFFFFFFF55
:10580800FFFFFF5218202820202020202020414A76
:10581800414A4141414263C6FFFFFFFFFFF71818A5
:1058280018202020202008ADFFFFFFFFFFFFFFF713
:105838002918202020202020202018C6FFFFFFFF45
:10584800FFEF1820182008D6FFFF7308202020201B
:1058580020201852FFFFFFFFFFFFFFFF5A101820FC
:10586800108CFFFFFFFFFFFFFDC0D0A0FEFFFFFF72
:10587800FFFFFFFCB0D0E0E0E8E0E0D8B8FEFFFFB3
:10588800FFFFFFFFFFFFFEB8D8E0C8B0FEFFFFFD37
:10589800B8D0E0E0E8E0E0D8B8FEFFFFAD0820208F
:1058A800182020201818EFFFFFFFFFFFFFFFFFFF62
:1058B800FFFFE7182020202018202020201094FF28
:1058C800FFFFFFFFFFFFFFFFFFFFFFFFFFC51020E8
:1058D80020202020201818E6FFFFFFFFFFFFFFCE43
:1058E8001020202020202020202010ADFFFFFFFFC7
:1058F800FFBD0820281839FFFFFF2910202020208D
:10590800202008A4FFFFFFFFFFFFFFE61018201864
:1059180008CEFFFFFFFFFFFFC2B8A8FEFFFFF7FF9B
:10592800FFFFFFFAD0D8E0E8E8E0D8C8DAFFFFFFC9
:10593800FFFFFFFFFFFFF4C0D8E0C8B1FFFFFFE2A1
:10594800C0D0D8E0E0E0D8C8DAFFFFFF6B10202015
:10595800202018181073FFFFFFFFFFFFFFFFFFFF56
:10596800FFFFE6181820202020202020201820DE05
:10597800FFFFFFFFFFFFFFFFFFFFFFFFFF6B082099
:1059880018202020201073FFFFFFFFFFFFFFFFB547
:10599800102020202020202020201031E6FFFFFFAB
:1059A800FF6B1020201083FFFFC61020202020202E
:1059B800201818EEFFFFFFFFFFFFE6311820201820
:1059C80031FFFFFFFFFFFFFE9898FDFFFFFFFFFF7E
:1059D800FFFFFFD1C8D8E0E8E0E0D0B0FDFFFFFF4F
:1059E800FFFFFFFFFFFFE4B8D8D8C0ECFFFFFFD2EE
:1059F800C0D0E0E0E0E0D0B8FCFFFFFF4A1018207C
:105A080020182020107BEFCECECECECECECECEB577
:105A1800E7FFFF3110202018202020201820180828
:105A28007BBDCECED6CEC6C6FFFFFFFFFF42101805
:105A38002020202020107BE6CEB5DEFFFFFFFFE60A
:105A480008201820202020202020201810849CFFC7
:105A5800FF2018202810C5FFFFB508202020182097
:105A6800181831CED6CECED6CE8C181820202010BD
:105A780083FFFFFFFFFFFFDB98F4FFFFFFFFFFFF40
:105A8800FFFFFFFCB0D0E8E0E8E0D0A8FEFFFFFF92
:105A9800FFFFFFFFFFFFFEB0D0E0B8FDFFFFFFFCF8
