:020000020000FC
:0200000033C00B
:0200040018954D
:02000800189549
:02000C00189545
:02001000189541
:0200140018953D
:02001800189539
:02001C00189535
:02002000189531
:0200240018952D
:02002800189529
:02002C00189525
:02003000189521
:0200340018951D
:02003800189519
:02003C00189515
:02004000189511
:0200440018950D
:02004800189509
:02004C00189505
:02005000189501
:020054001895FD
:020058001895F9
:02005C001895F5
:020060001895F1
:020064001895ED
:1000680058E05EBF5FEF5DBF0E942E0A0E94350A0E
:100078000E94380AC0E0D1E0E0E0F5E10E94680A99
:1000880050E05093B20151E05093B30151E05093C6
:100098008F010E94E409C0E0D1E0E2E2F5E10E94AC
:1000A800680A50E05093B20151E05093B30151E017
:1000B80050938F010E94E409C0E0D1E0ECE4F5E13F
:1000C8000E94680A50E05093B20151E05093B30186
:1000D80051E050938F010E94E409C0E0D1E0EEE6C0
:1000E800F5E10E94680A50E05093B20151E0509344
:1000F800B30151E050938F010E94E409C0E0D1E0C0
:10010800E0E9F5E10E94680A50E05093B20151E03D
:100118005093B30151E050938F010E94E409C0E06D
:10012800D1E0E6EBF5E10E94680A50E05093B20195
:1001380051E05093B30151E050938F010E94E409BC
:10014800C0E0D1E0E8EBF5E10E94680A50E0509386
:10015800B20151E05093B30151E050938F010E94D6
:10016800E409C0E0D1E0E6EBF5E10E94680A50E05E
:100178005093B20151E05093B30151E050938F0175
:100188000E94E409EFD30E946B0950E05093A60146
:100198005093A70152E05093A401C0E0D1E0ECEDE8
:1001A800F5E10E94680A50E05093B00151E0509385
:1001B800B10169D754E05093A60150E05093A701CC
:1001C80054E05093A401C0E0D1E0EEE0F6E10E94D3
:1001D800680A50E05093B00151E05093B10153D7F1
:1001E80059E05093A60150E05093A70155E0509371
:1001F800A401C0E0D1E0EEE1F6E10E94680A50E017
:100208005093B00151E05093B1013DD75AE050935B
:10021800A60150E05093A70152E05093A401C0E01A
:10022800D1E0EEE2F6E10E94680A50E05093B00196
:1002380051E05093B10127D75CE05093A60150E0FC
:100248005093A70152E05093A401C0E0D1E0EEE33F
:10025800F6E10E94680A50E05093B00151E05093D3
:10026800B10111D751E65093A60150E05093A70170
:1002780052E05093A401C0E0D1E0E0E5F6E10E942D
:10028800680A50E05093B00151E05093B101FBD699
:1002980052E65093A60150E05093A70152E05093C4
:1002A800A401C0E0D1E0E0E6F6E10E94680A50E06F
:1002B8005093B00151E05093B101E5D653E6509305
:1002C800A60150E05093A70152E05093A401C0E06A
:1002D800D1E0E0E7F6E10E94680A50E05093B001EF
:1002E80051E05093B101CFD654E65093A60150E0A7
:1002F8005093A70152E05093A401C0E0D1E0E0E898
:10030800F6E10E94680A50E05093B00151E0509322
:10031800B101B9D655E65093A60150E05093A70114
:1003280052E05093A401C0E0D1E0E0E9F6E10E9478
:10033800680A50E05093B00151E05093B101A3D640
:1003480056E65093A60150E05093A70152E050930F
:10035800A401C0E0D1E0E0EAF6E10E94680A50E0BA
:100368005093B00151E05093B1018DD657E65093A8
:10037800A60150E05093A70152E05093A401C0E0B9
:10038800D1E0E0EBF6E10E94680A50E05093B0013A
:1003980051E05093B10177D650E75093A60150E051
:1003A8005093A70152E05093A401C0E0D1E0E4ECDF
:1003B800F6E10E94680A50E05093B00151E0509372
:1003C800B10161D651EA5093A60150E05093A701BC
:1003D80055E05093A401C0E0D1E0EAEDF6E10E94B7
:1003E800680A50E05093B00151E05093B1014BD6E8
:1003F80050EB5093A60150E05093A70152E0509360
:10040800A401C0E0D1E0EAEEF6E10E94680A50E0FB
:100418005093B00151E05093B10135D654EB50934D
:10042800A60150E05093A70152E05093A401C0E008
:10043800D1E0E8E0F7E10E94680A50E05093B0018B
:1004480051E05093B1011FD656EB5093A60150E0EE
:100458005093A70155E05093A401C0E0D1E0EAE130
:10046800F7E10E94680A50E05093B00151E05093C0
:10047800B10109D657EB5093A60150E05093A7015C
:1004880052E05093A401C0E0D1E0EAE2F7E10E9413
:10049800680A50E05093B00151E05093B101F3D590
:1004A8005FEB5093A60150E05093A70156E050939C
:1004B800A401C0E0D1E0EAE3F7E10E94680A50E055
:1004C8005093B00151E05093B101DDD550EC5093F9
:1004D800A60150E05093A70159E05093A401C0E051
:1004E800D1E0ECE4F7E1F0D750E05093B00151E0EF
:1004F8005093B101C8D558EC5093A60150E05093E1
:10050800A7015DE05093A401C0E0D1E0EAE5F7E17E
:10051800DBD750E05093B00151E05093B101B3D50F
:100528005CEC5093A60150E05093A70152E0509321
:10053800A401C0E0D1E0ECE4F7E1C6D750E0509365
:10054800B00151E05093B1019ED550ED5093A601F2
:1005580050E05093A70153E05093A401C0E0D1E0CC
:10056800E0E6F7E1B1D750E05093B00151E0509385
:10057800B10189D552ED5093A60150E05093A701DF
:1005880055E05093A401C0E0D1E0EEE6F7E19CD736
:1005980050E05093B00151E05093B10174D553ED40
:1005A8005093A60150E05093A70154E05093A40142
:1005B800C0E0D1E0E8E7F7E187D750E05093B00119
:1005C80051E05093B1015FD55AED5093A60150E028
:1005D8005093A70152E05093A401C0E0D1E0EAE8AB
:1005E800F7E172D750E05093B00151E05093B10158
:1005F8004AD55BED5093A60150E05093A70152E015
:100608005093A401C0E0D1E0E0E9F7E15DD750E004
:100618005093B00151E05093B10135D55CED509342
:10062800A60150E05093A70152E05093A401C0E006
:10063800D1E0E6E9F7E148D750E05093B00151E046
:100648005093B10120D550EE5093A60150E050933D
:10065800A70150E15093A401C0E0D1E0ECE9F7E133
:1006680033D750E05093B00151E05093B1010BD50E
:1006780051EE5093A60150E05093A70150E15093DA
:10068800A401C0E0D1E0E4EAF7E11ED750E05093BE
:10069800B00151E05093B101F6D45FEE5093A6013A
:1006A80050E05093A70156E05093A401C0E0D1E078
:1006B800ECEAF7E109D750E05093B00151E05093CC
:1006C800B101E1D452EF5093A60150E05093A70135
:1006D8005CE05093A401C0E0D1E0E4EBF7E1F4D68C
:1006E80050E05093B00151E05093B101CCD456EF93
:1006F8005093A60150E05093A70154E05093A401F1
:10070800C0E0D1E0E6ECF7E1DFD650E05093B0016D
:1007180051E05093B101B7D425D1D9D5C0E0D1E08B
:10072800E6EBF5E1D1D650E05093B20151E0509399
:10073800B30151E050938F0143D6C0E0D1E0E8ED1A
:10074800F7E1C2D650E05093B20151E05093B301A3
:1007580051E050938F0134D691D25091900150932B
:10076800A201509191015093A301C0E0D1E0E6EFBE
:10077800F7E1AAD650E05093B20151E05093B3018B
:1007880051E050938F01EFD5C0E0D1E0E6E1F8E108
:100798009BD650E05093B20151E05093B30151E021
:1007A80050938F01E0D55091A3015093B70198D58C
:1007B8005BE85093B20151E05093B30151E050937C
:1007C8008F01D1D55091A2015093B70189D55BE82B
:1007D8005093B20151E05093B30151E050938F010F
:1007E800EFD56091A2017091A301C5E2D3E958D673
:1007F80000FE10C0C0E0D1E0EAE1F8E165D650E0C3
:100808005093B20151E05093B30151E050938F01DE
:10081800D7D57CC06091A2017091A301C8E2D3E949
:100828003FD600FE10C0C0E0D1E0E4E3F8E14CD6CA
:1008380050E05093B20151E05093B30151E050930E
:100848008F01BED563C06091A2017091A301C1E47C
:10085800D3E926D600FE10C0C0E0D1E0EEE4F8E10E
:1008680033D650E05093B20151E05093B30151E0B8
:1008780050938F01A5D54AC06091A2017091A30140
:10088800C7E5D3E80DD600FE10C0C0E0D1E0E8E629
:10089800F8E11AD650E05093B20151E05093B301F9
:1008A80051E050938F018CD531C06091A2017091B5
:1008B800A301C0E0D0E0F4D5009400FE18C0C0E069
:1008C800D1E099275991E2E8F8E105D6A2E6B1E02E
:1008D800F1D5A0E0B1E09C9350E05093B20151E013
:1008E8005093B30151E050938F016AD50FC0C0E017
:1008F800D1E0E0E9F8E1E8D550E05093B20151E0E9
:100908005093B30151E050938F015AD5C0E0D1E024
:10091800EEEBF8E1D9D550E05093B20151E0509395
:10092800B30151E050938F014BD5C0E0D1E0E6EB25
:10093800F5E1CAD550E05093B20151E05093B301AC
:1009480051E050938F013CD58895FECFE395AEEFEB
:1009580094E19A95F1F7AA95D9F7DA95C1F7EA954E
:10096800B1F70895389A399A3A9A3B9A3C9A409A3C
:10097800419A429A439A449A13D4D6E9E0E0E6CFE2
:100988009DD44398429A409A419A409895E39A9503
:10099800F1F70000509193015F774F995068509399
:1009A80093015F7B4E995064509393015F7D4D99FD
:1009B8005062509393015F7E4C995061509393011C
:1009C800577F4B995860509393015B7F4A995460C5
:1009D800509393015D7F19995260509393015E7F04
:1009E8001899516050939301409A95E39A95F1F7BD
:1009F8000000409895E39A95F1F700005091920114
:100A08005F774F995068509392015F7B4E9950647D
:100A1800509392015F7D4D995062509392015F7E91
:100A28004C99506150939201577F4B99586050935D
:100A380092015B7F4A995460509392015D7F1999A6
:100A48005260509392015E7F1899516050939201C1
:100A5800409A95E39A95F1F7000008952FD44398AA
:100A6800429A409A419A409895E39A95F1F7000086
:100A7800509197015F774F995068509397015F7B2A
:100A88004E995064509397015F7D4D9950625093F1
:100A980097015F7E4C99506150939701577F4B990E
:100AA8005860509397015B7F4A995460509397011F
:100AB8005D7F19995260509397015E7F1899516034
:100AC80050939701409A95E39A95F1F70000409862
:100AD80095E39A95F1F70000509196015F774F9949
:100AE8005068509396015F7B4E99506450939601DD
:100AF8005F7D4D995062509396015F7E4C9950618D
:100B080050939601577F4B995860509396015B7F9D
:100B18004A995460509396015D7F19995260509399
:100B280096015E7F1899516050939601409A95E31B
:100B38009A95F1F70000409895E39A95F1F700002F
:100B4800509195015F774F995068509395015F7B5D
:100B58004E995064509395015F7D4D995062509322
:100B680095015F7E4C99506150939501577F4B9941
:100B78005860509395015B7F4A9954605093950152
:100B88005D7F19995260509395015E7F1899516065
:100B980050939501409A95E39A95F1F70000409893
:100BA80095E39A95F1F70000509194015F774F997A
:100BB8005068509394015F7B4E9950645093940110
:100BC8005F7D4D995062509394015F7E4C995061BE
:100BD80050939401577F4B995860509394015B7FD1
:100BE8004A995460509394015D7F199952605093CB
:100BF80094015E7F1899516050939401409A95E34F
:100C08009A95F1F70000089559D34398429A409A6B
:100C1800419A409895E39A95F1F700005091980110
:100C28005F774F995068509398015F7B4E99506455
:100C3800509398015F7D4D995062509398015F7E63
:100C48004C99506150939801577F4B995860509335
:100C580098015B7F4A995460509398015D7F199978
:100C68005260509398015E7F189951605093980193
:100C7800409A95E39A95F1F70000089550E0509353
:100C8800A6019AD1509199015093AC0150919A01C3
:100C98005093AD016091AC017091AD01C8E0D4E50D
:100CA800FFD300FE0CC058E05093900154E55093D8
:100CB8009101C2E6D1E0E8EDF8E106D4089560912B
:100CC800AC017091AD01C0E2D4E5EAD300FE0CC0DE
:100CD80050E25093900154E550939101C2E6D1E05F
:100CE800EAEEF8E1F1D308956091AC017091AD019D
:100CF800C9E8D9E8D5D300FE0CC059E85093900153
:100D080052E150939101C2E6D1E0ECEFF8E1DCD377
:100D1800089557E65093A6014FD1609199017091BB
:100D28009A01C7E4D7E4BCD300FE0CC057E4509343
:100D3800900153E850939101C2E6D1E0E0E1F9E176
:100D4800C3D308955FEB5093A60136D15091990112
:100D58005093AC0150919A015093AD0157E65093CE
:100D6800A6012AD16091990170919A01C7E5D3E84B
:100D780097D300FE0CC057E55093900153E8509369
:100D88009101C2E6D1E0E4E2F9E19ED3089557E685
:100D98005093A60111D16091990170919A01C1E80F
:100DA800D4E97ED300FE0CC051E85093900154E979
:100DB80050939101C2E6D1E0E4E3F9E185D30895C7
:100DC80050E05093A601F8D06091990170919A0172
:100DD800C5E7D5E765D300FE0BC055E750939001F2
:100DE80050939101C2E6D1E0E8E4F9E16DD30895AA
:100DF80054E05093A601E0D06091990170919A0156
:100E0800C0E0D0E84DD300FE3CC061D253E050931F
:100E1800A00150E05093A101CBD1DAE0E0E096DDEB
:100E28005FEF5093A00150E05093A10104D253E822
:100E38005093A00150E05093A101FDD157E5509384
:100E4800A00150E05093A101F6D1DCE2E1E07EDDA3
:100E580050ED5093A601B0D06091990170919A011C
:100E6800C0E0D9E91DD300FE0CC057E550939001AE
:100E780053E850939101C2E6D1E0E0E6F9E124D3CA
:100E880008955FEB5093A60197D0609199017091F6
:100E98009A01C2E0D0E004D300FE1BC0B5DE609129
:100EA80098016430B1F46CDD609192017091930106
:100EB800C1E8D4E9F5D200FE0CC051E85093900186
:100EC80054E950939101C2E6D1E0E2E7F9E1FCD29E
:100ED800089553ED5093A60190D050919B015093E3
:100EE800A80150919C015093A90150919D015093E4
:100EF800AA0150919E015093AB016091A901C3E9E9
:100F0800CAD2102C6091A901C4E9C5D2402C6091C5
:100F1800A901C8E9C0D2202C6091A901C7E7BBD2BA
:100F2800002D6091A901C6E1B6D24128642C26287B
:100F3800122C0129402E602C6428162C10FE0CC09F
:100F480051E45093900153E950939101C2E6D1E0E6
:100F5800E6E8F9E1B9D2089557E65093A60176D0AC
:100F680060919F01673461F457E45093900150E019
:100F780050939101C2E6D1E0EAE9F9E1A5D20895DA
:100F8800A6D150E05093A0015093A10111D1DAE00D
:100F9800E0E0DCDC50E05093A6010ED050919901BE
:100FA8005093900150919A0150939101C2E6D1E07B
:100FB800E0EBF9E189D2F4C08AD150EB5093A0015B
:100FC80050E05093A101F4D050E05093A001509309
:100FD800A10131D15091A6015093A00150E0509346
:100FE800A101E6D06BD1CCDC5091920150939901CC
:100FF8005091930150939A016AC169D150EB509373
:10100800A00150E05093A101D3D050E05093A0012B
:101018005093A10110D15091A6015093A00150E026
:101028005093A101C5D04AD119DD50919401509334
:101038009B015091950150939C01509196015093BA
:101048009D015091970150939E0141C140D150EBB1
:101058005093A00150E05093A101AAD050E05093C2
:10106800A0015093A101E7D05091A6015093A0018F
:1010780050E05093A1019CD021D1C6DD5091980138
:1010880050939F0124C123D15091A6015093A001F0
:101098005091A7015093A1018BD0C1E3D1E0ECECB2
:1010A800F8E112D251E35093B20151E05093B301E9
:1010B80051E050938F0157D15091A7015093B70138
:1010C8000FD15BE85093B20151E05093B30151E066
:1010D80050938F0148D15091A6015093B70100D188
:1010E8005BE85093B20151E05093B30151E0509343
:1010F8008F0139D1C1E3D1E0E4EDF8E1E5D151E365
:101108005093B20151E05093B30151E050938F01D5
:101118002AD1D4D05091A4015093B5016091B50162
:10112800662309F429C070DD509198015093B801E5
:10113800C1E3D1E0E6EDF8E1C7D151E35093B20144
:1011480051E05093B30151E050938F010CD150916D
:10115800B8015093B701C4D05BE85093B20151E095
:101168005093B30151E050938F01FDD01090B50119
:101178001A941092B501B9F6AAD059E05093AE016D
:1011880051E050938F0159D15091B0015093B20161
:101198005091B1015093B30151E050938F0110C1A8
:1011A8004498DFE0E0E0D2DB449ADFE0E0E0CECB39
:1011B8008ED043984298409A419A03E02BB020225F
:1011C800122C0CEF4090A1014022242C21282BB88E
:1011D8000CEF25B02022122C03E04090A101402200
:1011E800242C212825B8419895E39A95F1F7000019
:1011F800419A03E02BB02022122C0CEF4090A00162
:101208004022242C50E0352E21282BB80CEF45B075
:101218004022142C03E04090A0014022242C50E0EE
:10122800352E212825B8419895E39A95F1F70000C5
:10123800419A439A08954BD04398429A409A419ACA
:1012480003E04BB04022142C0CEF6090A101602207
:10125800462C41284BB80CEF45B04022142C03E033
:101268006090A1016022462C412845B8419895E339
:101278009A95F1F70000419A03E04BB04022142CF4
:101288000CEF4090A0014022242C50E0352E21285C
:101298002BB80CEF45B04022142C03E04090A0017D
:1012A8004022242C50E0352E212825B8419895E37A
:1012B8009A95F1F70000419A439A089557985698DD
:1012C8005598549853985298219820980895579A69
:1012D800569A559A549A539A529A219A209A08954E
:1012E80052E050938B010FE01090B701102210923A
:1012F800B60169E0C091B6016C1730F41090B601E0
:1013080007E0100E1092B6011090B60100E3100E1F
:1013180010928D0150E05093B6011090B6011394CD
:101328001092B6015091B70157955093B70160914B
:10133800B601643090F30FE01090B70110221092BC
:10134800B60169E0C091B6016C1730F41090B6018F
:1013580007E0100E1092B6011090B60100E3100ECF
:1013680010928C010895A091B201B091B3015C91E3
:101378005093A5016091A501662309F150E05093AF
:10138800B4016091A5016130D0F01090B4011394BC
:101398001092B4011090B2014090B401140CA12D28
:1013A8001090B30100E0101EB12D5C915093AE0176
:1013B80044D06091B401C091A5016C1730F3089531
:1013C800A091B201B091B3015C915093A5016091D5
:1013D800A501662321F150E05093B4016091A50165
:1013E8006130E8F01090B40113941092B401109099
:1013F800B2014090B401140CA12D1090B30100E08B
:10140800101EB12D5C915093AE0117D0D1E0E0E0F1
:101418009DDA6091B401C091A5016C1718F35DE0E5
:101428005093AE010AD0D1E0E0E090DA5AE0509350
:10143800AE0103D0D1E0E0E089CA60918F0161304C
:1014480041F45090C00055FEFCCF5091AE0150932E
:10145800C600089550E055B950E058B950E05BB95E
:1014680008955098519A089551E050938F015091E2
:10147800C00052605093C0005FEC5093C40050E02D
:101488005093C5005091C10050615093C1005860FD
:101498005093C100089500246C1308950094089592
:1014A80000246C1719F47D1709F4009408956D91C0
:1014B800699302C06D91960F603009F40895ED911B
:1014C800E9936A95E1F70895C895602DE39509F4C5
:1014D800F395699306C0C895602DE39509F4F395D3
:1014E800960F603009F40895C895E39509F4F395CB
:1014F80009926A95C9F70895215265616420526579
:1015080067697374657273206F6E20474C4344207B
:10151800554E4F20736869656C6428636F6E7472EA
:101528006F6C6C657273206569746865722072658A
:1015380061642061732073696E676C652031362D94
:101548006269740020652E672E20746865204944FE
:1015580020697320617420474C434472656164526A
:10156800656728302900206F72206173206120731D
:10157800657175656E6365206F6620382D626974C4
:101588002076616C7565730025696E2073706563DC
:1015980069616C206C6F636174696F6E7320286673
:1015A800697273742069732064756D6D7929000000
:1015B800224F70657274696E6720696E2031362D0E
:1015C8006269742061646472657373696E67206D03
:1015D8006F64650030494420494C49393332302C16
:1015E80020494C49393332352C20494C4939333359
:1015F800352C204858383334372D47202830783751
:1016080035292E2E2E000F4D616E75666163747537
:101618007265722049440F53746174757320526562
:101628006769737465720E47657420506F776572C9
:10163800204D6F6465001047657420506978656CAB
:1016480020466F726D6174000E524449443120483F
:1016580058383334372D47000E5244494432204815
:1016680058383334372D47000E5244494433204804
:1016780058383334372D47000E52444944312048F6
:1016880058383334372D41000E52444944322048EB
:1016980058383334372D41000E52444944332048DA
:1016A80058383334372D410013524449442048698F
:1016B8006D6178204858383334372D411450616EA5
:1016C800656C2048696D6178204858383334372D67
:1016D80041000E52445F444442205353443139364A
:1016E80033001C52474220496E7465726661636517
:1016F800205369676E616C20436F6E74726F6C0063
:1017080011496E76657273696F6E20436F6E7472DD
:101718006F6C0F446973706C617920436F6E7472DB
:101728006F6C0E456E747279204D6F646520536539
:10173800740011494C49393438312C204858383311
:1017480035372D420D50616E656C20436F6E747293
:101758006F6C0547414D4D410D506F7765722043C1
:101768006F6E74726F6C084E564D2052656164003E
:1017780010494C49393334312C20494C49393438D3
:10178800380005524449443105524449443205520F
:10179800444944330747414D4D412D500747414D7A
:1017A8004D412D4E07494C49393332371041646A4F
:1017B80075737420436F6E74726F6C203200114918
:1017C8006E7465726661636520436F6E74726F6CC8
:1017D8001C4578616D696E696E6720203A20474C18
:1017E80043442044657669636520494420001E52BD
:1017F800656164202020202020203A20474C434463
:1018080020446576696365204944203D2000023004
:10181800780019436F6E74726F6C6C6572203A2091
:10182800474C434420494C493933323519436F6E8C
:1018380074726F6C6C6572203A20474C434420499F
:101848004C493933323819436F6E74726F6C6C655A
:1018580072203A20474C434420494C4939333431AB
:1018680019436F6E74726F6C6C6572203A20474C26
:10187800434420485838333537440D436F6E7472EB
:101888006F6C6C6572203A202C436F6E74726F6CAB
:101898006C6572203A2072656728307830302920CC
:1018A80072657475726E656420556E6B6E6F776EB7
:1018B80020474C4344000C436F6D706C657465643D
:1018C80020203A0006726567283078000129012037
:1018D80011407265672830783030292030783534E7
:1018E80030381140726567283078303029203078D8
:1018F800353432301240726567283078303029200C
:1019080053534431323839001340726567283078B0
:10191800363729204858383334372D410F407265FF
:1019280067283078363729203833353712407265C2
:101938006728307836372920494C493934383100FE
:101948001640726567283078303029204858383377
:1019580034372D472854290011407265672830789C
:101968004430292048583833353712407265672883
:10197800307842462920494C4939343831001240E0
:1019880072656728307844332920494C4939333403
:101998003100154072656728307836372920485855
:1019A800383334372D4130310B4072656728307831
:0419B8003030292082
:00000001FF
