:020000020000FC
:0200000033C00B
:0200040018954D
:02000800189549
:02000C00189545
:02001000189541
:0200140018953D
:02001800189539
:02001C00189535
:02002000189531
:0200240018952D
:02002800189529
:02002C00189525
:02003000189521
:0200340018951D
:02003800189519
:02003C00189515
:02004000189511
:0200440018950D
:02004800189509
:02004C00189505
:02005000189501
:020054001895FD
:020058001895F9
:02005C001895F5
:020060001895F1
:020064001895ED
:1000680058E05EBF5FEF5DBF0E945F0A0E94660AAC
:100078000E94690AC0E0D1E0E8E7F5E10E94A40A1D
:1000880050E05093B20151E05093B30151E05093C6
:100098008F010E94150AC0E0D1E0EAE9F5E10E946B
:1000A800A40A50E05093B20151E05093B30151E0DB
:1000B80050938F010E94150AC0E0D1E0E4ECF5E10D
:1000C8000E94A40A50E05093B20151E05093B3014A
:1000D80051E050938F010E94150AC0E0D1E0E6EE8E
:1000E800F5E10E94A40A50E05093B20151E0509308
:1000F800B30151E050938F010E94150AC0E0D1E08E
:10010800E8E0F6E10E94A40A50E05093B20151E001
:100118005093B30151E050938F010E94150AC0E03B
:10012800D1E0EEE2F6E10E94A40A50E05093B20159
:1001380051E05093B30151E050938F010E94150A8A
:10014800C0E0D1E0E0E3F6E10E94A40A50E0509359
:10015800B20151E05093B30151E050938F010E94D6
:10016800150AC0E0D1E0EEE2F6E10E94A40A50E0F0
:100178005093B20151E05093B30151E050938F0175
:100188000E94150AF2D30E949C0950E05093A601E0
:100198005093A70152E05093A401C0E0D1E0E4E5F8
:1001A800F6E10E94A40A50E05093B00151E0509348
:1001B800B1019AD754E05093A60150E05093A7019B
:1001C80054E05093A401C0E0D1E0E6E8F6E10E94D3
:1001D800A40A50E05093B00151E05093B10184D784
:1001E80059E05093A60150E05093A70155E0509371
:1001F800A401C0E0D1E0E6E9F6E10E94A40A50E0DB
:100208005093B00151E05093B1016ED75AE050932A
:10021800A60150E05093A70152E05093A401C0E01A
:10022800D1E0E6EAF6E10E94A40A50E05093B0015A
:1002380051E05093B10158D75CE05093A60150E0CB
:100248005093A70152E05093A401C0E0D1E0E6EB3F
:10025800F6E10E94A40A50E05093B00151E0509397
:10026800B10142D751E65093A60150E05093A7013F
:1002780052E05093A401C0E0D1E0E8ECF6E10E941E
:10028800A40A50E05093B00151E05093B1012CD72B
:1002980052E65093A60150E05093A70152E05093C4
:1002A800A401C0E0D1E0E8EDF6E10E94A40A50E024
:1002B8005093B00151E05093B10116D753E65093D3
:1002C800A60150E05093A70152E05093A401C0E06A
:1002D800D1E0E8EEF6E10E94A40A50E05093B001A4
:1002E80051E05093B10100D754E65093A60150E075
:1002F8005093A70152E05093A401C0E0D1E0E8EF89
:10030800F6E10E94A40A50E05093B00151E05093E6
:10031800B101EAD655E65093A60150E05093A701E3
:1003280052E05093A401C0E0D1E0E8E0F7E10E9478
:10033800A40A50E05093B00151E05093B101D4D6D3
:1003480056E65093A60150E05093A70152E050930F
:10035800A401C0E0D1E0E8E1F7E10E94A40A50E07E
:100368005093B00151E05093B101BED657E6509377
:10037800A60150E05093A70152E05093A401C0E0B9
:10038800D1E0E8E2F7E10E94A40A50E05093B001FE
:1003980051E05093B101A8D650E75093A60150E020
:1003A8005093A70152E05093A401C0E0D1E0ECE3E0
:1003B800F7E10E94A40A50E05093B00151E0509335
:1003C800B10192D651EA5093A60150E05093A7018B
:1003D80055E05093A401C0E0D1E0E2E5F7E10E94C6
:1003E800A40A50E05093B00151E05093B1017CD67B
:1003F80050EB5093A60150E05093A70152E0509360
:10040800A401C0E0D1E0E2E6F7E10E94A40A50E0CE
:100418005093B00151E05093B10166D654EB50931C
:10042800A60150E05093A70152E05093A401C0E008
:10043800D1E0E0E8F7E10E94A40A50E05093B0014F
:1004480051E05093B10150D656EB5093A60150E0BD
:100458005093A70155E05093A401C0E0D1E0E2E930
:10046800F7E10E94A40A50E05093B00151E0509384
:10047800B1013AD657EB5093A60150E05093A7012B
:1004880052E05093A401C0E0D1E0E2EAF7E10E9413
:10049800A40A50E05093B00151E05093B10124D622
:1004A8005FEB5093A60150E05093A70156E050939C
:1004B800A401C0E0D1E0E2EBF7E10E94A40A50E019
:1004C8005093B00151E05093B1010ED650EC5093C7
:1004D800A60150E05093A70159E05093A401C0E051
:1004E800D1E0E4ECF7E10E94A40A50E05093B00197
:1004F80051E05093B101F8D558EC5093A60150E063
:100508005093A7015DE05093A401C0E0D1E0E2ED73
:10051800F7E10E94A40A50E05093B00151E05093D3
:10052800B101E2D55CEC5093A60150E05093A701CD
:1005380052E05093A401C0E0D1E0E4ECF7E10E945E
:10054800A40A50E05093B00151E05093B101CCD5CA
:1005580050ED5093A60150E05093A70153E05093FB
:10056800A401C0E0D1E0E8EDF7E1EAD750E050930C
:10057800B00151E05093B101B7D552ED5093A601A7
:1005880050E05093A70155E05093A401C0E0D1E09A
:10059800E6EEF7E1D5D750E05093B00151E0509323
:1005A800B101A2D553ED5093A60150E05093A70195
:1005B80054E05093A401C0E0D1E0E0EFF7E1C0D7E8
:1005C80050E05093B00151E05093B1018DD55AEDF0
:1005D8005093A60150E05093A70152E05093A40114
:1005E800C0E0D1E0E2E0F8E1ABD750E05093B001D1
:1005F80051E05093B10178D55BED5093A60150E0DE
:100608005093A70152E05093A401C0E0D1E0E8E084
:10061800F8E196D750E05093B00151E05093B10102
:1006280063D55CED5093A60150E05093A70152E0CA
:100638005093A401C0E0D1E0EEE0F8E181D750E0AA
:100648005093B00151E05093B1014ED550EE509304
:10065800A60150E05093A70150E15093A401C0E0D7
:10066800D1E0E4E1F8E16CD750E05093B00151E0FB
:100678005093B10139D551EE5093A60150E05093F3
:10068800A70150E15093A401C0E0D1E0ECE1F8E10A
:1006980057D750E05093B00151E05093B10124D5A1
:1006A8005FEE5093A60150E05093A70156E0509397
:1006B800A401C0E0D1E0E4E2F8E142D750E0509371
:1006C800B00151E05093B1010FD552EF5093A601FC
:1006D80050E05093A7015CE05093A401C0E0D1E042
:1006E800ECE2F8E12DD750E05093B00151E050937F
:1006F800B101FAD456EF5093A60150E05093A701E8
:1007080054E05093A401C0E0D1E0EEE3F8E118D73B
:1007180050E05093B00151E05093B101E5D425D198
:1007280007D6C0E0D1E0EEE2F6E10AD750E05093F8
:10073800B20151E05093B30151E050938F0171D64B
:10074800C0E0D1E0E0E5F8E1FBD650E05093B2011B
:1007580051E05093B30151E050938F0162D691D28A
:10076800509190015093A201509191015093A3018F
:10077800C0E0D1E0EEE6F8E1E3D650E05093B201F4
:1007880051E05093B30151E050938F011DD6C0E062
:10079800D1E0EEE8F8E1D4D650E05093B20151E050
:1007A8005093B30151E050938F010ED65091A3019D
:1007B8005093B701C6D55BE85093B20151E050930E
:1007C800B30151E050938F01FFD55091A20150938E
:1007D800B701B7D55BE85093B20151E05093B3012C
:1007E80051E050938F011DD66091A2017091A30131
:1007F800C5E2D3E986D600FE10C0C0E0D1E0E2E948
:10080800F8E19ED650E05093B20151E05093B30105
:1008180051E050938F0105D67CC06091A201709180
:10082800A301C8E2D3E96DD600FE10C0C0E0D1E054
:10083800ECEAF8E185D650E05093B20151E05093CC
:10084800B30151E050938F01ECD563C06091A201D0
:100858007091A301C1E4D3E954D600FE10C0C0E0F2
:10086800D1E0E6ECF8E16CD650E05093B20151E0EB
:100878005093B30151E050938F01D3D54AC0609192
:10088800A2017091A301C7E5D3E83BD600FE10C0D2
:10089800C0E0D1E0E0EEF8E153D650E05093B20169
:1008A80051E05093B30151E050938F01BAD531C054
:1008B8006091A2017091A301C0E0D0E022D600941B
:1008C80000FE18C0C0E0D1E099275991EAEFF8E19D
:1008D8003ED6A2E6B1E02AD6A0E0B1E09C9350E073
:1008E8005093B20151E05093B30151E050938F01FE
:1008F80098D50FC0C0E0D1E0E8E0F9E121D650E09A
:100908005093B20151E05093B30151E050938F01DD
:1009180088D5C0E0D1E0E6E3F9E112D650E0509383
:10092800B20151E05093B30151E050938F0179D552
:10093800C0E0D1E0EEE2F6E103D650E05093B20118
:1009480051E05093B30151E050938F016AD58895D7
:10095800FECFE395AEEF94E19A95F1F7AA95D9F712
:10096800DA95C1F7EA95B1F70895389A399A3A9A1B
:100978003B9A3C9A409A419A429A439A449A41D463
:10098800D6E9E0E0E6CFCBD44398429A409A419A20
:10099800409895E39A95F1F70000509193015F779D
:1009A8004F995068509393015F7B4E9950645093D0
:1009B80093015F7D4D995062509393015F7E4C99EE
:1009C800506150939301577F4B995860509393010E
:1009D8005B7F4A995460509393015D7F19995260E7
:1009E800509393015E7F1899516050939301409AF8
:1009F80095E39A95F1F70000409895E39A95F1F7F9
:100A08000000509192015F774F995068509392017E
:100A18005F7B4E995064509392015F7D4D9950626F
:100A2800509392015F7E4C99506150939201577F89
:100A38004B995860509392015B7F4A995460509348
:100A480092015D7F19995260509392015E7F1899C7
:100A5800516050939201409A95E39A95F1F70000FE
:100A680008955DD44398429A409A419A409895E3F4
:100A78009A95F1F70000509197015F774F99506868
:100A8800509397015F7B4E995064509397015F7D17
:100A98004D995062509397015F7E4C9950615093E5
:100AA8009701577F4B995860509397015B7F4A99FC
:100AB8005460509397015D7F199952605093970144
:100AC8005E7F1899516050939701409A95E39A95E3
:100AD800F1F70000409895E39A95F1F700005091DE
:100AE80096015F774F995068509396015F7B4E99B6
:100AF8005064509396015F7D4D99506250939601D2
:100B08005F7E4C99506150939601577F4B9958607E
:100B1800509396015B7F4A995460509396015D7F8C
:100B280019995260509396015E7F189951605093BD
:100B38009601409A95E39A95F1F70000409895E35D
:100B48009A95F1F70000509195015F774F99506899
:100B5800509395015F7B4E995064509395015F7D4A
:100B68004D995062509395015F7E4C995061509316
:100B78009501577F4B995860509395015B7F4A992F
:100B88005460509395015D7F199952605093950177
:100B98005E7F1899516050939501409A95E39A9514
:100BA800F1F70000409895E39A95F1F7000050910D
:100BB80094015F774F995068509394015F7B4E99E9
:100BC8005064509394015F7D4D9950625093940105
:100BD8005F7E4C99506150939401577F4B995860B0
:100BE800509394015B7F4A995460509394015D7FC0
:100BF80019995260509394015E7F189951605093EF
:100C08009401409A95E39A95F1F70000089587D3E7
:100C18004398429A409A419A409895E39A95F1F7F9
:100C28000000509198015F774F9950685093980150
:100C38005F7B4E995064509398015F7D4D99506247
:100C4800509398015F7E4C99506150939801577F5B
:100C58004B995860509398015B7F4A995460509320
:100C680098015D7F19995260509398015E7F189999
:100C7800516050939801409A95E39A95F1F70000D6
:100C8800089550E05093A601C8D15091990150930E
:100C9800AC0150919A015093AD016091AC017091F3
:100CA800AD01C8E0D4E52DD400FE0CC058E0509347
:100CB800900154E550939101C2E6D1E0E0E5F9E1F5
:100CC8003FD408956091AC017091AD01C0E2D4E5C4
:100CD80018D400FE0CC050E25093900154E5509394
:100CE8009101C2E6D1E0E2E6F9E12AD408956091E3
:100CF800AC017091AD01C9E8D9E803D400FE0CC07D
:100D080059E85093900152E150939101C2E6D1E025
:100D1800E4E7F9E115D4089557E65093A6017DD18B
:100D28006091990170919A01C7E4D7E4EAD300FE73
:100D38000CC057E45093900153E850939101C2E6D8
:100D4800D1E0E8E8F9E1FCD308955FEB5093A60100
:100D580064D1509199015093AC0150919A015093EC
:100D6800AD0157E65093A60158D160919901709151
:100D78009A01C7E5D3E8C5D300FE0CC057E55093E8
:100D8800900153E850939101C2E6D1E0ECE9F9E112
:100D9800D7D3089557E65093A6013FD160919901A2
:100DA80070919A01C1E8D4E9ACD300FE0CC051E8B7
:100DB8005093900154E950939101C2E6D1E0ECEAD6
:100DC800F9E1BED3089550E05093A60126D1609171
:100DD800990170919A01C5E7D5E793D300FE0BC03E
:100DE80055E75093900150939101C2E6D1E0E0ECB1
:100DF800F9E1A6D3089550E05093A6010ED1609171
:100E0800990170919A01C5E9D5E97BD300FE0BC021
:100E180055E95093900150939101C2E6D1E0E8ED75
:100E2800F9E18ED3089554E05093A601F6D060916D
:100E3800990170919A01C0E0D0E863D300FE3CC0EC
:100E480077D253E05093A00150E05093A101E1D133
:100E5800DAE0E0E07EDD5FEF5093A00150E05093D0
:100E6800A1011AD253E85093A00150E05093A10178
:100E780013D257E55093A00150E05093A1010CD232
:100E8800DCE2E1E066DD50ED5093A601C6D060914A
:100E9800990170919A01C0E0D9E933D300FE0CC0E2
:100EA80057E55093900153E850939101C2E6D1E081
:100EB800EEEEF9E145D308955FEB5093A601ADD06E
:100EC8006090990150E0752E662D772DC2E0D0E034
:100ED80018D300FE17C09BDE56DD60919201709119
:100EE8009301C1E8D4E90DD300FE0CC051E850933A
:100EF800900154E950939101C2E6D1E0E0E0FAE1B3
:100F08001FD3089553ED5093A601A8D050919B018B
:100F18005093A80150919C015093A90150919D01B3
:100F28005093AA0150919E015093AB011090A801D3
:100F38002090A90150E0352E50E0452E612D722DEC
:100F4800832D942DC6E8D4E9E0E0F0E0E1D200FE7C
:100F58000CC051E85093900154E950939101C2E6B6
:100F6800D1E0E4E1FAE1ECD208956091A901C3E986
:100F7800C3D2802C6091A901C8E9BED2102C60911F
:100F8800A901C7E7B9D2602C6091A901C6E1B4D222
:100F98001828012D602A862C602C6828162C10FE33
:100FA8000CC051E45093900153E950939101C2E66B
:100FB800D1E0E8E2FAE1C4D2089557E65093A601D9
:100FC80076D060919F01673461F457E450939001A3
:100FD80050E050939101C2E6D1E0ECE3FAE1B0D2DF
:100FE8000895A6D150E05093A0015093A10111D1CA
:100FF800DAE0E0E0AEDC50E05093A6010ED050916C
:1010080099015093900150919A0150939101C2E631
:10101800D1E0E2E5FAE194D2F4C08AD150EB5093E2
:10102800A00150E05093A101F4D050E05093A001EA
:101038005093A10131D15091A6015093A00150E0E5
:101048005093A101E6D06BD19EDC50919201509350
:1010580099015091930150939A016AC169D150EB5B
:101068005093A00150E05093A101D3D050E0509389
:10107800A0015093A10110D15091A6015093A00155
:1010880050E05093A101C5D04AD1EBDC50919401B6
:1010980050939B015091950150939C01509196015A
:1010A80050939D015091970150939E0141C140D1A9
:1010B80050EB5093A00150E05093A101AAD050E00A
:1010C8005093A0015093A101E7D05091A6015093ED
:1010D800A00150E05093A1019CD021D198DD5091FE
:1010E800980150939F0124C123D15091A601509398
:1010F800A0015091A7015093A1018BD0C1E3D1E089
:10110800E4E4F9E11DD251E35093B20151E0509368
:10111800B30151E050938F0157D15091A7015093DB
:10112800B7010FD15BE85093B20151E05093B3017E
:1011380051E050938F0148D15091A6015093B701C7
:1011480000D15BE85093B20151E05093B30151E0F4
:1011580050938F0139D1C1E3D1E0ECE4F9E1F0D14A
:1011680051E35093B20151E05093B30151E05093D1
:101178008F012AD1D4D05091A4015093B501609128
:10118800B501662309F429C042DD509198015093B6
:10119800B801C1E3D1E0EEE4F9E1D2D151E35093D3
:1011A800B20151E05093B30151E050938F010CD13B
:1011B8005091B8015093B701C4D05BE85093B20185
:1011C80051E05093B30151E050938F01FDD010903E
:1011D800B5011A941092B501B9F6AAD059E0509306
:1011E800AE0151E050938F0159D15091B001509305
:1011F800B2015091B1015093B30151E050938F0166
:1012080010C14498DFE0E0E0A4DB449ADFE0E0E0CE
:10121800A0CB8ED043984298409A419A03E06BB095
:101228006022162C0CEF8090A1018022682C612886
:101238006BB80CEF65B06022162C03E08090A1011A
:101248008022682C612865B8419895E39A95F1F752
:101258000000419A03E06BB06022162C0CEF8090DE
:10126800A0018022682C50E0752E61286BB80CEF25
:1012780085B08022182C03E08090A0018022682C81
:1012880050E0752E612865B8419895E39A95F1F775
:101298000000419A439A08954BD04398429A409A45
:1012A800419A03E01BB01022812C0CEF6090A10141
:1012B8006022162C18281BB80CEF15B01022812CB0
:1012C80003E06090A1016022162C182815B84198F7
:1012D80095E39A95F1F70000419A03E01BB01022BC
:1012E800812C0CEF1090A0011022612C50E0752E7B
:1012F80068286BB80CEF15B01022812C03E0109011
:10130800A0011022612C50E0752E682865B841981C
:1013180095E39A95F1F70000419A439A08955798F2
:10132800569855985498539852982198209808950B
:10133800579A569A559A549A539A529A219A209A99
:10134800089552E050938B010FE08090B7018022FE
:101358008092B60169E0C091B6016C1730F48090B4
:10136800B60107E0800E8092B6018090B60100E3D6
:10137800800E80928D0150E05093B6018090B601A6
:1013880083948092B6015091B70157955093B70155
:101398006091B601643090F30FE08090B70180222D
:1013A8008092B60169E0C091B6016C1730F4809064
:1013B800B60107E0800E8092B6018090B60100E386
:1013C800800E80928C010895A091B201B091B30172
:1013D8005C915093A5016091A501662309F150E045
:1013E8005093B4016091A5016130D0F08090B401B0
:1013F80083948092B4018090B2011090B401810C62
:10140800A82D8090B30100E0801EB82D5C91509308
:10141800AE0144D06091B401C091A5016C1730F3BE
:101428000895A091B201B091B3015C915093A501C8
:101438006091A501662321F150E05093B4016091B9
:10144800A5016130E8F01090B40113941092B40132
:101458001090B2018090B401180CA12D1090B30126
:1014680000E0101EB12D5C915093AE0117D0D1E071
:10147800E0E06FDA6091B401C091A5016C1718F330
:101488005DE05093AE010AD0D1E0E0E062DA5AE0C4
:101498005093AE0103D0D1E0E0E05BCA60918F01C8
:1014A800613041F45090C00055FEFCCF5091AE0120
:1014B8005093C600089550E055B950E058B950E02F
:1014C8005BB908955098519A089551E050938F014F
:1014D8005091C00052605093C0005FEC5093C4001C
:1014E80050E05093C5005091C10050615093C10025
:1014F80058605093C100089500246C130895009417
:10150800089500246C1719F47D1709F400940895C0
:1015180000246C1739F47D1729F48E1719F49F17D6
:1015280009F4009408956D91699302C06D91960F26
:10153800603009F40895ED91E9936A95E1F708950B
:10154800C895602DE39509F4F395699306C0C8958D
:10155800602DE39509F4F395960F603009F408952A
:10156800C895E39509F4F39509926A95C9F7089522
:1015780021526561642052656769737465727320CE
:101588006F6E20474C434420554E4F207368696561
:101598006C6428636F6E74726F6C6C65727320650F
:1015A800697468657220726561642061732073696B
:1015B8006E676C652031362D6269740020652E6770
:1015C8002E2074686520494420697320617420477F
:1015D8004C43447265616452656728302900206F66
:1015E8007220617320612073657175656E63652073
:1015F8006F6620382D6269742076616C756573009A
:1016080025696E207370656369616C206C6F636116
:1016180074696F6E73202866697273742069732009
:1016280064756D6D79290000224F70657274696E5A
:101638006720696E2031362D626974206164647296
:10164800657373696E67206D6F6465003049442067
:10165800494C49393332302C20494C4939333235D9
:101668002C20494C49393333352C204858383334E9
:10167800372D47202830783735292E2E2E000F4D4C
:10168800616E7566616374757265722049440F53A3
:1016980074617475732052656769737465720E4757
:1016A800657420506F776572204D6F646500104730
:1016B800657420506978656C20466F726D6174009E
:1016C8000E5244494431204858383334372D4700A6
:1016D8000E5244494432204858383334372D470095
:1016E8000E5244494433204858383334372D470084
:1016F8000E5244494431204858383334372D41007C
:101708000E5244494432204858383334372D41006A
:101718000E5244494433204858383334372D410059
:1017280013524449442048696D6178204858383339
:1017380034372D411450616E656C2048696D6178AD
:10174800204858383334372D41000E52445F444402
:10175800422053534431393633001C524742204902
:101768006E74657266616365205369676E616C208B
:10177800436F6E74726F6C0011496E76657273698F
:101788006F6E20436F6E74726F6C0F446973706C68
:10179800617920436F6E74726F6C0E456E74727946
:1017A800204D6F6465205365740011494C493934E4
:1017B80038312C204858383335372D420D50616E5A
:1017C800656C20436F6E74726F6C0547414D4D41D7
:1017D8000D506F77657220436F6E74726F6C084E90
:1017E800564D20526561640010494C4939333431F3
:1017F8002C20494C49393438380005524449443181
:101808000552444944320552444944330747414D3F
:101818004D412D500747414D4D412D4E07494C49EB
:10182800393332371041646A75737420436F6E74AC
:10183800726F6C20320011496E746572666163655F
:1018480020436F6E74726F6C1C4578616D696E69A8
:101858006E6720203A20474C4344204465766963EC
:101868006520494420001E52656164202020202004
:1018780020203A20474C434420446576696365201C
:101888004944203D20000230780019436F6E74727D
:101898006F6C6C6572203A20474C434420494C4990
:1018A8003933323519436F6E74726F6C6C65722000
:1018B8003A20474C434420494C493933323819437C
:1018C8006F6E74726F6C6C6572203A20474C43449B
:1018D80020494C493933343119436F6E74726F6C37
:1018E8006C6572203A20474C4344204858383335B9
:1018F80037440D436F6E74726F6C6C6572203A20BA
:101908002C436F6E74726F6C6C6572203A2072652E
:10191800672830783030292072657475726E656476
:1019280020556E6B6E6F776E20474C4344000C4316
:101938006F6D706C6574656420203A000672656787
:101948002830780001290120114072656728307815
:1019580030302920307835343038114072656728A6
:101968003078303029203078353432301240726582
:1019780067283078303029205353443132383900C1
:10198800134072656728307836372920485838332D
:1019980034372D410F407265672830783637292053
:1019A8003833353712407265672830783637292042
:1019B800494C493934383100164072656728307807
:1019C800303029204858383334372D4728542900D7
:1019D80014407265672830783030292048583833E9
:1019E80034372869290011407265672830784430F7
:1019F80029204858383335371240726567283078BF
:101A080042462920494C4939343831001240726520
:101A18006728307844332920494C4939343836000E
:101A2800124072656728307844332920494C493977
:101A380033343100154072656728307836372920ED
:101A48004858383334372D4130310B407265672898
:061A580030783030292037
:00000001FF
