:020000020000FC
:0200000033C00B
:0200040018954D
:02000800189549
:02000C00189545
:02001000189541
:0200140018953D
:02001800189539
:02001C00189535
:02002000189531
:0200240018952D
:02002800189529
:02002C00189525
:02003000189521
:0200340018951D
:02003800189519
:02003C00189515
:02004000189511
:0200440018950D
:02004800189509
:02004C00189505
:02005000189501
:020054001895FD
:020058001895F9
:02005C001895F5
:020060001895F1
:020064001895ED
:1000680058E05EBF5FEF5DBF71D777D7C9D567D757
:1000780050EC509359015DE550935A016091590134
:1000880070915A01CFEFD0E00E94B10960935901F5
:1000980070935A015FE15093280150E05093290171
:1000A80053D350E050934F015093500150E0509378
:1000B800510150935201509159015093660150914A
:1000C8005A01509367010E94CD08C0E0D1E09927FA
:1000D8005991E4E0F4E10E94F109AFE0B1E00E9437
:1000E800A709A0E0B1E09C9350E050935D0151E076
:1000F80050935E011ED554EF50935F0152E0509328
:10010800600158D76091530170E0C0915901D091B6
:100118005A010E94E00900926801109269016091F9
:10012800680170916901C4E6D0E00E94B10960934A
:100138006801709369013ED76091530170E0C091E6
:100148005901D0915A010E94E00900926C01109265
:100158006D0160916C0170916D01C4E6D0E00E9460
:10016800B10960936C0170936D0124D760915301BC
:1001780070E0C0915901D0915A010E94E0090092A3
:100188006A0110926B0160916A0170916B01C4E67B
:10019800D0E00E94B10960936A0170936B010AD79D
:1001A8006091530170E0C0915901D0915A010E94A9
:1001B800E00900926E0110926F0160916E017091DA
:1001C8006F01C4E6D0E00E94B10960936E0170939C
:1001D8006F01F0D6509153015093150150E05093A0
:1001E8001601E8D6509153015093160150916801B9
:1001F80050934701509169015093480150916C0107
:1002080050934B0150916D0150934C0160906801DF
:1002180080906A01680C6092490180906901609041
:100228006B01861C80924A0180906C0160906E017F
:10023800860C80924D0180906D0160906F01861C44
:1002480080924E015091150150934501509116012D
:100258005093460112D060905F01709060016A94DB
:1002680060925F0109F04DCF7A947092600109F0B5
:1002780048CF6AD240CF8895FECFC0914701D09130
:1002880048016091490170914A010E949A0900FE53
:1002980018C05091470150933A015091480150932A
:1002A8003B01509149015093470150914A015093A5
:1002B800480150913A015093490150913B015093A4
:1002C8004A01C0914B01D0914C0160914D01709150
:1002D8004E010E949A0900FE18C050914B0150939C
:1002E8003A0150914C0150933B0150914D0150936C
:1002F8004B0150914E0150934C0150913A0150934B
:100308004D0150913B0150934E018090470101E00F
:10031800801A809226018090480100E0800A80922D
:100328002701C0914701D09148016091490170911E
:100338004A01FCD700FC48C0809026018394809233
:1003480026018090270109F4839480922701509117
:10035800260150933C015091270150933D01509143
:100368004B0150933E0150914C0150933F015091E5
:10037800450150932A015091460150932B01F0D525
:100388005091260150933C015091270150933D0113
:1003980050914D0150933E0150914E0150933F01B1
:1003A8005091450150932A015091460150932B01D9
:1003B800D7D56091260170912701C0914901D0914C
:1003C8004A01B4D700FCB8CF80904B0101E0801AF5
:1003D8008092260180904C0100E0800A80922701DB
:1003E800C0914B01D0914C0160914D0170914E012B
:1003F8009DD700FC48C080902601839480922601F6
:100408008090270109F48394809227015091470135
:1004180050933C015091480150933D015091260161
:1004280050933E015091270150933F01509145014F
:1004380050932A015091460150932B0191D5509128
:10044800490150933C0150914A0150933D0150910C
:10045800260150933E015091270150933F0150913E
:10046800450150932A015091460150932B0178D5AC
:100478006091260170912701C0914D01D0914E01E4
:1004880055D700FCB8CF0895E395AEEF94E19A955F
:10049800F1F7AA95D9F7DA95C1F7EA95B1F7089572
:1004A800A13710F000240895EEEBF4E0EA0F08F409
:1004B800F395C89508957000100C0A882238200812
:1004C800201010808040040000002848466C00007E
:1004D800002810001000407C008482304E78066CA2
:1004E8000C00001028000464F8FE7CFEFEFE7CFE72
:1004F8000040FEFEFEFE7CFE7CFE4C027E3E7EC67A
:100508000EC200040008800040FE7070701010FEDB
:100518000040FE00F8F870F810F8901078387888E5
:100528001888000000207800A13710F000240895F2
:10053800E6E4F5E0EA0F08F4F395C895089570FE2F
:10054800380A06CC667C700440103888A2701C00FB
:10055800000EFE5426920A38821010A010C020A265
:1005680084C282288A940292926CAC2828820292D1
:100578002492828292128210828010800408821251
:10058800821292028040802810A2FE088204800213
:10059800A8908888A8FCA810908020820810882835
:1005A8002810A87C80408050A0C810008210440009
:1005B800A13710F000240895EEECF5E0EA0F08F4F6
:1005C800F395C8950895707C7C0000EEEE7CA8FE3B
:1005D800FE545494947C7C009E0028FE10AA064485
:1005E800447C7C6010C01092FEA28A248A92E29217
:1005F800926C6C442844A2F2229282829212921047
:10060800FE82288018108212A23292FE808070101A
:10061800E092821082028004A8888888A812A8081C
:10062800FA8850FEF00888282808A8908080602062
:10063800A0A86CFE6C104200A13710F000240895A9
:10064800E6E5F6E0EA0F08F4F395C89508957038E2
:10065800FE0C0ACC667C2004403810A288701C006E
:10066800000EFE54C8440082381010001000088A9A
:10067800809296FE8A921292520000822828128254
:100688002492824492129210827E44800420821224
:100698004252920280408028108A8220FE048008FC
:1006A800A8888890A802A808807A888008088828DE
:1006B8003008A88040408050A09882001020440054
:1006C800A13710F000240895EEEDF6E0EA0F08F4E3
:1006D800F395C89508957010000A068822383E08D8
:1006E800201010808040040000002824C4A00000CE
:1006F800002810001000047C008C622072600E6CD0
:100708003C00000028100C7CF86C44388202F4FE8F
:1007180000028280FEFE7C0CBC8C64027E3E7EC69B
:100728000E86004000088000F07040FE300478F02B
:1007380000000000F0F07010F8104040F838788899
:10074800788800000010780050E0509340015093E2
:10075800410150E0509370015093710150E0509363
:1007680074015093750180902E0101E0801A8092E7
:10077800720180902F0100E0800A809273018090BE
:100788002C0101E0801A8092760180902D0100E012
:10079800800A80927701C9D450912801509343016F
:1007A80050912901509344014398429A409A52E04B
:1007B8005093610150E05093620156E950936301F0
:1007C800419A03E06BB06022862C0CEF4090440104
:1007D8004022642C68286BB80CEF45B04022842C6A
:1007E80003E0609044016022462C482845B84198AF
:1007F800419A03E04BB04022842C0CEF4090430117
:100808004022642C50E0752E68286BB80CEF45B078
:100818004022842C03E0409043014022642C50E0A5
:10082800752E682865B841986090620170906301E0
:100838006A946092620121F67A947092630109F0D9
:10084800BFCF809061018A948092610109F0B2CF94
:10085800439A419A03E04BB04022842C0CEF6090FD
:1008680044016022462C48284BB80CEF45B0402282
:10087800842C03E0609044016022462C482845B847
:100888004198419A03E04BB04022842C0CEF4090F1
:1008980043014022642C50E0752E68286BB80CEF99
:1008A80045B04022842C03E0409043014022642C50
:1008B80050E0752E682865B84198419A089580904F
:1008C80017010FE0801A8092170150E05093180129
:1008D8005093190160911701C2EB22D50094802C26
:1008E800C09117016AEC1CD50094602C6820462C36
:1008F80040FE0CC080901D0101E0801A80921D010D
:1009080080901E0100E0800A80921E0150E0509302
:100918002301809023018394809223016091230115
:10092800613031F4A0911701BBDD0092250127C089
:1009380060912301623031F4A0911701F5DD009236
:1009480025011DC060912301633031F4A091170186
:100958002FDE0092250113C060912301643031F429
:10096800A091170169DE0092250109C06091230159
:10097800653029F4A0911701A3DE0092250150E00B
:1009880050931F015093200150E050932401809010
:10099800240183948092240150E050931A0150E07E
:1009A8005093220160913101613008F498C0809021
:1009B800220183948092220180901A01839480926C
:1009C8001A0150E05093210150E050935801609172
:1009D8003101613008F47CC0809058018394809282
:1009E8005801809021018394809221015090250123
:1009F80050FE34C080901B0140901801840C682C74
:100A080080901C0140901901841C782C80901A0158
:100A1800680C60923C0100E0701E70923D0180906D
:100A28001D0140901F01840C682C80901E0140908D
:100A38002001841C782C80902101680C60923E0172
:100A480000E0701E70923F015091450150932A01B9
:100A58005091460150932B0183D233C080901B01E3
:100A680040901801840C682C80901C01409019015A
:100A7800841C782C80901A01680C60923C0100E07C
:100A8800701E70923D0180901D0140901F01840CE2
:100A9800682C80901E0140902001841C782C809046
:100AA8002101680C60923E0100E0701E70923F01C7
:100AB8005091280150932A015091290150932B01FC
:100AC8004FD260915801C09131016C1708F484CF5E
:100AD80060912201C09131016C1708F468CF5091E0
:100AE800250157955093250180901F0140903101B1
:100AF800840C80921F018090200100E0801E80926B
:100B0800200160912401683008F441CF80901801D9
:100B180040903101840C809218018090190100E006
:100B2800801E8092190160912301653008F4F1CE8E
:100B38000895A0915D01B0915E015C9150933501DB
:100B480060913501662309F4089550914F0150933F
:100B58003601509150015093370150E050933801BD
:100B680060913501613008F44AC08090380183945F
:100B7800809238015091360150931B0150913701F2
:100B880050931C015091510150931D0150915201F5
:100B980050931E0180905D0160903801860CA82D4D
:100BA80080905E0100E0801EB82D5C915093170183
:100BB80050913301509345015091340150934601AF
:100BC8007EDE60913201C09131016C9F802C0091D2
:100BD8003601080D602E8090370100E0801E782CC9
:100BE80001E0600E6092360100E0701E70923701DD
:100BF80060913801C09135016C1708F4B6CF08959B
:100C0800579A569A559A549A539A529A219A209AD0
:100C1800389A399A3A9A3B9A3C9A409A419A429A17
:100C2800439A449AD2E3E0E02FDC449ADFE0E0E024
:100C38002BDC449890E59A95F1F7449ADFE0E0E0E0
:100C480023DC5FEE50934201FAD153E05093420106
:100C580014D250E85093420110D252E0509342010E
:100C68000CD25FEC50934201EAD150E0509342011C
:100C780004D251EC5093420100D250E35093420108
:100C8800FCD15DEE50934201DAD154E65093420113
:100C9800F4D153E050934201F0D152E15093420114
:100CA800ECD151E850934201E8D158EE50934201FB
:100CB800C6D155E850934201E0D150E0509342012B
:100CC800DCD158E750934201D8D15BEC50934201F4
:100CD800B6D159E350934201D0D15CE2509342011E
:100CE800CCD150E050934201C8D154E35093420113
:100CF800C4D152E050934201C0D157EF5093420102
:100D08009ED150E250934201B8D15AEE509342011D
:100D180096D150E050934201B0D150E05093420137
:100D2800ACD150EC509342018AD15BE2509342011E
:100D3800A4D151EC5093420182D150E15093420129
:100D48009CD155EC509342017AD15EE35093420115
:100D580094D158E25093420190D157EC50934201FC
:100D68006ED156E85093420188D156E35093420120
:100D780066D158E45093420180D15AE3509342011E
:100D88005ED155E55093420178D151EB5093420121
:100D980056D150E05093420170D158E1509342012E
:100DA8006CD156EB509342014AD158E0509342011E
:100DB80064D152E85093420160D157E25093420106
:100DC8005CD152EF509342013AD150E05093420126
:100DD80054D156E25093420132D151E0509342012E
:100DE8004CD150EE509342012AD15FE0509342011A
:100DF80044D151E35093420140D15BE25093420108
:100E08003CD15CE05093420138D15EE050934201FE
:100E180034D158E05093420130D15EE450934201FE
:100E28002CD151EF5093420128D157E350934201FE
:100E380024D157E05093420120D150E15093420110
:100E48001CD153E05093420118D15EE05093420107
:100E580014D159E05093420110D150E0509342010F
:100E68000CD151EE50934201EAD050E05093420128
:100E780004D15EE05093420100D154E15093420105
:100E8800FCD053E050934201F8D051E15093420115
:100E9800F4D057E050934201F0D051E3509342010F
:100EA800ECD051EC50934201E8D058E45093420101
:100EB800E4D058E050934201E0D05FE05093420103
:100EC800DCD05CE050934201D8D051E3509342010A
:100ED800D4D056E350934201D0D05FE05093420102
:100EE800CCD051E150934201AAD0D6E9E0E0CCDA67
:100EF80059E250934201A3D050E0509328015093F7
:100F080029015FEF509333015093340150EF509310
:100F18002E0150E050932F0150E450932C0151E0E2
:100F280050932D0156E05093320150E05093300118
:100F380051E05093310154E05093390105CC57ECFE
:100F48005093540158EB50935501089550E055B90A
:100F580050E058B950E05BB908955098519A0895F7
:100F680050913C015093700150913D015093710193
:100F780050913E015093740150913F015093750177
:100F880050913C015093720150913D01509373016F
:100F980050913E015093760150913F015093770153
:100FA800C4D050912A015093430150912B01509382
:100FB800440181C057E0509364015091540150930B
:100FC80056015091550150935701551F50915601A4
:100FD800551F5093560150915701551F5093570173
:100FE80001E0809054018022682C50E0752E6094B6
:100FF800862C7094972C01E0800E682C00E0901EDF
:10100800792C50E0852E04EB7022972C40905601E5
:101018008424809254014090570194249092550161
:101028004090530160905501642460925301809070
:1010380064018A948092640109F0BFCF08954398AF
:101048004298409A419A03E04BB04022842C0CEF1E
:10105800609042016022462C48284BB80CEF45B0FE
:101068004022842C03E0609042016022462C4828EC
:1010780045B84198419A439A08954398429A409AAC
:10108800419A03E04BB04022842C0CEF609042015F
:101098006022462C48284BB80CEF45B04022842CDF
:1010A80003E0609042016022462C482845B84198E8
:1010B800419A439A08954398429A409A419A03E084
:1010C8004BB04022842C0CEF609044016022462CE7
:1010D80048284BB80CEF45B04022842C03E06090C0
:1010E80044016022462C482845B84198419A03E0BB
:1010F8004BB04022842C0CEF409043014022642CDA
:1011080050E0752E68286BB80CEF45B04022842C4F
:1011180003E0409043014022642C50E0752E68287B
:1011280065B84198419A439A08955AE2509342010A
:1011380086DF50917101509342019FDF50917001F9
:10114800509342019ADF509173015093420195DF09
:10115800509172015093420190DF5BE2509342013B
:101168006EDF509175015093420187DF50917401F1
:101178005093420182DF50917701509342017DDF05
:10118800509176015093420178DF5CE2509342011E
:1011980056CF50E050935C016091660170916701F1
:1011A800C0E1D7E2C3D0009400FE1FC06091660181
:1011B80070916701C0E1D7E2D0D0609365010092D9
:1011C80066011092670140905C01439440925C0173
:1011D8000FE0400EA42D00E011E0011FB02F409059
:1011E800650100E3400E4C920AC06091660170915F
:1011F8006701C8EED3E09AD0009400FE1FC060914A
:10120800660170916701C8EED3E0A7D060936501CD
:10121800009266011092670140905C0143944092ED
:101228005C010FE0400EA42D00E011E0011FB02F7B
:101238004090650100E3400E4C920AC0609166013F
:1012480070916701C4E6D0E071D0009400FE1FC021
:101258006091660170916701C4E6D0E07ED060932A
:101268006501009266011092670140905C01439409
:1012780040925C010FE0400EA42D00E011E0011F38
:10128800B02F4090650100E3400E4C920AC0609177
:10129800660170916701CAE0D0E048D0009400FE72
:1012A8001EC06091660170916701CAE0D0E055D018
:1012B80060936501009266011092670140905C019D
:1012C800439440925C010FE0400EA42D00E011E031
:1012D800011FB02F4090650100E3400E4C924090F2
:1012E8005C01439440925C010FE0400EA42D00E0A5
:1012F80011E0011FB02F4090660100E3400E4C92B0
:10130800009266011092670150915C0150930F01A1
:10131800089500246C1719F47D1709F400940895B2
:1013280000246C1708F00895009408950024D71736
:1013380030F07D1718F06C1708F0089500940895A0
:101348006D91699302C06D91960F603009F408950C
:10135800ED91E9936A95E1F70895862F972FEC2F81
:10136800FD2F50E0252E50E0352E6E2F7F2FC0E048
:10137800D0E0CFDF00FE03C060E070E0089550E1E8
:10138800552E8894881F991F221C331C822C8E1A74
:10139800282C832C8F0A382C816038F48E7F822C7D
:1013A8008E0E282C832C8F1E382C5A9451F7682FB8
:1013B800792F022C132C08956C9F202C312C6D9FB3
:1013C800300C7C9F300C022C132C0895C895602D8E
:1013D800E39509F4F395699306C0C895602DE395E4
:1013E80009F4F395960F603009F40895C895E395CC
:1013F80009F4F39509926A95C9F708950E53636144
:0C1408006C65666163746F72203D20000B
:00000001FF
