:020000020000FC
:0200000033C00B
:0200040018954D
:02000800189549
:02000C00189545
:02001000189541
:0200140018953D
:02001800189539
:02001C00189535
:02002000189531
:0200240018952D
:02002800189529
:02002C00189525
:02003000189521
:0200340018951D
:02003800189519
:02003C00189515
:02004000189511
:0200440018950D
:02004800189509
:02004C00189505
:02005000189501
:020054001895FD
:020058001895F9
:02005C001895F5
:020060001895F1
:020064001895ED
:1000680058E05EBF5FEF5DBF88D0259A58E0509397
:10007800050150E050930601009006010A94009291
:10008800060151E05093010150910601509304017B
:1000980051E05093030178D066E9C09106016C17CE
:1000A80058F3D5E0E0E05DD055E9509306010090A3
:1000B800060103940092060151E05093010150910A
:1000C80006015093040151E0509303015DD0609103
:1000D80006016F3F60F3D5E0E0E043D000900501F2
:1000E8000A940092050109F0C4CF52E0509305012B
:1000F80050E050930601009006010A940092060110
:1001080051E050930101509106015093040151E0D0
:100118005093030139D06AE0C09106016C1758F377
:1001280059E05093060100900601039400920601DD
:1001380051E050930101509106015093040151E0A0
:100148005093030121D0609106016F3F60F3009046
:1001580005010A940092050159F688CF00C08895D8
:10016800FECFE395A1E79AE39A95F1F7AA95D9F717
:10017800DA95C1F7EA95B1F7089550E055B950E01E
:1001880058B950E05BB9089550E05093020160916E
:100198000301613040F100900201039400920201D2
:1001A80050E0509300010090000103940092000178
:1001B80060910001C09104016C1730F46091010155
:1001C800613009F42D9A05C060910101613009F48C
:1001D8002D98609100016F3F30F360910201C0914A
:0801E80003016C17C0F2089539
:00000001FF
